{
  "transactions": [
    {
      "hash": "0x24fd6c1b6253ceb7aa9cc7354a310531db8868528571363509ceb1b3de91cac4",
      "transactionType": "CALL",
      "contractName": null,
      "contractAddress": "0xaf88d065e77c8cc2239327c5edb3a432268e5831",
      "function": "approve(address,uint256)",
      "arguments": [
        "0x000000000022D473030F116dDEE9F6B43aC78BA3",
        "115792089237316195423570985008687907853269984665640564039457584007913129639935"
      ],
      "transaction": {
        "from": "0x6007723dac9bb830f622bb4561e8017f021b9fb5",
        "to": "0xaf88d065e77c8cc2239327c5edb3a432268e5831",
        "gas": "0x28e92",
        "value": "0x0",
        "input": "0x095ea7b3000000000000000000000000000000000022d473030f116ddee9f6b43ac78ba3ffffffffffffffffffffffffffffffffffffffffffffffffffffffffffffffff",
        "nonce": "0x3",
        "chainId": "0xa4b1"
      },
      "additionalContracts": [],
      "isFixedGasLimit": false
    },
    {
      "hash": "0x86e62b33fe1f98385eb7192c4af97382ae36e77d1f2783429444f4d2f107051b",
      "transactionType": "CALL",
      "contractName": null,
      "contractAddress": "0xda2cfb0ed9e2463e5f05231ce708488a75b2b1dd",
      "function": "execute(bytes,bytes[],uint256)",
      "arguments": [
        "0x0a1a",
        "[0x000000000000000000000000af88d065e77c8cc2239327c5edb3a432268e5831000000000000000000000000000000000000000000000000000000000115ab2c0000000000000000000000000000000000000000000000000000000067d1aae40000000000000000000000000000000000000000000000000000000000000000000000000000000000000000da2cfb0ed9e2463e5f05231ce708488a75b2b1dd0000000000000000000000000000000000000000000000000000000067d1aae400000000000000000000000000000000000000000000000000000000000000e00000000000000000000000000000000000000000000000000000000000000041da8125e7b8240130e83e089396ecae15698f1a134cf476bed6e6ee42b2fb9c0b2dd7794a11be9410287ed8db04fee814d9ba378aca4ce271d32329c4df9da9a11b00000000000000000000000000000000000000000000000000000000000000, 0x000000000000000000000000000000000000000000000000000000000000000100000000000000000000000000000000000000000000000000000000000f4240000000000000000000000000000000000000000000000000000000000000006400000000000000000000000000000000000000000000000000000000000000a000000000000000000000000000000000000000000000000000000000000000010000000000000000000000000000000000000000000000000000000000000042af88d065e77c8cc2239327c5edb3a432268e583100006482af49447d8a07e3bd95bd0d56f35241523fbab10009c41b896893dfc86bb67cf57767298b9073d2c1ba2c000000000000000000000000000000000000000000000000000000000000]",
        "1741794020"
      ],
      "transaction": {
        "from": "0x6007723dac9bb830f622bb4561e8017f021b9fb5",
        "to": "0xda2cfb0ed9e2463e5f05231ce708488a75b2b1dd",
        "gas": "0x71ba2",
        "value": "0x0",
        "input": "0x3593564c000000000000000000000000000000000000000000000000000000000000006000000000000000000000000000000000000000000000000000000000000000a00000000000000000000000000000000000000000000000000000000067d1aae400000000000000000000000000000000000000000000000000000000000000020a1a0000000000000000000000000000000000000000000000000000000000000000000000000000000000000000000000000000000000000000000000000002000000000000000000000000000000000000000000000000000000000000004000000000000000000000000000000000000000000000000000000000000001c00000000000000000000000000000000000000000000000000000000000000160000000000000000000000000af88d065e77c8cc2239327c5edb3a432268e5831000000000000000000000000000000000000000000000000000000000115ab2c0000000000000000000000000000000000000000000000000000000067d1aae40000000000000000000000000000000000000000000000000000000000000000000000000000000000000000da2cfb0ed9e2463e5f05231ce708488a75b2b1dd0000000000000000000000000000000000000000000000000000000067d1aae400000000000000000000000000000000000000000000000000000000000000e00000000000000000000000000000000000000000000000000000000000000041da8125e7b8240130e83e089396ecae15698f1a134cf476bed6e6ee42b2fb9c0b2dd7794a11be9410287ed8db04fee814d9ba378aca4ce271d32329c4df9da9a11b000000000000000000000000000000000000000000000000000000000000000000000000000000000000000000000000000000000000000000000000000120000000000000000000000000000000000000000000000000000000000000000100000000000000000000000000000000000000000000000000000000000f4240000000000000000000000000000000000000000000000000000000000000006400000000000000000000000000000000000000000000000000000000000000a000000000000000000000000000000000000000000000000000000000000000010000000000000000000000000000000000000000000000000000000000000042af88d065e77c8cc2239327c5edb3a432268e583100006482af49447d8a07e3bd95bd0d56f35241523fbab10009c41b896893dfc86bb67cf57767298b9073d2c1ba2c000000000000000000000000000000000000000000000000000000000000",
        "nonce": "0x4",
        "chainId": "0xa4b1"
      },
      "additionalContracts": [],
      "isFixedGasLimit": false
    }
  ],
  "receipts": [
    {
      "status": "0x1",
      "cumulativeGasUsed": "0xccc22",
      "logs": [
        {
          "address": "0xaf88d065e77c8cc2239327c5edb3a432268e5831",
          "topics": [
            "0x8c5be1e5ebec7d5bd14f71427d1e84f3dd0314c0f7b2291e5b200ac8c7c3b925",
            "0x0000000000000000000000006007723dac9bb830f622bb4561e8017f021b9fb5",
            "0x000000000000000000000000000000000022d473030f116ddee9f6b43ac78ba3"
          ],
          "data": "0xffffffffffffffffffffffffffffffffffffffffffffffffffffffffffffffff",
          "blockHash": "0xe4c7fbb2dea8397ea5f93c376ef39e2292e5835ba3c97914fb2fdb7270a76b78",
          "blockNumber": "0x12c5da49",
          "transactionHash": "0x24fd6c1b6253ceb7aa9cc7354a310531db8868528571363509ceb1b3de91cac4",
          "transactionIndex": "0x5",
          "logIndex": "0x9",
          "removed": false
        }
      ],
      "logsBloom": "0x00000000000000000000000001000000000000000000000000000000000000000000000000000000200000000000000000000001800000000000000000200000000000000000000000004000000000000000000000002800000000000000000000000000000000000000000000000000000000000000000000000000000000000000000000000000000000000000000000000000000000000000000000000000020000000000000000000000000000000000000000000000000000000000000000002000000000000000000000000000000000000000000000000000000000000010000000000000000000000000200000000000000000000000000000000000",
      "type": "0x2",
      "transactionHash": "0x24fd6c1b6253ceb7aa9cc7354a310531db8868528571363509ceb1b3de91cac4",
      "transactionIndex": "0x5",
      "blockHash": "0xe4c7fbb2dea8397ea5f93c376ef39e2292e5835ba3c97914fb2fdb7270a76b78",
      "blockNumber": "0x12c5da49",
      "gasUsed": "0x19862",
      "effectiveGasPrice": "0xedabc0",
      "from": "0x6007723dac9bb830f622bb4561e8017f021b9fb5",
      "to": "0xaf88d065e77c8cc2239327c5edb3a432268e5831",
      "contractAddress": null,
      "gasUsedForL1": "0xbeb5",
      "l1BlockNumber": "0x1502d77"
    },
    {
      "status": "0x1",
      "cumulativeGasUsed": "0x261ba5",
      "logs": [
        {
          "address": "0x000000000022d473030f116ddee9f6b43ac78ba3",
          "topics": [
            "0xc6a377bfc4eb120024a8ac08eef205be16b817020812c73223e81d1bdb9708ec",
            "0x0000000000000000000000006007723dac9bb830f622bb4561e8017f021b9fb5",
            "0x000000000000000000000000af88d065e77c8cc2239327c5edb3a432268e5831",
            "0x000000000000000000000000da2cfb0ed9e2463e5f05231ce708488a75b2b1dd"
          ],
          "data": "0x000000000000000000000000000000000000000000000000000000000115ab2c0000000000000000000000000000000000000000000000000000000067d1aae40000000000000000000000000000000000000000000000000000000000000000",
          "blockHash": "0x39fc242d3879dc7d543052348e3fc40d9a708a8d3ac738733b39a19cba512632",
          "blockNumber": "0x12c5da50",
          "transactionHash": "0x86e62b33fe1f98385eb7192c4af97382ae36e77d1f2783429444f4d2f107051b",
          "transactionIndex": "0x6",
          "logIndex": "0xd",
          "removed": false
        },
        {
          "address": "0x82af49447d8a07e3bd95bd0d56f35241523fbab1",
          "topics": [
            "0xddf252ad1be2c89b69c2b068fc378daa952ba7f163c4a11628f55a4df523b3ef",
            "0x0000000000000000000000007fcdc35463e3770c2fb992716cd070b63540b947",
            "0x000000000000000000000000da2cfb0ed9e2463e5f05231ce708488a75b2b1dd"
          ],
          "data": "0x0000000000000000000000000000000000000000000000000001e9c2adfa0e05",
          "blockHash": "0x39fc242d3879dc7d543052348e3fc40d9a708a8d3ac738733b39a19cba512632",
          "blockNumber": "0x12c5da50",
          "transactionHash": "0x86e62b33fe1f98385eb7192c4af97382ae36e77d1f2783429444f4d2f107051b",
          "transactionIndex": "0x6",
          "logIndex": "0xe",
          "removed": false
        },
        {
          "address": "0xaf88d065e77c8cc2239327c5edb3a432268e5831",
          "topics": [
            "0xddf252ad1be2c89b69c2b068fc378daa952ba7f163c4a11628f55a4df523b3ef",
            "0x0000000000000000000000006007723dac9bb830f622bb4561e8017f021b9fb5",
            "0x0000000000000000000000007fcdc35463e3770c2fb992716cd070b63540b947"
          ],
          "data": "0x00000000000000000000000000000000000000000000000000000000000f4240",
          "blockHash": "0x39fc242d3879dc7d543052348e3fc40d9a708a8d3ac738733b39a19cba512632",
          "blockNumber": "0x12c5da50",
          "transactionHash": "0x86e62b33fe1f98385eb7192c4af97382ae36e77d1f2783429444f4d2f107051b",
          "transactionIndex": "0x6",
          "logIndex": "0xf",
          "removed": false
        },
        {
          "address": "0x7fcdc35463e3770c2fb992716cd070b63540b947",
          "topics": [
            "0x19b47279256b2a23a1665c810c8d55a1758940ee09377d4f8d26497a3577dc83",
            "0x000000000000000000000000da2cfb0ed9e2463e5f05231ce708488a75b2b1dd",
            "0x000000000000000000000000da2cfb0ed9e2463e5f05231ce708488a75b2b1dd"
          ],
          "data": "0xfffffffffffffffffffffffffffffffffffffffffffffffffffe163d5205f1fb00000000000000000000000000000000000000000000000000000000000f424000000000000000000000000000000000000000000002d2f27198e0efa10353b000000000000000000000000000000000000000000000000000d58474e88e5badfffffffffffffffffffffffffffffffffffffffffffffffffffffffffffceea200000000000000000000000000000000000000000000000000000000000000000000000000000000000000000000000000000000000000000000000000000021",
          "blockHash": "0x39fc242d3879dc7d543052348e3fc40d9a708a8d3ac738733b39a19cba512632",
          "blockNumber": "0x12c5da50",
          "transactionHash": "0x86e62b33fe1f98385eb7192c4af97382ae36e77d1f2783429444f4d2f107051b",
          "transactionIndex": "0x6",
          "logIndex": "0x10",
          "removed": false
        },
        {
          "address": "0x1b896893dfc86bb67cf57767298b9073d2c1ba2c",
          "topics": [
            "0xddf252ad1be2c89b69c2b068fc378daa952ba7f163c4a11628f55a4df523b3ef",
            "0x000000000000000000000000f5fac36c2429e1cf84d4abacdb18477ef32589c9",
            "0x0000000000000000000000006007723dac9bb830f622bb4561e8017f021b9fb5"
          ],
          "data": "0x000000000000000000000000000000000000000000000000091948c41266f0d6",
          "blockHash": "0x39fc242d3879dc7d543052348e3fc40d9a708a8d3ac738733b39a19cba512632",
          "blockNumber": "0x12c5da50",
          "transactionHash": "0x86e62b33fe1f98385eb7192c4af97382ae36e77d1f2783429444f4d2f107051b",
          "transactionIndex": "0x6",
          "logIndex": "0x11",
          "removed": false
        },
        {
          "address": "0x82af49447d8a07e3bd95bd0d56f35241523fbab1",
          "topics": [
            "0xddf252ad1be2c89b69c2b068fc378daa952ba7f163c4a11628f55a4df523b3ef",
            "0x000000000000000000000000da2cfb0ed9e2463e5f05231ce708488a75b2b1dd",
            "0x000000000000000000000000f5fac36c2429e1cf84d4abacdb18477ef32589c9"
          ],
          "data": "0x0000000000000000000000000000000000000000000000000001e9c2adfa0e05",
          "blockHash": "0x39fc242d3879dc7d543052348e3fc40d9a708a8d3ac738733b39a19cba512632",
          "blockNumber": "0x12c5da50",
          "transactionHash": "0x86e62b33fe1f98385eb7192c4af97382ae36e77d1f2783429444f4d2f107051b",
          "transactionIndex": "0x6",
          "logIndex": "0x12",
          "removed": false
        },
        {
          "address": "0xf5fac36c2429e1cf84d4abacdb18477ef32589c9",
          "topics": [
            "0x19b47279256b2a23a1665c810c8d55a1758940ee09377d4f8d26497a3577dc83",
            "0x000000000000000000000000da2cfb0ed9e2463e5f05231ce708488a75b2b1dd",
            "0x0000000000000000000000006007723dac9bb830f622bb4561e8017f021b9fb5"
          ],
          "data": "0xfffffffffffffffffffffffffffffffffffffffffffffffff6e6b73bed990f2a0000000000000000000000000000000000000000000000000001e9c2adfa0e0500000000000000000000000000000000000000000753da0813ce593d37ea839400000000000000000000000000000000000000000000009562ba579e44a4f592fffffffffffffffffffffffffffffffffffffffffffffffffffffffffffeea5d0000000000000000000000000000000000000000000000000000000000000000000000000000000000000000000000000000000000000000000000644d8db783",
          "blockHash": "0x39fc242d3879dc7d543052348e3fc40d9a708a8d3ac738733b39a19cba512632",
          "blockNumber": "0x12c5da50",
          "transactionHash": "0x86e62b33fe1f98385eb7192c4af97382ae36e77d1f2783429444f4d2f107051b",
          "transactionIndex": "0x6",
          "logIndex": "0x13",
          "removed": false
        }
      ],
      "logsBloom": "0x00010000000082000008000001100000000000000000000000000000000000000000000000000080300200000002000008014001000000000000000004080000040000010040040000000008000000000000000000002000000000000000000000000000000000000000000400001000000000000000000000000010000000000000004001000000000000000000800000000000000000000000000000000000000000000000000000000000000000000400000000000000004000000400000000002002000000000000000000000000000000000000000000400000008000000002000200000000000000000000200000000000002000000000000000000420",
      "type": "0x2",
      "transactionHash": "0x86e62b33fe1f98385eb7192c4af97382ae36e77d1f2783429444f4d2f107051b",
      "transactionIndex": "0x6",
      "blockHash": "0x39fc242d3879dc7d543052348e3fc40d9a708a8d3ac738733b39a19cba512632",
      "blockNumber": "0x12c5da50",
      "gasUsed": "0x6be1e",
      "effectiveGasPrice": "0xf2bca0",
      "from": "0x6007723dac9bb830f622bb4561e8017f021b9fb5",
      "to": "0xda2cfb0ed9e2463e5f05231ce708488a75b2b1dd",
      "contractAddress": null,
      "gasUsedForL1": "0x1e1c6",
      "l1BlockNumber": "0x1502d77"
    }
  ],
  "libraries": [],
  "pending": [],
  "returns": {},
  "timestamp": 1741793949,
  "chain": 42161,
  "commit": "713895e"
}