{
  "transactions": [
    {
      "hash": "0x7bad738c19fd8dd7fa5817505464c48c148811fd060116f398a14e2a7739eaf5",
      "transactionType": "CALL",
      "contractName": null,
      "contractAddress": "0x0b02e9d7da1620edb2d1e9a984e0c187460c85ed",
      "function": "execute(bytes,bytes[],uint256)",
      "arguments": [
        "0x0a00",
        "[0x000000000000000000000000d01c252d92554ec19c50da53348f85117c23c4310000000000000000000000000000000000000000000000008ac7230489e800000000000000000000000000000000000000000000000000000000000067f7429b00000000000000000000000000000000000000000000000000000000000000000000000000000000000000000b02e9d7da1620edb2d1e9a984e0c187460c85ed0000000000000000000000000000000000000000000000000000000067f7429b00000000000000000000000000000000000000000000000000000000000000e000000000000000000000000000000000000000000000000000000000000000415ea8196a54e9020ec0bb340cfdafbd2e0bc2728ad9a4ca1f8fdd7d402f9aa3d96ed02c3778164865e9335406fff356ea031011f9a02e15fdb4ebafdbceb175541b00000000000000000000000000000000000000000000000000000000000000, 0x00000000000000000000000000000000000000000000000000000000000000010000000000000000000000000000000000000000000000008ac7230489e80000000000000000000000000000000000000000000000000000000000000000006400000000000000000000000000000000000000000000000000000000000000a00000000000000000000000000000000000000000000000000000000000000001000000000000000000000000000000000000000000000000000000000000002bd01c252d92554ec19c50da53348f85117c23c431000064c622bc0ce453a3321b4a097d762b0c4eea186d07000000000000000000000000000000000000000000]",
        "1744257691"
      ],
      "transaction": {
        "from": "0x6007723dac9bb830f622bb4561e8017f021b9fb5",
        "to": "0x0b02e9d7da1620edb2d1e9a984e0c187460c85ed",
        "gas": "0x3dc7b",
        "value": "0x0",
        "input": "0x3593564c000000000000000000000000000000000000000000000000000000000000006000000000000000000000000000000000000000000000000000000000000000a00000000000000000000000000000000000000000000000000000000067f7429b00000000000000000000000000000000000000000000000000000000000000020a000000000000000000000000000000000000000000000000000000000000000000000000000000000000000000000000000000000000000000000000000002000000000000000000000000000000000000000000000000000000000000004000000000000000000000000000000000000000000000000000000000000001c00000000000000000000000000000000000000000000000000000000000000160000000000000000000000000d01c252d92554ec19c50da53348f85117c23c4310000000000000000000000000000000000000000000000008ac7230489e800000000000000000000000000000000000000000000000000000000000067f7429b00000000000000000000000000000000000000000000000000000000000000000000000000000000000000000b02e9d7da1620edb2d1e9a984e0c187460c85ed0000000000000000000000000000000000000000000000000000000067f7429b00000000000000000000000000000000000000000000000000000000000000e000000000000000000000000000000000000000000000000000000000000000415ea8196a54e9020ec0bb340cfdafbd2e0bc2728ad9a4ca1f8fdd7d402f9aa3d96ed02c3778164865e9335406fff356ea031011f9a02e15fdb4ebafdbceb175541b00000000000000000000000000000000000000000000000000000000000000000000000000000000000000000000000000000000000000000000000000010000000000000000000000000000000000000000000000000000000000000000010000000000000000000000000000000000000000000000008ac7230489e80000000000000000000000000000000000000000000000000000000000000000006400000000000000000000000000000000000000000000000000000000000000a00000000000000000000000000000000000000000000000000000000000000001000000000000000000000000000000000000000000000000000000000000002bd01c252d92554ec19c50da53348f85117c23c431000064c622bc0ce453a3321b4a097d762b0c4eea186d07000000000000000000000000000000000000000000",
        "nonce": "0xa",
        "chainId": "0xd2e0f74"
      },
      "additionalContracts": [],
      "isFixedGasLimit": false
    }
  ],
  "receipts": [
    {
      "status": "0x1",
      "cumulativeGasUsed": "0x2a3e3",
      "logs": [
        {
          "address": "0x5d47029371233b4925824fa0eef8f3b4195bbac4",
          "topics": [
            "0xc6a377bfc4eb120024a8ac08eef205be16b817020812c73223e81d1bdb9708ec",
            "0x0000000000000000000000006007723dac9bb830f622bb4561e8017f021b9fb5",
            "0x000000000000000000000000d01c252d92554ec19c50da53348f85117c23c431",
            "0x0000000000000000000000000b02e9d7da1620edb2d1e9a984e0c187460c85ed"
          ],
          "data": "0x0000000000000000000000000000000000000000000000008ac7230489e800000000000000000000000000000000000000000000000000000000000067f7429b0000000000000000000000000000000000000000000000000000000000000000",
          "blockHash": "0x514ef66ca6d7bfa8a6dd287d1cfbe0537f1ab80cb6f4df72a10806b5364db08f",
          "blockNumber": "0x2a9",
          "transactionHash": "0x7bad738c19fd8dd7fa5817505464c48c148811fd060116f398a14e2a7739eaf5",
          "transactionIndex": "0x0",
          "logIndex": "0x0",
          "removed": false
        },
        {
          "address": "0xc622bc0ce453a3321b4a097d762b0c4eea186d07",
          "topics": [
            "0xddf252ad1be2c89b69c2b068fc378daa952ba7f163c4a11628f55a4df523b3ef",
            "0x00000000000000000000000062b451c353a7310b0c31a605a23756dc8de40e31",
            "0x0000000000000000000000006007723dac9bb830f622bb4561e8017f021b9fb5"
          ],
          "data": "0x000000000000000000000000000000000000000000000000880b1c8b2bb891d4",
          "blockHash": "0x514ef66ca6d7bfa8a6dd287d1cfbe0537f1ab80cb6f4df72a10806b5364db08f",
          "blockNumber": "0x2a9",
          "transactionHash": "0x7bad738c19fd8dd7fa5817505464c48c148811fd060116f398a14e2a7739eaf5",
          "transactionIndex": "0x0",
          "logIndex": "0x1",
          "removed": false
        },
        {
          "address": "0xd01c252d92554ec19c50da53348f85117c23c431",
          "topics": [
            "0xddf252ad1be2c89b69c2b068fc378daa952ba7f163c4a11628f55a4df523b3ef",
            "0x0000000000000000000000006007723dac9bb830f622bb4561e8017f021b9fb5",
            "0x00000000000000000000000062b451c353a7310b0c31a605a23756dc8de40e31"
          ],
          "data": "0x0000000000000000000000000000000000000000000000008ac7230489e80000",
          "blockHash": "0x514ef66ca6d7bfa8a6dd287d1cfbe0537f1ab80cb6f4df72a10806b5364db08f",
          "blockNumber": "0x2a9",
          "transactionHash": "0x7bad738c19fd8dd7fa5817505464c48c148811fd060116f398a14e2a7739eaf5",
          "transactionIndex": "0x0",
          "logIndex": "0x2",
          "removed": false
        },
        {
          "address": "0x62b451c353a7310b0c31a605a23756dc8de40e31",
          "topics": [
            "0xc42079f94a6350d7e6235f29174924f928cc2ac818eb64fed8004e115fbcca67",
            "0x0000000000000000000000000b02e9d7da1620edb2d1e9a984e0c187460c85ed",
            "0x0000000000000000000000006007723dac9bb830f622bb4561e8017f021b9fb5"
          ],
          "data": "0xffffffffffffffffffffffffffffffffffffffffffffffff77f4e374d4476e2c0000000000000000000000000000000000000000000000008ac7230489e800000000000000000000000000000000000000000001051e96c3fc43b2dd238640ab00000000000000000000000000000000000000000000001b1ae4d6e2ef50001b000000000000000000000000000000000000000000000000000000000000018c",
          "blockHash": "0x514ef66ca6d7bfa8a6dd287d1cfbe0537f1ab80cb6f4df72a10806b5364db08f",
          "blockNumber": "0x2a9",
          "transactionHash": "0x7bad738c19fd8dd7fa5817505464c48c148811fd060116f398a14e2a7739eaf5",
          "transactionIndex": "0x0",
          "logIndex": "0x3",
          "removed": false
        }
      ],
      "logsBloom": "0x00000000000000000000000001080000000000000000000000000000000000000020000000000000200000000000020000010000000020000000000001000000020000000000000800000008000000000000000000002200200000000000001000001008000000000000000000020000000000000000000000002010000800000000004000000000000000000000000000000000000000000400600008000000000000000000000000000000000000000400000000000000000000000000000000000002000000000000000000000000000080000000000000000000000000000000000000000000000000000000000000002000000000001000000000000000",
      "type": "0x2",
      "transactionHash": "0x7bad738c19fd8dd7fa5817505464c48c148811fd060116f398a14e2a7739eaf5",
      "transactionIndex": "0x0",
      "blockHash": "0x514ef66ca6d7bfa8a6dd287d1cfbe0537f1ab80cb6f4df72a10806b5364db08f",
      "blockNumber": "0x2a9",
      "gasUsed": "0x2a3e3",
      "effectiveGasPrice": "0x25b2d123",
      "from": "0x6007723dac9bb830f622bb4561e8017f021b9fb5",
      "to": "0x0b02e9d7da1620edb2d1e9a984e0c187460c85ed",
      "contractAddress": null,
      "l1Fee": "0x0"
    }
  ],
  "libraries": [],
  "pending": [],
  "returns": {},
  "timestamp": 1744257747,
  "chain": 221122420,
  "commit": "4e9d11b"
}