{
  "transactions": [
    {
      "hash": "0x682053fcab81a7cf4dcdf70720b61a60221b9f4bd2977c47d2b7f5a0e5feafb8",
      "transactionType": "CALL",
      "contractName": null,
      "contractAddress": "0x0b02e9d7da1620edb2d1e9a984e0c187460c85ed",
      "function": "execute(bytes,bytes[],uint256)",
      "arguments": [
        "0x0a00",
        "[0x000000000000000000000000d01c252d92554ec19c50da53348f85117c23c4310000000000000000000000000000000000000000000000008ac7230489e80000000000000000000000000000000000000000000000000000000000000000000000000000000000000000000000000000000000000000000000000000000000020000000000000000000000000b02e9d7da1620edb2d1e9a984e0c187460c85ed0000000000000000000000000000000000000000000000000000000067f748b200000000000000000000000000000000000000000000000000000000000000e00000000000000000000000000000000000000000000000000000000000000041c1a5fbb64f65470d0f0561ad2159f115ea09027f19c0e4ea70ad8d41464f48330a167d811c4e069c21c82d87e661e6633abee3f7304eb252f169a4e9bd2d3e9d1b00000000000000000000000000000000000000000000000000000000000000, 0x00000000000000000000000000000000000000000000000000000000000000010000000000000000000000000000000000000000000000008ac7230489e80000000000000000000000000000000000000000000000000000000000000000006400000000000000000000000000000000000000000000000000000000000000a00000000000000000000000000000000000000000000000000000000000000001000000000000000000000000000000000000000000000000000000000000002bd01c252d92554ec19c50da53348f85117c23c431000064c622bc0ce453a3321b4a097d762b0c4eea186d07000000000000000000000000000000000000000000]",
        "1744259250"
      ],
      "transaction": {
        "from": "0x6007723dac9bb830f622bb4561e8017f021b9fb5",
        "to": "0x0b02e9d7da1620edb2d1e9a984e0c187460c85ed",
        "gas": "0x2d829",
        "value": "0x0",
        "input": "0x3593564c000000000000000000000000000000000000000000000000000000000000006000000000000000000000000000000000000000000000000000000000000000a00000000000000000000000000000000000000000000000000000000067f748b200000000000000000000000000000000000000000000000000000000000000020a000000000000000000000000000000000000000000000000000000000000000000000000000000000000000000000000000000000000000000000000000002000000000000000000000000000000000000000000000000000000000000004000000000000000000000000000000000000000000000000000000000000001c00000000000000000000000000000000000000000000000000000000000000160000000000000000000000000d01c252d92554ec19c50da53348f85117c23c4310000000000000000000000000000000000000000000000008ac7230489e80000000000000000000000000000000000000000000000000000000000000000000000000000000000000000000000000000000000000000000000000000000000020000000000000000000000000b02e9d7da1620edb2d1e9a984e0c187460c85ed0000000000000000000000000000000000000000000000000000000067f748b200000000000000000000000000000000000000000000000000000000000000e00000000000000000000000000000000000000000000000000000000000000041c1a5fbb64f65470d0f0561ad2159f115ea09027f19c0e4ea70ad8d41464f48330a167d811c4e069c21c82d87e661e6633abee3f7304eb252f169a4e9bd2d3e9d1b00000000000000000000000000000000000000000000000000000000000000000000000000000000000000000000000000000000000000000000000000010000000000000000000000000000000000000000000000000000000000000000010000000000000000000000000000000000000000000000008ac7230489e80000000000000000000000000000000000000000000000000000000000000000006400000000000000000000000000000000000000000000000000000000000000a00000000000000000000000000000000000000000000000000000000000000001000000000000000000000000000000000000000000000000000000000000002bd01c252d92554ec19c50da53348f85117c23c431000064c622bc0ce453a3321b4a097d762b0c4eea186d07000000000000000000000000000000000000000000",
        "nonce": "0xe",
        "chainId": "0xd2e0f74"
      },
      "additionalContracts": [],
      "isFixedGasLimit": false
    }
  ],
  "receipts": [
    {
      "status": "0x1",
      "cumulativeGasUsed": "0x21e52",
      "logs": [
        {
          "address": "0x5d47029371233b4925824fa0eef8f3b4195bbac4",
          "topics": [
            "0xc6a377bfc4eb120024a8ac08eef205be16b817020812c73223e81d1bdb9708ec",
            "0x0000000000000000000000006007723dac9bb830f622bb4561e8017f021b9fb5",
            "0x000000000000000000000000d01c252d92554ec19c50da53348f85117c23c431",
            "0x0000000000000000000000000b02e9d7da1620edb2d1e9a984e0c187460c85ed"
          ],
          "data": "0x0000000000000000000000000000000000000000000000008ac7230489e8000000000000000000000000000000000000000000000000000000000000000000000000000000000000000000000000000000000000000000000000000000000002",
          "blockHash": "0xc67de2975e1a224a944a90c64172562dbca252e3af3790ffb4fcefba21816ae5",
          "blockNumber": "0x2ad",
          "transactionHash": "0x682053fcab81a7cf4dcdf70720b61a60221b9f4bd2977c47d2b7f5a0e5feafb8",
          "transactionIndex": "0x0",
          "logIndex": "0x0",
          "removed": false
        },
        {
          "address": "0xc622bc0ce453a3321b4a097d762b0c4eea186d07",
          "topics": [
            "0xddf252ad1be2c89b69c2b068fc378daa952ba7f163c4a11628f55a4df523b3ef",
            "0x00000000000000000000000062b451c353a7310b0c31a605a23756dc8de40e31",
            "0x0000000000000000000000006007723dac9bb830f622bb4561e8017f021b9fb5"
          ],
          "data": "0x0000000000000000000000000000000000000000000000007de02ac563604a96",
          "blockHash": "0xc67de2975e1a224a944a90c64172562dbca252e3af3790ffb4fcefba21816ae5",
          "blockNumber": "0x2ad",
          "transactionHash": "0x682053fcab81a7cf4dcdf70720b61a60221b9f4bd2977c47d2b7f5a0e5feafb8",
          "transactionIndex": "0x0",
          "logIndex": "0x1",
          "removed": false
        },
        {
          "address": "0xd01c252d92554ec19c50da53348f85117c23c431",
          "topics": [
            "0xddf252ad1be2c89b69c2b068fc378daa952ba7f163c4a11628f55a4df523b3ef",
            "0x0000000000000000000000006007723dac9bb830f622bb4561e8017f021b9fb5",
            "0x00000000000000000000000062b451c353a7310b0c31a605a23756dc8de40e31"
          ],
          "data": "0x0000000000000000000000000000000000000000000000008ac7230489e80000",
          "blockHash": "0xc67de2975e1a224a944a90c64172562dbca252e3af3790ffb4fcefba21816ae5",
          "blockNumber": "0x2ad",
          "transactionHash": "0x682053fcab81a7cf4dcdf70720b61a60221b9f4bd2977c47d2b7f5a0e5feafb8",
          "transactionIndex": "0x0",
          "logIndex": "0x2",
          "removed": false
        },
        {
          "address": "0x62b451c353a7310b0c31a605a23756dc8de40e31",
          "topics": [
            "0xc42079f94a6350d7e6235f29174924f928cc2ac818eb64fed8004e115fbcca67",
            "0x0000000000000000000000000b02e9d7da1620edb2d1e9a984e0c187460c85ed",
            "0x0000000000000000000000006007723dac9bb830f622bb4561e8017f021b9fb5"
          ],
          "data": "0xffffffffffffffffffffffffffffffffffffffffffffffff821fd53a9c9fb56a0000000000000000000000000000000000000000000000008ac7230489e8000000000000000000000000000000000000000000010f5bc44bf4cb189755af43e900000000000000000000000000000000000000000000001b1ae4d6e2ef50001b000000000000000000000000000000000000000000000000000000000000048d",
          "blockHash": "0xc67de2975e1a224a944a90c64172562dbca252e3af3790ffb4fcefba21816ae5",
          "blockNumber": "0x2ad",
          "transactionHash": "0x682053fcab81a7cf4dcdf70720b61a60221b9f4bd2977c47d2b7f5a0e5feafb8",
          "transactionIndex": "0x0",
          "logIndex": "0x3",
          "removed": false
        }
      ],
      "logsBloom": "0x00000000000000000000000001080000000000000000000000000000000000000020000000000000200000000000020000010000000020000000000001000000020000000000000800000008000000000000000000002200200000000000001000001008000000000000000000020000000000000000000000002010000800000000004000000000000000000000000000000000000000000400600008000000000000000000000000000000000000000400000000000000000000000000000000000002000000000000000000000000000080000000000000000000000000000000000000000000000000000000000000002000000000001000000000000000",
      "type": "0x2",
      "transactionHash": "0x682053fcab81a7cf4dcdf70720b61a60221b9f4bd2977c47d2b7f5a0e5feafb8",
      "transactionIndex": "0x0",
      "blockHash": "0xc67de2975e1a224a944a90c64172562dbca252e3af3790ffb4fcefba21816ae5",
      "blockNumber": "0x2ad",
      "gasUsed": "0x21e52",
      "effectiveGasPrice": "0x27e4dedd",
      "from": "0x6007723dac9bb830f622bb4561e8017f021b9fb5",
      "to": "0x0b02e9d7da1620edb2d1e9a984e0c187460c85ed",
      "contractAddress": null,
      "l1Fee": "0x0"
    }
  ],
  "libraries": [],
  "pending": [],
  "returns": {},
  "timestamp": 1744258851,
  "chain": 221122420,
  "commit": "4e9d11b"
}