{
  "transactions": [
    {
      "hash": "0x7f61d2cff0a837ac47503238bea7487cb552be7c61ef218f7039e83adf4f8dbe",
      "transactionType": "CALL",
      "contractName": null,
      "contractAddress": "0x0b02e9d7da1620edb2d1e9a984e0c187460c85ed",
      "function": "execute(bytes,bytes[],uint256)",
      "arguments": [
        "0x0a00",
        "[0x000000000000000000000000d01c252d92554ec19c50da53348f85117c23c4310000000000000000000000000000000000000000000000008ac7230489e80000000000000000000000000000000000000000000000000000000000000000000000000000000000000000000000000000000000000000000000000000000000010000000000000000000000000b02e9d7da1620edb2d1e9a984e0c187460c85ed0000000000000000000000000000000000000000000000000000000067f7429e00000000000000000000000000000000000000000000000000000000000000e00000000000000000000000000000000000000000000000000000000000000041b088af90033a6f528910b9639216411f1e8bebe00f24ff0dabd62107bc0709587529d596f1b2e64ed4b3edecf9fefe8daa318a03a839917f5630d6910f2afb011b00000000000000000000000000000000000000000000000000000000000000, 0x00000000000000000000000000000000000000000000000000000000000000010000000000000000000000000000000000000000000000008ac7230489e80000000000000000000000000000000000000000000000000000000000000000006400000000000000000000000000000000000000000000000000000000000000a00000000000000000000000000000000000000000000000000000000000000001000000000000000000000000000000000000000000000000000000000000002bd01c252d92554ec19c50da53348f85117c23c431000064c622bc0ce453a3321b4a097d762b0c4eea186d07000000000000000000000000000000000000000000]",
        "1744257694"
      ],
      "transaction": {
        "from": "0x6007723dac9bb830f622bb4561e8017f021b9fb5",
        "to": "0x0b02e9d7da1620edb2d1e9a984e0c187460c85ed",
        "gas": "0x2fef8",
        "value": "0x0",
        "input": "0x3593564c000000000000000000000000000000000000000000000000000000000000006000000000000000000000000000000000000000000000000000000000000000a00000000000000000000000000000000000000000000000000000000067f7429e00000000000000000000000000000000000000000000000000000000000000020a000000000000000000000000000000000000000000000000000000000000000000000000000000000000000000000000000000000000000000000000000002000000000000000000000000000000000000000000000000000000000000004000000000000000000000000000000000000000000000000000000000000001c00000000000000000000000000000000000000000000000000000000000000160000000000000000000000000d01c252d92554ec19c50da53348f85117c23c4310000000000000000000000000000000000000000000000008ac7230489e80000000000000000000000000000000000000000000000000000000000000000000000000000000000000000000000000000000000000000000000000000000000010000000000000000000000000b02e9d7da1620edb2d1e9a984e0c187460c85ed0000000000000000000000000000000000000000000000000000000067f7429e00000000000000000000000000000000000000000000000000000000000000e00000000000000000000000000000000000000000000000000000000000000041b088af90033a6f528910b9639216411f1e8bebe00f24ff0dabd62107bc0709587529d596f1b2e64ed4b3edecf9fefe8daa318a03a839917f5630d6910f2afb011b00000000000000000000000000000000000000000000000000000000000000000000000000000000000000000000000000000000000000000000000000010000000000000000000000000000000000000000000000000000000000000000010000000000000000000000000000000000000000000000008ac7230489e80000000000000000000000000000000000000000000000000000000000000000006400000000000000000000000000000000000000000000000000000000000000a00000000000000000000000000000000000000000000000000000000000000001000000000000000000000000000000000000000000000000000000000000002bd01c252d92554ec19c50da53348f85117c23c431000064c622bc0ce453a3321b4a097d762b0c4eea186d07000000000000000000000000000000000000000000",
        "nonce": "0xb",
        "chainId": "0xd2e0f74"
      },
      "additionalContracts": [],
      "isFixedGasLimit": false
    }
  ],
  "receipts": [],
  "libraries": [],
  "pending": [],
  "returns": {},
  "timestamp": 1744258165,
  "chain": 221122420,
  "commit": "4e9d11b"
}