{
  "transactions": [
    {
      "hash": "0x2e62cbb64a77a9bd2bf2b8b9766ba96514081091ac65fdf4826a4e4f731fad10",
      "transactionType": "CALL",
      "contractName": null,
      "contractAddress": "0xd01c252d92554ec19c50da53348f85117c23c431",
      "function": "approve(address,uint256)",
      "arguments": [
        "0x5d47029371233B4925824fA0EeF8F3B4195bbac4",
        "115792089237316195423570985008687907853269984665640564039457584007913129639935"
      ],
      "transaction": {
        "from": "0x6007723dac9bb830f622bb4561e8017f021b9fb5",
        "to": "0xd01c252d92554ec19c50da53348f85117c23c431",
        "gas": "0x10ab1",
        "value": "0x0",
        "input": "0x095ea7b30000000000000000000000005d47029371233b4925824fa0eef8f3b4195bbac4ffffffffffffffffffffffffffffffffffffffffffffffffffffffffffffffff",
        "nonce": "0x8",
        "chainId": "0xd2e0f74"
      },
      "additionalContracts": [],
      "isFixedGasLimit": false
    },
    {
      "hash": "0x112216f626e98994d79cd3b13e72490bcf66cfb42d089f2879a278dae08acd8d",
      "transactionType": "CALL",
      "contractName": null,
      "contractAddress": "0x0b02e9d7da1620edb2d1e9a984e0c187460c85ed",
      "function": "execute(bytes,bytes[],uint256)",
      "arguments": [
        "0x0a00",
        "[0x000000000000000000000000d01c252d92554ec19c50da53348f85117c23c4310000000000000000000000000000000000000000000000008ac7230489e80000000000000000000000000000000000000000000000000000000000000000000000000000000000000000000000000000000000000000000000000000000000000000000000000000000000000b02e9d7da1620edb2d1e9a984e0c187460c85ed0000000000000000000000000000000000000000000000000000000067f73b5800000000000000000000000000000000000000000000000000000000000000e00000000000000000000000000000000000000000000000000000000000000041c18b77c62969d622c1f6a26ee0a75fa2074e8efa48e3dd6fd1dccc2e3ce1942f442977457612de30139412729c3e86312c3d2a1ba814bc5a427b425f7443998e1b00000000000000000000000000000000000000000000000000000000000000, 0x00000000000000000000000000000000000000000000000000000000000000010000000000000000000000000000000000000000000000008ac7230489e80000000000000000000000000000000000000000000000000000000000000000006400000000000000000000000000000000000000000000000000000000000000a00000000000000000000000000000000000000000000000000000000000000001000000000000000000000000000000000000000000000000000000000000002bd01c252d92554ec19c50da53348f85117c23c431000064c622bc0ce453a3321b4a097d762b0c4eea186d07000000000000000000000000000000000000000000]",
        "1744255832"
      ],
      "transaction": {
        "from": "0x6007723dac9bb830f622bb4561e8017f021b9fb5",
        "to": "0x0b02e9d7da1620edb2d1e9a984e0c187460c85ed",
        "gas": "0x39058",
        "value": "0x0",
        "input": "0x3593564c000000000000000000000000000000000000000000000000000000000000006000000000000000000000000000000000000000000000000000000000000000a00000000000000000000000000000000000000000000000000000000067f73b5800000000000000000000000000000000000000000000000000000000000000020a000000000000000000000000000000000000000000000000000000000000000000000000000000000000000000000000000000000000000000000000000002000000000000000000000000000000000000000000000000000000000000004000000000000000000000000000000000000000000000000000000000000001c00000000000000000000000000000000000000000000000000000000000000160000000000000000000000000d01c252d92554ec19c50da53348f85117c23c4310000000000000000000000000000000000000000000000008ac7230489e80000000000000000000000000000000000000000000000000000000000000000000000000000000000000000000000000000000000000000000000000000000000000000000000000000000000000b02e9d7da1620edb2d1e9a984e0c187460c85ed0000000000000000000000000000000000000000000000000000000067f73b5800000000000000000000000000000000000000000000000000000000000000e00000000000000000000000000000000000000000000000000000000000000041c18b77c62969d622c1f6a26ee0a75fa2074e8efa48e3dd6fd1dccc2e3ce1942f442977457612de30139412729c3e86312c3d2a1ba814bc5a427b425f7443998e1b00000000000000000000000000000000000000000000000000000000000000000000000000000000000000000000000000000000000000000000000000010000000000000000000000000000000000000000000000000000000000000000010000000000000000000000000000000000000000000000008ac7230489e80000000000000000000000000000000000000000000000000000000000000000006400000000000000000000000000000000000000000000000000000000000000a00000000000000000000000000000000000000000000000000000000000000001000000000000000000000000000000000000000000000000000000000000002bd01c252d92554ec19c50da53348f85117c23c431000064c622bc0ce453a3321b4a097d762b0c4eea186d07000000000000000000000000000000000000000000",
        "nonce": "0x9",
        "chainId": "0xd2e0f74"
      },
      "additionalContracts": [],
      "isFixedGasLimit": false
    }
  ],
  "receipts": [
    {
      "status": "0x1",
      "cumulativeGasUsed": "0xb65b",
      "logs": [
        {
          "address": "0xd01c252d92554ec19c50da53348f85117c23c431",
          "topics": [
            "0x8c5be1e5ebec7d5bd14f71427d1e84f3dd0314c0f7b2291e5b200ac8c7c3b925",
            "0x0000000000000000000000006007723dac9bb830f622bb4561e8017f021b9fb5",
            "0x0000000000000000000000005d47029371233b4925824fa0eef8f3b4195bbac4"
          ],
          "data": "0xffffffffffffffffffffffffffffffffffffffffffffffffffffffffffffffff",
          "blockHash": "0x2d50cf0c7ff7c3d7b417a2da580531737e649086ab5a6b4f4c72c9c752d65f65",
          "blockNumber": "0x2a7",
          "transactionHash": "0x2e62cbb64a77a9bd2bf2b8b9766ba96514081091ac65fdf4826a4e4f731fad10",
          "transactionIndex": "0x0",
          "logIndex": "0x0",
          "removed": false
        }
      ],
      "logsBloom": "0x00000000000000000000000001000000000000000002000000000000000000000000000000000000200000000000000000000000000000000000000000200000000000000000000000000000000000000000000000002000000000000000001000000008000000000000000000000000000000000000000000000000000000000000000000000000000000000000000000000000000000000400000000000000020000000000000000000000000000000000000000000000000000000000000000002000000080000000000000000000000000000000000000000000000000000010000000000000000000000000000000000000000000000000000000000000",
      "type": "0x2",
      "transactionHash": "0x2e62cbb64a77a9bd2bf2b8b9766ba96514081091ac65fdf4826a4e4f731fad10",
      "transactionIndex": "0x0",
      "blockHash": "0x2d50cf0c7ff7c3d7b417a2da580531737e649086ab5a6b4f4c72c9c752d65f65",
      "blockNumber": "0x2a7",
      "gasUsed": "0xb65b",
      "effectiveGasPrice": "0x48d3acc4",
      "from": "0x6007723dac9bb830f622bb4561e8017f021b9fb5",
      "to": "0xd01c252d92554ec19c50da53348f85117c23c431",
      "contractAddress": null,
      "l1Fee": "0x0"
    }
  ],
  "libraries": [],
  "pending": [],
  "returns": {},
  "timestamp": 1744257596,
  "chain": 221122420,
  "commit": "4e9d11b"
}