{
  "transactions": [
    {
      "hash": "0x3d97018098f358ec027ba91dc58c210163e4d4a4969a7dc9de9ffe50bb0ef33a",
      "transactionType": "CALL",
      "contractName": null,
      "contractAddress": "0x0b02e9d7da1620edb2d1e9a984e0c187460c85ed",
      "function": "execute(bytes,bytes[],uint256)",
      "arguments": [
        "0x0a00",
        "[0x000000000000000000000000d01c252d92554ec19c50da53348f85117c23c4310000000000000000000000000000000000000000000000008ac7230489e800000000000000000000000000000000000000000000000000000000000067f7433600000000000000000000000000000000000000000000000000000000000000010000000000000000000000000b02e9d7da1620edb2d1e9a984e0c187460c85ed0000000000000000000000000000000000000000000000000000000067f7433600000000000000000000000000000000000000000000000000000000000000e00000000000000000000000000000000000000000000000000000000000000041e4f059bc9826fb4842b92e20a8194c3645053f4cd686c35d04eecd85a77b6027034078a03ce94f97891789762470e17d7919de14dad9546485ab1ca591ea54af1b00000000000000000000000000000000000000000000000000000000000000, 0x00000000000000000000000000000000000000000000000000000000000000010000000000000000000000000000000000000000000000008ac7230489e80000000000000000000000000000000000000000000000000000000000000000006400000000000000000000000000000000000000000000000000000000000000a00000000000000000000000000000000000000000000000000000000000000001000000000000000000000000000000000000000000000000000000000000002bd01c252d92554ec19c50da53348f85117c23c431000064c622bc0ce453a3321b4a097d762b0c4eea186d07000000000000000000000000000000000000000000]",
        "1744257846"
      ],
      "transaction": {
        "from": "0x6007723dac9bb830f622bb4561e8017f021b9fb5",
        "to": "0x0b02e9d7da1620edb2d1e9a984e0c187460c85ed",
        "gas": "0x3428d",
        "value": "0x0",
        "input": "0x3593564c000000000000000000000000000000000000000000000000000000000000006000000000000000000000000000000000000000000000000000000000000000a00000000000000000000000000000000000000000000000000000000067f7433600000000000000000000000000000000000000000000000000000000000000020a000000000000000000000000000000000000000000000000000000000000000000000000000000000000000000000000000000000000000000000000000002000000000000000000000000000000000000000000000000000000000000004000000000000000000000000000000000000000000000000000000000000001c00000000000000000000000000000000000000000000000000000000000000160000000000000000000000000d01c252d92554ec19c50da53348f85117c23c4310000000000000000000000000000000000000000000000008ac7230489e800000000000000000000000000000000000000000000000000000000000067f7433600000000000000000000000000000000000000000000000000000000000000010000000000000000000000000b02e9d7da1620edb2d1e9a984e0c187460c85ed0000000000000000000000000000000000000000000000000000000067f7433600000000000000000000000000000000000000000000000000000000000000e00000000000000000000000000000000000000000000000000000000000000041e4f059bc9826fb4842b92e20a8194c3645053f4cd686c35d04eecd85a77b6027034078a03ce94f97891789762470e17d7919de14dad9546485ab1ca591ea54af1b00000000000000000000000000000000000000000000000000000000000000000000000000000000000000000000000000000000000000000000000000010000000000000000000000000000000000000000000000000000000000000000010000000000000000000000000000000000000000000000008ac7230489e80000000000000000000000000000000000000000000000000000000000000000006400000000000000000000000000000000000000000000000000000000000000a00000000000000000000000000000000000000000000000000000000000000001000000000000000000000000000000000000000000000000000000000000002bd01c252d92554ec19c50da53348f85117c23c431000064c622bc0ce453a3321b4a097d762b0c4eea186d07000000000000000000000000000000000000000000",
        "nonce": "0xc",
        "chainId": "0xd2e0f74"
      },
      "additionalContracts": [],
      "isFixedGasLimit": false
    }
  ],
  "receipts": [],
  "libraries": [],
  "pending": [],
  "returns": {},
  "timestamp": 1744258251,
  "chain": 221122420,
  "commit": "4e9d11b"
}