{
  "transactions": [
    {
      "hash": null,
      "transactionType": "CALL",
      "contractName": null,
      "contractAddress": "0xffddb9e3ad7c244e1c5553041df6bf6d1efa3506",
      "function": "execute(bytes,bytes[],uint256)",
      "arguments": [
        "0x0b00",
        "[0x00000000000000000000000000000000000000000000000000000000000000028000000000000000000000000000000000000000000000000000000000000000, 0x000000000000000000000000000000000000000000000000000000000000000100000000000000000000000000000000000000000000000000038d7ea4c68000000000000000000000000000000000000000000000000000000000000000006400000000000000000000000000000000000000000000000000000000000000a00000000000000000000000000000000000000000000000000000000000000000000000000000000000000000000000000000000000000000000000000000002b5aea5775959fbc2557cc8789bc1bf90a239d9a910001f4493257fd37edb34451f62edf8d2a0c418852ba4c000000000000000000000000000000000000000000]",
        "1741873162"
      ],
      "transaction": {
        "from": "0x6007723dac9bb830f622bb4561e8017f021b9fb5",
        "to": "0xffddb9e3ad7c244e1c5553041df6bf6d1efa3506",
        "gas": "0x83cc",
        "value": "0x38d7ea4c68000",
        "input": "0x3593564c000000000000000000000000000000000000000000000000000000000000006000000000000000000000000000000000000000000000000000000000000000a00000000000000000000000000000000000000000000000000000000067d2e00a00000000000000000000000000000000000000000000000000000000000000020b000000000000000000000000000000000000000000000000000000000000000000000000000000000000000000000000000000000000000000000000000002000000000000000000000000000000000000000000000000000000000000004000000000000000000000000000000000000000000000000000000000000000a00000000000000000000000000000000000000000000000000000000000000040000000000000000000000000000000000000000000000000000000000000000280000000000000000000000000000000000000000000000000000000000000000000000000000000000000000000000000000000000000000000000000000100000000000000000000000000000000000000000000000000000000000000000100000000000000000000000000000000000000000000000000038d7ea4c68000000000000000000000000000000000000000000000000000000000000000006400000000000000000000000000000000000000000000000000000000000000a00000000000000000000000000000000000000000000000000000000000000000000000000000000000000000000000000000000000000000000000000000002b5aea5775959fbc2557cc8789bc1bf90a239d9a910001f4493257fd37edb34451f62edf8d2a0c418852ba4c000000000000000000000000000000000000000000",
        "nonce": "0x2",
        "chainId": "0x144"
      },
      "additionalContracts": [],
      "isFixedGasLimit": false
    }
  ],
  "receipts": [],
  "libraries": [],
  "pending": [],
  "returns": {},
  "timestamp": 1741873080,
  "chain": 324,
  "commit": "713895e"
}