{
  "transactions": [
    {
      "hash": "0xc444f2eb83f01e60f8cf95de7144aead5adf8300eeebb12c1b04695091ba435d",
      "transactionType": "CALL",
      "contractName": null,
      "contractAddress": "0x1628d966d33b32f9a97ef7bb773546e363c19b26",
      "function": "execute(bytes,bytes[],uint256)",
      "arguments": [
        "0x0a180c",
        "[0x0000000000000000000000000e09fabb73bd3ade0a17ecc321fd13a19e81ce8200000000000000000000000000000000000000000000000080beda239c38566a00000000000000000000000000000000000000000000000000000000678e432b00000000000000000000000000000000000000000000000000000000000000000000000000000000000000001628d966d33b32f9a97ef7bb773546e363c19b2600000000000000000000000000000000000000000000000000000000678e432b00000000000000000000000000000000000000000000000000000000000000e00000000000000000000000000000000000000000000000000000000000000041b962ce054ab4fd40583474faf39139f41c44ce4135465eb1742fc0782b9d4cc312882b143e5e2b51ff688a8473af80574c31d3a0dd8ebec2d87cb192a7bcc7471b00000000000000000000000000000000000000000000000000000000000000, 0x000000000000000000000000000000000000000000000000000000000000000200000000000000000000000000000000000000000000000080beda239c38566a000000000000000000000000000000000000000000000000000000000000000000000000000000000000000000000000000000000000000000000000000000a0000000000000000000000000000000000000000000000000000000000000000100000000000000000000000000000000000000000000000000000000000000040000000000000000000000000e09fabb73bd3ade0a17ecc321fd13a19e81ce8200000000000000000000000055d398326f99059ff775485246999027b31979550000000000000000000000007130d2a12b9bcbfae4f2634d864a1ee1ce3ead9c000000000000000000000000bb4cdb9cbd36b01bd1cbaebf2de08d9173bc095c, 0x00000000000000000000000000000000000000000000000000000000000000010000000000000000000000000000000000000000000000000000000000000001]",
        "1737376555"
      ],
      "transaction": {
        "from": "0x7c5ca1018f9312442bff33a7a63f9436824d98e6",
        "to": "0x1628d966d33b32f9a97ef7bb773546e363c19b26",
        "gas": "0x62aae",
        "value": "0x0",
        "input": "0x3593564c000000000000000000000000000000000000000000000000000000000000006000000000000000000000000000000000000000000000000000000000000000a000000000000000000000000000000000000000000000000000000000678e432b00000000000000000000000000000000000000000000000000000000000000030a180c00000000000000000000000000000000000000000000000000000000000000000000000000000000000000000000000000000000000000000000000003000000000000000000000000000000000000000000000000000000000000006000000000000000000000000000000000000000000000000000000000000001e0000000000000000000000000000000000000000000000000000000000000034000000000000000000000000000000000000000000000000000000000000001600000000000000000000000000e09fabb73bd3ade0a17ecc321fd13a19e81ce8200000000000000000000000000000000000000000000000080beda239c38566a00000000000000000000000000000000000000000000000000000000678e432b00000000000000000000000000000000000000000000000000000000000000000000000000000000000000001628d966d33b32f9a97ef7bb773546e363c19b2600000000000000000000000000000000000000000000000000000000678e432b00000000000000000000000000000000000000000000000000000000000000e00000000000000000000000000000000000000000000000000000000000000041b962ce054ab4fd40583474faf39139f41c44ce4135465eb1742fc0782b9d4cc312882b143e5e2b51ff688a8473af80574c31d3a0dd8ebec2d87cb192a7bcc7471b000000000000000000000000000000000000000000000000000000000000000000000000000000000000000000000000000000000000000000000000000140000000000000000000000000000000000000000000000000000000000000000200000000000000000000000000000000000000000000000080beda239c38566a000000000000000000000000000000000000000000000000000000000000000000000000000000000000000000000000000000000000000000000000000000a0000000000000000000000000000000000000000000000000000000000000000100000000000000000000000000000000000000000000000000000000000000040000000000000000000000000e09fabb73bd3ade0a17ecc321fd13a19e81ce8200000000000000000000000055d398326f99059ff775485246999027b31979550000000000000000000000007130d2a12b9bcbfae4f2634d864a1ee1ce3ead9c000000000000000000000000bb4cdb9cbd36b01bd1cbaebf2de08d9173bc095c000000000000000000000000000000000000000000000000000000000000004000000000000000000000000000000000000000000000000000000000000000010000000000000000000000000000000000000000000000000000000000000001",
        "nonce": "0x9",
        "chainId": "0x38"
      },
      "additionalContracts": [],
      "isFixedGasLimit": false
    }
  ],
  "receipts": [
    {
      "status": "0x1",
      "cumulativeGasUsed": "0x1083abb",
      "logs": [
        {
          "address": "0x000000000022d473030f116ddee9f6b43ac78ba3",
          "topics": [
            "0xc6a377bfc4eb120024a8ac08eef205be16b817020812c73223e81d1bdb9708ec",
            "0x0000000000000000000000007c5ca1018f9312442bff33a7a63f9436824d98e6",
            "0x0000000000000000000000000e09fabb73bd3ade0a17ecc321fd13a19e81ce82",
            "0x0000000000000000000000001628d966d33b32f9a97ef7bb773546e363c19b26"
          ],
          "data": "0x00000000000000000000000000000000000000000000000080beda239c38566a00000000000000000000000000000000000000000000000000000000678e432b0000000000000000000000000000000000000000000000000000000000000000",
          "blockHash": "0x88a54110eec30fe07cc8ace33d55b0df2150e5fc0405d2766cf75a103dfc1cf4",
          "blockNumber": "0x2bcdcdf",
          "transactionHash": "0xc444f2eb83f01e60f8cf95de7144aead5adf8300eeebb12c1b04695091ba435d",
          "transactionIndex": "0x9e",
          "logIndex": "0x14e",
          "removed": false
        },
        {
          "address": "0x0e09fabb73bd3ade0a17ecc321fd13a19e81ce82",
          "topics": [
            "0xddf252ad1be2c89b69c2b068fc378daa952ba7f163c4a11628f55a4df523b3ef",
            "0x0000000000000000000000007c5ca1018f9312442bff33a7a63f9436824d98e6",
            "0x000000000000000000000000a39af17ce4a8eb807e076805da1e2b8ea7d0755b"
          ],
          "data": "0x00000000000000000000000000000000000000000000000080beda239c38566a",
          "blockHash": "0x88a54110eec30fe07cc8ace33d55b0df2150e5fc0405d2766cf75a103dfc1cf4",
          "blockNumber": "0x2bcdcdf",
          "transactionHash": "0xc444f2eb83f01e60f8cf95de7144aead5adf8300eeebb12c1b04695091ba435d",
          "transactionIndex": "0x9e",
          "logIndex": "0x14f",
          "removed": false
        },
        {
          "address": "0x0e09fabb73bd3ade0a17ecc321fd13a19e81ce82",
          "topics": [
            "0x8c5be1e5ebec7d5bd14f71427d1e84f3dd0314c0f7b2291e5b200ac8c7c3b925",
            "0x0000000000000000000000007c5ca1018f9312442bff33a7a63f9436824d98e6",
            "0x000000000000000000000000000000000022d473030f116ddee9f6b43ac78ba3"
          ],
          "data": "0xffffffffffffffffffffffffffffffffffffffffffffffff16ee41b1911fcda1",
          "blockHash": "0x88a54110eec30fe07cc8ace33d55b0df2150e5fc0405d2766cf75a103dfc1cf4",
          "blockNumber": "0x2bcdcdf",
          "transactionHash": "0xc444f2eb83f01e60f8cf95de7144aead5adf8300eeebb12c1b04695091ba435d",
          "transactionIndex": "0x9e",
          "logIndex": "0x150",
          "removed": false
        },
        {
          "address": "0x55d398326f99059ff775485246999027b3197955",
          "topics": [
            "0xddf252ad1be2c89b69c2b068fc378daa952ba7f163c4a11628f55a4df523b3ef",
            "0x000000000000000000000000a39af17ce4a8eb807e076805da1e2b8ea7d0755b",
            "0x0000000000000000000000003f803ec2b816ea7f06ec76aa2b6f2532f9892d62"
          ],
          "data": "0x0000000000000000000000000000000000000000000000011d1e6701fb7054d0",
          "blockHash": "0x88a54110eec30fe07cc8ace33d55b0df2150e5fc0405d2766cf75a103dfc1cf4",
          "blockNumber": "0x2bcdcdf",
          "transactionHash": "0xc444f2eb83f01e60f8cf95de7144aead5adf8300eeebb12c1b04695091ba435d",
          "transactionIndex": "0x9e",
          "logIndex": "0x151",
          "removed": false
        },
        {
          "address": "0xa39af17ce4a8eb807e076805da1e2b8ea7d0755b",
          "topics": [
            "0x1c411e9a96e071241c2f21f7726b17ae89e3cab4c78be50e062b03a9fffbbad1"
          ],
          "data": "0x0000000000000000000000000000000000000000000032096a7fd90937c892df000000000000000000000000000000000000000000006f159b82675f4378e63b",
          "blockHash": "0x88a54110eec30fe07cc8ace33d55b0df2150e5fc0405d2766cf75a103dfc1cf4",
          "blockNumber": "0x2bcdcdf",
          "transactionHash": "0xc444f2eb83f01e60f8cf95de7144aead5adf8300eeebb12c1b04695091ba435d",
          "transactionIndex": "0x9e",
          "logIndex": "0x152",
          "removed": false
        },
        {
          "address": "0xa39af17ce4a8eb807e076805da1e2b8ea7d0755b",
          "topics": [
            "0xd78ad95fa46c994b6551d0da85fc275fe613ce37657fb8d5e3d130840159d822",
            "0x0000000000000000000000001628d966d33b32f9a97ef7bb773546e363c19b26",
            "0x0000000000000000000000003f803ec2b816ea7f06ec76aa2b6f2532f9892d62"
          ],
          "data": "0x00000000000000000000000000000000000000000000000080beda239c38566a000000000000000000000000000000000000000000000000000000000000000000000000000000000000000000000000000000000000000000000000000000000000000000000000000000000000000000000000000000011d1e6701fb7054d0",
          "blockHash": "0x88a54110eec30fe07cc8ace33d55b0df2150e5fc0405d2766cf75a103dfc1cf4",
          "blockNumber": "0x2bcdcdf",
          "transactionHash": "0xc444f2eb83f01e60f8cf95de7144aead5adf8300eeebb12c1b04695091ba435d",
          "transactionIndex": "0x9e",
          "logIndex": "0x153",
          "removed": false
        },
        {
          "address": "0x7130d2a12b9bcbfae4f2634d864a1ee1ce3ead9c",
          "topics": [
            "0xddf252ad1be2c89b69c2b068fc378daa952ba7f163c4a11628f55a4df523b3ef",
            "0x0000000000000000000000003f803ec2b816ea7f06ec76aa2b6f2532f9892d62",
            "0x00000000000000000000000061eb789d75a95caa3ff50ed7e47b96c132fec082"
          ],
          "data": "0x0000000000000000000000000000000000000000000000000000aeb981dc6184",
          "blockHash": "0x88a54110eec30fe07cc8ace33d55b0df2150e5fc0405d2766cf75a103dfc1cf4",
          "blockNumber": "0x2bcdcdf",
          "transactionHash": "0xc444f2eb83f01e60f8cf95de7144aead5adf8300eeebb12c1b04695091ba435d",
          "transactionIndex": "0x9e",
          "logIndex": "0x154",
          "removed": false
        },
        {
          "address": "0x3f803ec2b816ea7f06ec76aa2b6f2532f9892d62",
          "topics": [
            "0x1c411e9a96e071241c2f21f7726b17ae89e3cab4c78be50e062b03a9fffbbad1"
          ],
          "data": "0x0000000000000000000000000000000000000000000013a057171d3baa97dd220000000000000000000000000000000000000000000000000c0e04291c0eef86",
          "blockHash": "0x88a54110eec30fe07cc8ace33d55b0df2150e5fc0405d2766cf75a103dfc1cf4",
          "blockNumber": "0x2bcdcdf",
          "transactionHash": "0xc444f2eb83f01e60f8cf95de7144aead5adf8300eeebb12c1b04695091ba435d",
          "transactionIndex": "0x9e",
          "logIndex": "0x155",
          "removed": false
        },
        {
          "address": "0x3f803ec2b816ea7f06ec76aa2b6f2532f9892d62",
          "topics": [
            "0xd78ad95fa46c994b6551d0da85fc275fe613ce37657fb8d5e3d130840159d822",
            "0x0000000000000000000000001628d966d33b32f9a97ef7bb773546e363c19b26",
            "0x00000000000000000000000061eb789d75a95caa3ff50ed7e47b96c132fec082"
          ],
          "data": "0x0000000000000000000000000000000000000000000000011d1e6701fb7054d0000000000000000000000000000000000000000000000000000000000000000000000000000000000000000000000000000000000000000000000000000000000000000000000000000000000000000000000000000000000000aeb981dc6184",
          "blockHash": "0x88a54110eec30fe07cc8ace33d55b0df2150e5fc0405d2766cf75a103dfc1cf4",
          "blockNumber": "0x2bcdcdf",
          "transactionHash": "0xc444f2eb83f01e60f8cf95de7144aead5adf8300eeebb12c1b04695091ba435d",
          "transactionIndex": "0x9e",
          "logIndex": "0x156",
          "removed": false
        },
        {
          "address": "0xbb4cdb9cbd36b01bd1cbaebf2de08d9173bc095c",
          "topics": [
            "0xddf252ad1be2c89b69c2b068fc378daa952ba7f163c4a11628f55a4df523b3ef",
            "0x00000000000000000000000061eb789d75a95caa3ff50ed7e47b96c132fec082",
            "0x0000000000000000000000001628d966d33b32f9a97ef7bb773546e363c19b26"
          ],
          "data": "0x0000000000000000000000000000000000000000000000000068fe2fdfad5f5a",
          "blockHash": "0x88a54110eec30fe07cc8ace33d55b0df2150e5fc0405d2766cf75a103dfc1cf4",
          "blockNumber": "0x2bcdcdf",
          "transactionHash": "0xc444f2eb83f01e60f8cf95de7144aead5adf8300eeebb12c1b04695091ba435d",
          "transactionIndex": "0x9e",
          "logIndex": "0x157",
          "removed": false
        },
        {
          "address": "0x61eb789d75a95caa3ff50ed7e47b96c132fec082",
          "topics": [
            "0x1c411e9a96e071241c2f21f7726b17ae89e3cab4c78be50e062b03a9fffbbad1"
          ],
          "data": "0x0000000000000000000000000000000000000000000000010bbe45511e3c32e20000000000000000000000000000000000000000000000a14a365d35d63079fc",
          "blockHash": "0x88a54110eec30fe07cc8ace33d55b0df2150e5fc0405d2766cf75a103dfc1cf4",
          "blockNumber": "0x2bcdcdf",
          "transactionHash": "0xc444f2eb83f01e60f8cf95de7144aead5adf8300eeebb12c1b04695091ba435d",
          "transactionIndex": "0x9e",
          "logIndex": "0x158",
          "removed": false
        },
        {
          "address": "0x61eb789d75a95caa3ff50ed7e47b96c132fec082",
          "topics": [
            "0xd78ad95fa46c994b6551d0da85fc275fe613ce37657fb8d5e3d130840159d822",
            "0x0000000000000000000000001628d966d33b32f9a97ef7bb773546e363c19b26",
            "0x0000000000000000000000001628d966d33b32f9a97ef7bb773546e363c19b26"
          ],
          "data": "0x0000000000000000000000000000000000000000000000000000aeb981dc6184000000000000000000000000000000000000000000000000000000000000000000000000000000000000000000000000000000000000000000000000000000000000000000000000000000000000000000000000000000000068fe2fdfad5f5a",
          "blockHash": "0x88a54110eec30fe07cc8ace33d55b0df2150e5fc0405d2766cf75a103dfc1cf4",
          "blockNumber": "0x2bcdcdf",
          "transactionHash": "0xc444f2eb83f01e60f8cf95de7144aead5adf8300eeebb12c1b04695091ba435d",
          "transactionIndex": "0x9e",
          "logIndex": "0x159",
          "removed": false
        },
        {
          "address": "0xbb4cdb9cbd36b01bd1cbaebf2de08d9173bc095c",
          "topics": [
            "0x7fcf532c15f0a6db0bd6d0e038bea71d30d808c7d98cb3bf7268a95bf5081b65",
            "0x0000000000000000000000001628d966d33b32f9a97ef7bb773546e363c19b26"
          ],
          "data": "0x0000000000000000000000000000000000000000000000000068fe2fdfad5f5a",
          "blockHash": "0x88a54110eec30fe07cc8ace33d55b0df2150e5fc0405d2766cf75a103dfc1cf4",
          "blockNumber": "0x2bcdcdf",
          "transactionHash": "0xc444f2eb83f01e60f8cf95de7144aead5adf8300eeebb12c1b04695091ba435d",
          "transactionIndex": "0x9e",
          "logIndex": "0x15a",
          "removed": false
        }
      ],
      "logsBloom": "0x00210000000000000000000080000000000000100000800000000000000000808000000000400000400000000000000000010000800000010000000000280000000000000000000001004108000000200080040000400802000400000201040000000000000000000000000000000000000000000000240000000010000000800001004000000000008000008000000400040800004000082000004000000000020000004000000000000002001004000400000000000000000000000000000000040002000000000000000000000000200000000000001000000002000080000010000000000002000008000000000000000008000100000000004000000401",
      "type": "0x0",
      "transactionHash": "0xc444f2eb83f01e60f8cf95de7144aead5adf8300eeebb12c1b04695091ba435d",
      "transactionIndex": "0x9e",
      "blockHash": "0x88a54110eec30fe07cc8ace33d55b0df2150e5fc0405d2766cf75a103dfc1cf4",
      "blockNumber": "0x2bcdcdf",
      "gasUsed": "0x43771",
      "effectiveGasPrice": "0x3b9aca00",
      "from": "0x7c5ca1018f9312442bff33a7a63f9436824d98e6",
      "to": "0x1628d966d33b32f9a97ef7bb773546e363c19b26",
      "contractAddress": null
    }
  ],
  "libraries": [],
  "pending": [],
  "returns": {},
  "timestamp": 1737376519,
  "chain": 56,
  "commit": "637d5dc"
}