{
  "transactions": [
    {
      "hash": "0x4946b1a5410a901a5a6acd86452bfe0f27f66faa113aaa72ec6b2a4a195cfe50",
      "transactionType": "CALL",
      "contractName": null,
      "contractAddress": "0x1628d966d33b32f9a97ef7bb773546e363c19b26",
      "function": "execute(bytes,bytes[],uint256)",
      "arguments": [
        "0x04",
        "[0x000000000000000000000000bb4cdb9cbd36b01bd1cbaebf2de08d9173bc095c00000000000000000000000000000000000000000000000000000000000000010000000000000000000000000000000000000000000000000000000000000000]",
        "1739084872"
      ],
      "transaction": {
        "from": "0x6007723dac9bb830f622bb4561e8017f021b9fb5",
        "to": "0x1628d966d33b32f9a97ef7bb773546e363c19b26",
        "gas": "0xdead",
        "value": "0x0",
        "input": "0x3593564c000000000000000000000000000000000000000000000000000000000000006000000000000000000000000000000000000000000000000000000000000000a00000000000000000000000000000000000000000000000000000000067a8544800000000000000000000000000000000000000000000000000000000000000010400000000000000000000000000000000000000000000000000000000000000000000000000000000000000000000000000000000000000000000000000000100000000000000000000000000000000000000000000000000000000000000200000000000000000000000000000000000000000000000000000000000000060000000000000000000000000bb4cdb9cbd36b01bd1cbaebf2de08d9173bc095c00000000000000000000000000000000000000000000000000000000000000010000000000000000000000000000000000000000000000000000000000000000",
        "nonce": "0x8",
        "chainId": "0x38"
      },
      "additionalContracts": [],
      "isFixedGasLimit": false
    }
  ],
  "receipts": [
    {
      "status": "0x1",
      "cumulativeGasUsed": "0x91bf68",
      "logs": [],
      "logsBloom": "0x00000000000000000000000000000000000000000000000000000000000000000000000000000000000000000000000000000000000000000000000000000000000000000000000000000000000000000000000000000000000000000000000000000000000000000000000000000000000000000000000000000000000000000000000000000000000000000000000000000000000000000000000000000000000000000000000000000000000000000000000000000000000000000000000000000000000000000000000000000000000000000000000000000000000000000000000000000000000000000000000000000000000000000000000000000000",
      "type": "0x0",
      "transactionHash": "0x4946b1a5410a901a5a6acd86452bfe0f27f66faa113aaa72ec6b2a4a195cfe50",
      "transactionIndex": "0x38",
      "blockHash": "0xf0531f3d005b36e92f9b9b99558336ca1fe0c61227437f9687f41b7f8725a394",
      "blockNumber": "0x2c58d0c",
      "gasUsed": "0x7f52",
      "effectiveGasPrice": "0x3b9aca00",
      "from": "0x6007723dac9bb830f622bb4561e8017f021b9fb5",
      "to": "0x1628d966d33b32f9a97ef7bb773546e363c19b26",
      "contractAddress": null
    }
  ],
  "libraries": [],
  "pending": [],
  "returns": {},
  "timestamp": 1739084794,
  "chain": 56,
  "commit": "ce61248"
}