{
  "transactions": [
    {
      "hash": "0x47d282c2416b82dd1621e9f0d42da1d846246ee2cf5ccc996887cb416cff7f68",
      "transactionType": "CALL",
      "contractName": null,
      "contractAddress": "0x7aed02aefb5df67414427a6b2abf4613264bac4a",
      "function": "execute(bytes,bytes[],uint256)",
      "arguments": [
        "0x0b18",
        "[0x00000000000000000000000000000000000000000000000000000000000000028000000000000000000000000000000000000000000000000000000000000000, 0x0000000000000000000000000000000000000000000000000000000000000001000000000000000000000000000000000000000000000000006a94d74f430000000000000000000000000000000000000000000000000000000000000000000000000000000000000000000000000000000000000000000000000000000000a000000000000000000000000000000000000000000000000000000000000000000000000000000000000000000000000000000000000000000000000000000004000000000000000000000000bb4cdb9cbd36b01bd1cbaebf2de08d9173bc095c0000000000000000000000007130d2a12b9bcbfae4f2634d864a1ee1ce3ead9c00000000000000000000000055d398326f99059ff775485246999027b31979550000000000000000000000000e09fabb73bd3ade0a17ecc321fd13a19e81ce82]",
        "1736106222"
      ],
      "transaction": {
        "from": "0x7c5ca1018f9312442bff33a7a63f9436824d98e6",
        "to": "0x7aed02aefb5df67414427a6b2abf4613264bac4a",
        "gas": "0x568c3",
        "value": "0x6a94d74f430000",
        "input": "0x3593564c000000000000000000000000000000000000000000000000000000000000006000000000000000000000000000000000000000000000000000000000000000a000000000000000000000000000000000000000000000000000000000677ae0ee00000000000000000000000000000000000000000000000000000000000000020b180000000000000000000000000000000000000000000000000000000000000000000000000000000000000000000000000000000000000000000000000002000000000000000000000000000000000000000000000000000000000000004000000000000000000000000000000000000000000000000000000000000000a000000000000000000000000000000000000000000000000000000000000000400000000000000000000000000000000000000000000000000000000000000002800000000000000000000000000000000000000000000000000000000000000000000000000000000000000000000000000000000000000000000000000001400000000000000000000000000000000000000000000000000000000000000001000000000000000000000000000000000000000000000000006a94d74f430000000000000000000000000000000000000000000000000000000000000000000000000000000000000000000000000000000000000000000000000000000000a000000000000000000000000000000000000000000000000000000000000000000000000000000000000000000000000000000000000000000000000000000004000000000000000000000000bb4cdb9cbd36b01bd1cbaebf2de08d9173bc095c0000000000000000000000007130d2a12b9bcbfae4f2634d864a1ee1ce3ead9c00000000000000000000000055d398326f99059ff775485246999027b31979550000000000000000000000000e09fabb73bd3ade0a17ecc321fd13a19e81ce82",
        "nonce": "0x1",
        "chainId": "0x38"
      },
      "additionalContracts": [],
      "isFixedGasLimit": false
    }
  ],
  "receipts": [
    {
      "status": "0x1",
      "cumulativeGasUsed": "0x5146fc",
      "logs": [
        {
          "address": "0xbb4cdb9cbd36b01bd1cbaebf2de08d9173bc095c",
          "topics": [
            "0xe1fffcc4923d04b559f4d29a8bfc6cda04eb5b0d3c460751c2402c5c5cc9109c",
            "0x0000000000000000000000007aed02aefb5df67414427a6b2abf4613264bac4a"
          ],
          "data": "0x000000000000000000000000000000000000000000000000006a94d74f430000",
          "blockHash": "0xd6f528286f1e594dee3c079bbdbe5a0273dda26e7dfdcc426756a55b50d4ef5a",
          "blockNumber": "0x2b666e3",
          "transactionHash": "0x47d282c2416b82dd1621e9f0d42da1d846246ee2cf5ccc996887cb416cff7f68",
          "transactionIndex": "0x45",
          "logIndex": "0x79",
          "removed": false
        },
        {
          "address": "0xbb4cdb9cbd36b01bd1cbaebf2de08d9173bc095c",
          "topics": [
            "0xddf252ad1be2c89b69c2b068fc378daa952ba7f163c4a11628f55a4df523b3ef",
            "0x0000000000000000000000007aed02aefb5df67414427a6b2abf4613264bac4a",
            "0x00000000000000000000000061eb789d75a95caa3ff50ed7e47b96c132fec082"
          ],
          "data": "0x000000000000000000000000000000000000000000000000006a94d74f430000",
          "blockHash": "0xd6f528286f1e594dee3c079bbdbe5a0273dda26e7dfdcc426756a55b50d4ef5a",
          "blockNumber": "0x2b666e3",
          "transactionHash": "0x47d282c2416b82dd1621e9f0d42da1d846246ee2cf5ccc996887cb416cff7f68",
          "transactionIndex": "0x45",
          "logIndex": "0x7a",
          "removed": false
        },
        {
          "address": "0x7130d2a12b9bcbfae4f2634d864a1ee1ce3ead9c",
          "topics": [
            "0xddf252ad1be2c89b69c2b068fc378daa952ba7f163c4a11628f55a4df523b3ef",
            "0x00000000000000000000000061eb789d75a95caa3ff50ed7e47b96c132fec082",
            "0x0000000000000000000000003f803ec2b816ea7f06ec76aa2b6f2532f9892d62"
          ],
          "data": "0x0000000000000000000000000000000000000000000000000000c45f054d0e82",
          "blockHash": "0xd6f528286f1e594dee3c079bbdbe5a0273dda26e7dfdcc426756a55b50d4ef5a",
          "blockNumber": "0x2b666e3",
          "transactionHash": "0x47d282c2416b82dd1621e9f0d42da1d846246ee2cf5ccc996887cb416cff7f68",
          "transactionIndex": "0x45",
          "logIndex": "0x7b",
          "removed": false
        },
        {
          "address": "0x61eb789d75a95caa3ff50ed7e47b96c132fec082",
          "topics": [
            "0x1c411e9a96e071241c2f21f7726b17ae89e3cab4c78be50e062b03a9fffbbad1"
          ],
          "data": "0x0000000000000000000000000000000000000000000000011c994a71355e64c400000000000000000000000000000000000000000000009a1534cba0f1c93acf",
          "blockHash": "0xd6f528286f1e594dee3c079bbdbe5a0273dda26e7dfdcc426756a55b50d4ef5a",
          "blockNumber": "0x2b666e3",
          "transactionHash": "0x47d282c2416b82dd1621e9f0d42da1d846246ee2cf5ccc996887cb416cff7f68",
          "transactionIndex": "0x45",
          "logIndex": "0x7c",
          "removed": false
        },
        {
          "address": "0x61eb789d75a95caa3ff50ed7e47b96c132fec082",
          "topics": [
            "0xd78ad95fa46c994b6551d0da85fc275fe613ce37657fb8d5e3d130840159d822",
            "0x0000000000000000000000007aed02aefb5df67414427a6b2abf4613264bac4a",
            "0x0000000000000000000000003f803ec2b816ea7f06ec76aa2b6f2532f9892d62"
          ],
          "data": "0x0000000000000000000000000000000000000000000000000000000000000000000000000000000000000000000000000000000000000000006a94d74f4300000000000000000000000000000000000000000000000000000000c45f054d0e820000000000000000000000000000000000000000000000000000000000000000",
          "blockHash": "0xd6f528286f1e594dee3c079bbdbe5a0273dda26e7dfdcc426756a55b50d4ef5a",
          "blockNumber": "0x2b666e3",
          "transactionHash": "0x47d282c2416b82dd1621e9f0d42da1d846246ee2cf5ccc996887cb416cff7f68",
          "transactionIndex": "0x45",
          "logIndex": "0x7d",
          "removed": false
        },
        {
          "address": "0x55d398326f99059ff775485246999027b3197955",
          "topics": [
            "0xddf252ad1be2c89b69c2b068fc378daa952ba7f163c4a11628f55a4df523b3ef",
            "0x0000000000000000000000003f803ec2b816ea7f06ec76aa2b6f2532f9892d62",
            "0x000000000000000000000000a39af17ce4a8eb807e076805da1e2b8ea7d0755b"
          ],
          "data": "0x0000000000000000000000000000000000000000000000012494655f5cfce1cd",
          "blockHash": "0xd6f528286f1e594dee3c079bbdbe5a0273dda26e7dfdcc426756a55b50d4ef5a",
          "blockNumber": "0x2b666e3",
          "transactionHash": "0x47d282c2416b82dd1621e9f0d42da1d846246ee2cf5ccc996887cb416cff7f68",
          "transactionIndex": "0x45",
          "logIndex": "0x7e",
          "removed": false
        },
        {
          "address": "0x3f803ec2b816ea7f06ec76aa2b6f2532f9892d62",
          "topics": [
            "0x1c411e9a96e071241c2f21f7726b17ae89e3cab4c78be50e062b03a9fffbbad1"
          ],
          "data": "0x0000000000000000000000000000000000000000000011e6a3258ff7c8c9d7870000000000000000000000000000000000000000000000000bfcd05985d7f78d",
          "blockHash": "0xd6f528286f1e594dee3c079bbdbe5a0273dda26e7dfdcc426756a55b50d4ef5a",
          "blockNumber": "0x2b666e3",
          "transactionHash": "0x47d282c2416b82dd1621e9f0d42da1d846246ee2cf5ccc996887cb416cff7f68",
          "transactionIndex": "0x45",
          "logIndex": "0x7f",
          "removed": false
        },
        {
          "address": "0x3f803ec2b816ea7f06ec76aa2b6f2532f9892d62",
          "topics": [
            "0xd78ad95fa46c994b6551d0da85fc275fe613ce37657fb8d5e3d130840159d822",
            "0x0000000000000000000000007aed02aefb5df67414427a6b2abf4613264bac4a",
            "0x000000000000000000000000a39af17ce4a8eb807e076805da1e2b8ea7d0755b"
          ],
          "data": "0x00000000000000000000000000000000000000000000000000000000000000000000000000000000000000000000000000000000000000000000c45f054d0e820000000000000000000000000000000000000000000000012494655f5cfce1cd0000000000000000000000000000000000000000000000000000000000000000",
          "blockHash": "0xd6f528286f1e594dee3c079bbdbe5a0273dda26e7dfdcc426756a55b50d4ef5a",
          "blockNumber": "0x2b666e3",
          "transactionHash": "0x47d282c2416b82dd1621e9f0d42da1d846246ee2cf5ccc996887cb416cff7f68",
          "transactionIndex": "0x45",
          "logIndex": "0x80",
          "removed": false
        },
        {
          "address": "0x0e09fabb73bd3ade0a17ecc321fd13a19e81ce82",
          "topics": [
            "0xddf252ad1be2c89b69c2b068fc378daa952ba7f163c4a11628f55a4df523b3ef",
            "0x000000000000000000000000a39af17ce4a8eb807e076805da1e2b8ea7d0755b",
            "0x0000000000000000000000007c5ca1018f9312442bff33a7a63f9436824d98e6"
          ],
          "data": "0x0000000000000000000000000000000000000000000000006852e42ad2a7dbf4",
          "blockHash": "0xd6f528286f1e594dee3c079bbdbe5a0273dda26e7dfdcc426756a55b50d4ef5a",
          "blockNumber": "0x2b666e3",
          "transactionHash": "0x47d282c2416b82dd1621e9f0d42da1d846246ee2cf5ccc996887cb416cff7f68",
          "transactionIndex": "0x45",
          "logIndex": "0x81",
          "removed": false
        },
        {
          "address": "0xa39af17ce4a8eb807e076805da1e2b8ea7d0755b",
          "topics": [
            "0x1c411e9a96e071241c2f21f7726b17ae89e3cab4c78be50e062b03a9fffbbad1"
          ],
          "data": "0x000000000000000000000000000000000000000000002c79fa0bd52303a0db43000000000000000000000000000000000000000000007c6dacfc2db34d256c3b",
          "blockHash": "0xd6f528286f1e594dee3c079bbdbe5a0273dda26e7dfdcc426756a55b50d4ef5a",
          "blockNumber": "0x2b666e3",
          "transactionHash": "0x47d282c2416b82dd1621e9f0d42da1d846246ee2cf5ccc996887cb416cff7f68",
          "transactionIndex": "0x45",
          "logIndex": "0x82",
          "removed": false
        },
        {
          "address": "0xa39af17ce4a8eb807e076805da1e2b8ea7d0755b",
          "topics": [
            "0xd78ad95fa46c994b6551d0da85fc275fe613ce37657fb8d5e3d130840159d822",
            "0x0000000000000000000000007aed02aefb5df67414427a6b2abf4613264bac4a",
            "0x0000000000000000000000007c5ca1018f9312442bff33a7a63f9436824d98e6"
          ],
          "data": "0x00000000000000000000000000000000000000000000000000000000000000000000000000000000000000000000000000000000000000012494655f5cfce1cd0000000000000000000000000000000000000000000000006852e42ad2a7dbf40000000000000000000000000000000000000000000000000000000000000000",
          "blockHash": "0xd6f528286f1e594dee3c079bbdbe5a0273dda26e7dfdcc426756a55b50d4ef5a",
          "blockNumber": "0x2b666e3",
          "transactionHash": "0x47d282c2416b82dd1621e9f0d42da1d846246ee2cf5ccc996887cb416cff7f68",
          "transactionIndex": "0x45",
          "logIndex": "0x83",
          "removed": false
        }
      ],
      "logsBloom": "0x00200000000000000000000084000000000000000000800000000000000000000000000000400000400000000000000000000000000000010000000000000000000000000000000001000108000000200080040000000002000400008201040000000000000000000000000000000000000000000000200000000010000000000005000000000000008000008000000400040801004000082000004000000000000000004000000000000000001004000000000000000000000000000000000000040002000000000000000000000000200000000000001000000000000080000000000000000002000008000000000000000008000100400000004200000000",
      "type": "0x0",
      "transactionHash": "0x47d282c2416b82dd1621e9f0d42da1d846246ee2cf5ccc996887cb416cff7f68",
      "transactionIndex": "0x45",
      "blockHash": "0xd6f528286f1e594dee3c079bbdbe5a0273dda26e7dfdcc426756a55b50d4ef5a",
      "blockNumber": "0x2b666e3",
      "gasUsed": "0x3b2d9",
      "effectiveGasPrice": "0x3b9aca00",
      "from": "0x7c5ca1018f9312442bff33a7a63f9436824d98e6",
      "to": "0x7aed02aefb5df67414427a6b2abf4613264bac4a",
      "contractAddress": null
    }
  ],
  "libraries": [],
  "pending": [],
  "returns": {},
  "timestamp": 1736106141,
  "chain": 56,
  "commit": "8d1fa32"
}