{
  "transactions": [
    {
      "hash": "0x6f88a4828e2bc8684760c24a77d7554e70a45976c10867d94cd0a495f081e649",
      "transactionType": "CALL",
      "contractName": null,
      "contractAddress": "0x0e09fabb73bd3ade0a17ecc321fd13a19e81ce82",
      "function": "approve(address,uint256)",
      "arguments": [
        "0x000000000022D473030F116dDEE9F6B43aC78BA3",
        "115792089237316195423570985008687907853269984665640564039457584007913129639935"
      ],
      "transaction": {
        "from": "0x7c5ca1018f9312442bff33a7a63f9436824d98e6",
        "to": "0x0e09fabb73bd3ade0a17ecc321fd13a19e81ce82",
        "gas": "0xfaba",
        "value": "0x0",
        "input": "0x095ea7b3000000000000000000000000000000000022d473030f116ddee9f6b43ac78ba3ffffffffffffffffffffffffffffffffffffffffffffffffffffffffffffffff",
        "nonce": "0x2",
        "chainId": "0x38"
      },
      "additionalContracts": [],
      "isFixedGasLimit": false
    },
    {
      "hash": "0xdb9cd114a25e020edcfc488fb205b2f8d1851bb0a2fe9bd5ace7a872ec627d87",
      "transactionType": "CALL",
      "contractName": null,
      "contractAddress": "0x7aed02aefb5df67414427a6b2abf4613264bac4a",
      "function": "execute(bytes,bytes[],uint256)",
      "arguments": [
        "0x0a180c",
        "[0x0000000000000000000000000e09fabb73bd3ade0a17ecc321fd13a19e81ce820000000000000000000000000000000000000000000000006852e42ad2a7dbf400000000000000000000000000000000000000000000000000000000677ae64c00000000000000000000000000000000000000000000000000000000000000000000000000000000000000007aed02aefb5df67414427a6b2abf4613264bac4a00000000000000000000000000000000000000000000000000000000677ae64c00000000000000000000000000000000000000000000000000000000000000e00000000000000000000000000000000000000000000000000000000000000041257b9427ac5ee7405bc443e67c7be80c4dba6aadc1341d0c2e594d955e7420475ec79d7fd58ebfc92ada7edb0fbeb7d107a3fee9aab1f989989e111ef479e9c71b00000000000000000000000000000000000000000000000000000000000000, 0x00000000000000000000000000000000000000000000000000000000000000020000000000000000000000000000000000000000000000006852e42ad2a7dbf4000000000000000000000000000000000000000000000000000000000000000000000000000000000000000000000000000000000000000000000000000000a0000000000000000000000000000000000000000000000000000000000000000100000000000000000000000000000000000000000000000000000000000000040000000000000000000000000e09fabb73bd3ade0a17ecc321fd13a19e81ce8200000000000000000000000055d398326f99059ff775485246999027b31979550000000000000000000000007130d2a12b9bcbfae4f2634d864a1ee1ce3ead9c000000000000000000000000bb4cdb9cbd36b01bd1cbaebf2de08d9173bc095c, 0x00000000000000000000000000000000000000000000000000000000000000010000000000000000000000000000000000000000000000000000000000000001]",
        "1736107596"
      ],
      "transaction": {
        "from": "0x7c5ca1018f9312442bff33a7a63f9436824d98e6",
        "to": "0x7aed02aefb5df67414427a6b2abf4613264bac4a",
        "gas": "0x5d393",
        "value": "0x0",
        "input": "0x3593564c000000000000000000000000000000000000000000000000000000000000006000000000000000000000000000000000000000000000000000000000000000a000000000000000000000000000000000000000000000000000000000677ae64c00000000000000000000000000000000000000000000000000000000000000030a180c00000000000000000000000000000000000000000000000000000000000000000000000000000000000000000000000000000000000000000000000003000000000000000000000000000000000000000000000000000000000000006000000000000000000000000000000000000000000000000000000000000001e0000000000000000000000000000000000000000000000000000000000000034000000000000000000000000000000000000000000000000000000000000001600000000000000000000000000e09fabb73bd3ade0a17ecc321fd13a19e81ce820000000000000000000000000000000000000000000000006852e42ad2a7dbf400000000000000000000000000000000000000000000000000000000677ae64c00000000000000000000000000000000000000000000000000000000000000000000000000000000000000007aed02aefb5df67414427a6b2abf4613264bac4a00000000000000000000000000000000000000000000000000000000677ae64c00000000000000000000000000000000000000000000000000000000000000e00000000000000000000000000000000000000000000000000000000000000041257b9427ac5ee7405bc443e67c7be80c4dba6aadc1341d0c2e594d955e7420475ec79d7fd58ebfc92ada7edb0fbeb7d107a3fee9aab1f989989e111ef479e9c71b00000000000000000000000000000000000000000000000000000000000000000000000000000000000000000000000000000000000000000000000000014000000000000000000000000000000000000000000000000000000000000000020000000000000000000000000000000000000000000000006852e42ad2a7dbf4000000000000000000000000000000000000000000000000000000000000000000000000000000000000000000000000000000000000000000000000000000a0000000000000000000000000000000000000000000000000000000000000000100000000000000000000000000000000000000000000000000000000000000040000000000000000000000000e09fabb73bd3ade0a17ecc321fd13a19e81ce8200000000000000000000000055d398326f99059ff775485246999027b31979550000000000000000000000007130d2a12b9bcbfae4f2634d864a1ee1ce3ead9c000000000000000000000000bb4cdb9cbd36b01bd1cbaebf2de08d9173bc095c000000000000000000000000000000000000000000000000000000000000004000000000000000000000000000000000000000000000000000000000000000010000000000000000000000000000000000000000000000000000000000000001",
        "nonce": "0x3",
        "chainId": "0x38"
      },
      "additionalContracts": [],
      "isFixedGasLimit": false
    }
  ],
  "receipts": [
    {
      "status": "0x1",
      "cumulativeGasUsed": "0x5aebdb",
      "logs": [
        {
          "address": "0x0e09fabb73bd3ade0a17ecc321fd13a19e81ce82",
          "topics": [
            "0x8c5be1e5ebec7d5bd14f71427d1e84f3dd0314c0f7b2291e5b200ac8c7c3b925",
            "0x0000000000000000000000007c5ca1018f9312442bff33a7a63f9436824d98e6",
            "0x000000000000000000000000000000000022d473030f116ddee9f6b43ac78ba3"
          ],
          "data": "0xffffffffffffffffffffffffffffffffffffffffffffffffffffffffffffffff",
          "blockHash": "0x6e41b44fbde15bd7523b2eb7cbf52537e6e02c8a57bf5b018b0e3b8cc71ac26f",
          "blockNumber": "0x2b668ac",
          "transactionHash": "0x6f88a4828e2bc8684760c24a77d7554e70a45976c10867d94cd0a495f081e649",
          "transactionIndex": "0x33",
          "logIndex": "0x92",
          "removed": false
        }
      ],
      "logsBloom": "0x00000000000000000000000000000000000000000000000000000000000000000000000000000000000000000000000000000000800000000000000000200000000000000000000000004000000000000000000000000802000000000000000000000000000000000000000000000000000000000000000000000000000000000000000000000000000000000000000400000000000000002000000000000000020000004000000000000000000000000000000000000000000000000000000000040000000000000000000000000000000000000000000000000000000000000010000000000000000000000000000000000008000000000000000000000000",
      "type": "0x0",
      "transactionHash": "0x6f88a4828e2bc8684760c24a77d7554e70a45976c10867d94cd0a495f081e649",
      "transactionIndex": "0x33",
      "blockHash": "0x6e41b44fbde15bd7523b2eb7cbf52537e6e02c8a57bf5b018b0e3b8cc71ac26f",
      "blockNumber": "0x2b668ac",
      "gasUsed": "0xb586",
      "effectiveGasPrice": "0x3b9aca00",
      "from": "0x7c5ca1018f9312442bff33a7a63f9436824d98e6",
      "to": "0x0e09fabb73bd3ade0a17ecc321fd13a19e81ce82",
      "contractAddress": null
    },
    {
      "status": "0x1",
      "cumulativeGasUsed": "0x605dc8",
      "logs": [
        {
          "address": "0x000000000022d473030f116ddee9f6b43ac78ba3",
          "topics": [
            "0xc6a377bfc4eb120024a8ac08eef205be16b817020812c73223e81d1bdb9708ec",
            "0x0000000000000000000000007c5ca1018f9312442bff33a7a63f9436824d98e6",
            "0x0000000000000000000000000e09fabb73bd3ade0a17ecc321fd13a19e81ce82",
            "0x0000000000000000000000007aed02aefb5df67414427a6b2abf4613264bac4a"
          ],
          "data": "0x0000000000000000000000000000000000000000000000006852e42ad2a7dbf400000000000000000000000000000000000000000000000000000000677ae64c0000000000000000000000000000000000000000000000000000000000000000",
          "blockHash": "0x6e41b44fbde15bd7523b2eb7cbf52537e6e02c8a57bf5b018b0e3b8cc71ac26f",
          "blockNumber": "0x2b668ac",
          "transactionHash": "0xdb9cd114a25e020edcfc488fb205b2f8d1851bb0a2fe9bd5ace7a872ec627d87",
          "transactionIndex": "0x35",
          "logIndex": "0x94",
          "removed": false
        },
        {
          "address": "0x0e09fabb73bd3ade0a17ecc321fd13a19e81ce82",
          "topics": [
            "0xddf252ad1be2c89b69c2b068fc378daa952ba7f163c4a11628f55a4df523b3ef",
            "0x0000000000000000000000007c5ca1018f9312442bff33a7a63f9436824d98e6",
            "0x000000000000000000000000a39af17ce4a8eb807e076805da1e2b8ea7d0755b"
          ],
          "data": "0x0000000000000000000000000000000000000000000000006852e42ad2a7dbf4",
          "blockHash": "0x6e41b44fbde15bd7523b2eb7cbf52537e6e02c8a57bf5b018b0e3b8cc71ac26f",
          "blockNumber": "0x2b668ac",
          "transactionHash": "0xdb9cd114a25e020edcfc488fb205b2f8d1851bb0a2fe9bd5ace7a872ec627d87",
          "transactionIndex": "0x35",
          "logIndex": "0x95",
          "removed": false
        },
        {
          "address": "0x0e09fabb73bd3ade0a17ecc321fd13a19e81ce82",
          "topics": [
            "0x8c5be1e5ebec7d5bd14f71427d1e84f3dd0314c0f7b2291e5b200ac8c7c3b925",
            "0x0000000000000000000000007c5ca1018f9312442bff33a7a63f9436824d98e6",
            "0x000000000000000000000000000000000022d473030f116ddee9f6b43ac78ba3"
          ],
          "data": "0xffffffffffffffffffffffffffffffffffffffffffffffff97ad1bd52d58240b",
          "blockHash": "0x6e41b44fbde15bd7523b2eb7cbf52537e6e02c8a57bf5b018b0e3b8cc71ac26f",
          "blockNumber": "0x2b668ac",
          "transactionHash": "0xdb9cd114a25e020edcfc488fb205b2f8d1851bb0a2fe9bd5ace7a872ec627d87",
          "transactionIndex": "0x35",
          "logIndex": "0x96",
          "removed": false
        },
        {
          "address": "0x55d398326f99059ff775485246999027b3197955",
          "topics": [
            "0xddf252ad1be2c89b69c2b068fc378daa952ba7f163c4a11628f55a4df523b3ef",
            "0x000000000000000000000000a39af17ce4a8eb807e076805da1e2b8ea7d0755b",
            "0x0000000000000000000000003f803ec2b816ea7f06ec76aa2b6f2532f9892d62"
          ],
          "data": "0x000000000000000000000000000000000000000000000001235cc866a059be1c",
          "blockHash": "0x6e41b44fbde15bd7523b2eb7cbf52537e6e02c8a57bf5b018b0e3b8cc71ac26f",
          "blockNumber": "0x2b668ac",
          "transactionHash": "0xdb9cd114a25e020edcfc488fb205b2f8d1851bb0a2fe9bd5ace7a872ec627d87",
          "transactionIndex": "0x35",
          "logIndex": "0x97",
          "removed": false
        },
        {
          "address": "0xa39af17ce4a8eb807e076805da1e2b8ea7d0755b",
          "topics": [
            "0x1c411e9a96e071241c2f21f7726b17ae89e3cab4c78be50e062b03a9fffbbad1"
          ],
          "data": "0x000000000000000000000000000000000000000000002c75a507670cde1f6259000000000000000000000000000000000000000000007c79f0ed418465157ab5",
          "blockHash": "0x6e41b44fbde15bd7523b2eb7cbf52537e6e02c8a57bf5b018b0e3b8cc71ac26f",
          "blockNumber": "0x2b668ac",
          "transactionHash": "0xdb9cd114a25e020edcfc488fb205b2f8d1851bb0a2fe9bd5ace7a872ec627d87",
          "transactionIndex": "0x35",
          "logIndex": "0x98",
          "removed": false
        },
        {
          "address": "0xa39af17ce4a8eb807e076805da1e2b8ea7d0755b",
          "topics": [
            "0xd78ad95fa46c994b6551d0da85fc275fe613ce37657fb8d5e3d130840159d822",
            "0x0000000000000000000000007aed02aefb5df67414427a6b2abf4613264bac4a",
            "0x0000000000000000000000003f803ec2b816ea7f06ec76aa2b6f2532f9892d62"
          ],
          "data": "0x0000000000000000000000000000000000000000000000006852e42ad2a7dbf400000000000000000000000000000000000000000000000000000000000000000000000000000000000000000000000000000000000000000000000000000000000000000000000000000000000000000000000000000001235cc866a059be1c",
          "blockHash": "0x6e41b44fbde15bd7523b2eb7cbf52537e6e02c8a57bf5b018b0e3b8cc71ac26f",
          "blockNumber": "0x2b668ac",
          "transactionHash": "0xdb9cd114a25e020edcfc488fb205b2f8d1851bb0a2fe9bd5ace7a872ec627d87",
          "transactionIndex": "0x35",
          "logIndex": "0x99",
          "removed": false
        },
        {
          "address": "0x7130d2a12b9bcbfae4f2634d864a1ee1ce3ead9c",
          "topics": [
            "0xddf252ad1be2c89b69c2b068fc378daa952ba7f163c4a11628f55a4df523b3ef",
            "0x0000000000000000000000003f803ec2b816ea7f06ec76aa2b6f2532f9892d62",
            "0x00000000000000000000000061eb789d75a95caa3ff50ed7e47b96c132fec082"
          ],
          "data": "0x0000000000000000000000000000000000000000000000000000c2940c5be944",
          "blockHash": "0x6e41b44fbde15bd7523b2eb7cbf52537e6e02c8a57bf5b018b0e3b8cc71ac26f",
          "blockNumber": "0x2b668ac",
          "transactionHash": "0xdb9cd114a25e020edcfc488fb205b2f8d1851bb0a2fe9bd5ace7a872ec627d87",
          "transactionIndex": "0x35",
          "logIndex": "0x9a",
          "removed": false
        },
        {
          "address": "0x3f803ec2b816ea7f06ec76aa2b6f2532f9892d62",
          "topics": [
            "0x1c411e9a96e071241c2f21f7726b17ae89e3cab4c78be50e062b03a9fffbbad1"
          ],
          "data": "0x0000000000000000000000000000000000000000000011e7c5d8f0b76c640d970000000000000000000000000000000000000000000000000bfc0e3733ea8b64",
          "blockHash": "0x6e41b44fbde15bd7523b2eb7cbf52537e6e02c8a57bf5b018b0e3b8cc71ac26f",
          "blockNumber": "0x2b668ac",
          "transactionHash": "0xdb9cd114a25e020edcfc488fb205b2f8d1851bb0a2fe9bd5ace7a872ec627d87",
          "transactionIndex": "0x35",
          "logIndex": "0x9b",
          "removed": false
        },
        {
          "address": "0x3f803ec2b816ea7f06ec76aa2b6f2532f9892d62",
          "topics": [
            "0xd78ad95fa46c994b6551d0da85fc275fe613ce37657fb8d5e3d130840159d822",
            "0x0000000000000000000000007aed02aefb5df67414427a6b2abf4613264bac4a",
            "0x00000000000000000000000061eb789d75a95caa3ff50ed7e47b96c132fec082"
          ],
          "data": "0x000000000000000000000000000000000000000000000001235cc866a059be1c000000000000000000000000000000000000000000000000000000000000000000000000000000000000000000000000000000000000000000000000000000000000000000000000000000000000000000000000000000000000c2940c5be944",
          "blockHash": "0x6e41b44fbde15bd7523b2eb7cbf52537e6e02c8a57bf5b018b0e3b8cc71ac26f",
          "blockNumber": "0x2b668ac",
          "transactionHash": "0xdb9cd114a25e020edcfc488fb205b2f8d1851bb0a2fe9bd5ace7a872ec627d87",
          "transactionIndex": "0x35",
          "logIndex": "0x9c",
          "removed": false
        },
        {
          "address": "0xbb4cdb9cbd36b01bd1cbaebf2de08d9173bc095c",
          "topics": [
            "0xddf252ad1be2c89b69c2b068fc378daa952ba7f163c4a11628f55a4df523b3ef",
            "0x00000000000000000000000061eb789d75a95caa3ff50ed7e47b96c132fec082",
            "0x0000000000000000000000007aed02aefb5df67414427a6b2abf4613264bac4a"
          ],
          "data": "0x00000000000000000000000000000000000000000000000000694bf86ee7f6bb",
          "blockHash": "0x6e41b44fbde15bd7523b2eb7cbf52537e6e02c8a57bf5b018b0e3b8cc71ac26f",
          "blockNumber": "0x2b668ac",
          "transactionHash": "0xdb9cd114a25e020edcfc488fb205b2f8d1851bb0a2fe9bd5ace7a872ec627d87",
          "transactionIndex": "0x35",
          "logIndex": "0x9d",
          "removed": false
        },
        {
          "address": "0x61eb789d75a95caa3ff50ed7e47b96c132fec082",
          "topics": [
            "0x1c411e9a96e071241c2f21f7726b17ae89e3cab4c78be50e062b03a9fffbbad1"
          ],
          "data": "0x0000000000000000000000000000000000000000000000011c4f72851b53250b00000000000000000000000000000000000000000000009a3d540b724cc6f649",
          "blockHash": "0x6e41b44fbde15bd7523b2eb7cbf52537e6e02c8a57bf5b018b0e3b8cc71ac26f",
          "blockNumber": "0x2b668ac",
          "transactionHash": "0xdb9cd114a25e020edcfc488fb205b2f8d1851bb0a2fe9bd5ace7a872ec627d87",
          "transactionIndex": "0x35",
          "logIndex": "0x9e",
          "removed": false
        },
        {
          "address": "0x61eb789d75a95caa3ff50ed7e47b96c132fec082",
          "topics": [
            "0xd78ad95fa46c994b6551d0da85fc275fe613ce37657fb8d5e3d130840159d822",
            "0x0000000000000000000000007aed02aefb5df67414427a6b2abf4613264bac4a",
            "0x0000000000000000000000007aed02aefb5df67414427a6b2abf4613264bac4a"
          ],
          "data": "0x0000000000000000000000000000000000000000000000000000c2940c5be9440000000000000000000000000000000000000000000000000000000000000000000000000000000000000000000000000000000000000000000000000000000000000000000000000000000000000000000000000000000000694bf86ee7f6bb",
          "blockHash": "0x6e41b44fbde15bd7523b2eb7cbf52537e6e02c8a57bf5b018b0e3b8cc71ac26f",
          "blockNumber": "0x2b668ac",
          "transactionHash": "0xdb9cd114a25e020edcfc488fb205b2f8d1851bb0a2fe9bd5ace7a872ec627d87",
          "transactionIndex": "0x35",
          "logIndex": "0x9f",
          "removed": false
        },
        {
          "address": "0xbb4cdb9cbd36b01bd1cbaebf2de08d9173bc095c",
          "topics": [
            "0x7fcf532c15f0a6db0bd6d0e038bea71d30d808c7d98cb3bf7268a95bf5081b65",
            "0x0000000000000000000000007aed02aefb5df67414427a6b2abf4613264bac4a"
          ],
          "data": "0x00000000000000000000000000000000000000000000000000694bf86ee7f6bb",
          "blockHash": "0x6e41b44fbde15bd7523b2eb7cbf52537e6e02c8a57bf5b018b0e3b8cc71ac26f",
          "blockNumber": "0x2b668ac",
          "transactionHash": "0xdb9cd114a25e020edcfc488fb205b2f8d1851bb0a2fe9bd5ace7a872ec627d87",
          "transactionIndex": "0x35",
          "logIndex": "0xa0",
          "removed": false
        }
      ],
      "logsBloom": "0x00210000000000000000000084000000000000000000800000000000000000008000000000400000400000000000000000010000800000010000000000280000000000000000000001004108000000200080040000400802000400000201040000000000000000000000000000000000000000000000240000000010000000800005004000000000008000008000000400040800004000082000004000000000020000004000000000000000001004000400000000000000000000000000000000040002000000000000000000000000200000000000001000000002000080000010000000000002000008000000000000000008000100000000004200000401",
      "type": "0x0",
      "transactionHash": "0xdb9cd114a25e020edcfc488fb205b2f8d1851bb0a2fe9bd5ace7a872ec627d87",
      "transactionIndex": "0x35",
      "blockHash": "0x6e41b44fbde15bd7523b2eb7cbf52537e6e02c8a57bf5b018b0e3b8cc71ac26f",
      "blockNumber": "0x2b668ac",
      "gasUsed": "0x437e0",
      "effectiveGasPrice": "0x3b9aca00",
      "from": "0x7c5ca1018f9312442bff33a7a63f9436824d98e6",
      "to": "0x7aed02aefb5df67414427a6b2abf4613264bac4a",
      "contractAddress": null
    }
  ],
  "libraries": [],
  "pending": [],
  "returns": {},
  "timestamp": 1736107511,
  "chain": 56,
  "commit": "8d1fa32"
}