{
  "transactions": [
    {
      "hash": "0x4d1155b6387a4cb20747467b4ca424f4acd1378eb817d189dfc0735536eb2d5c",
      "transactionType": "CALL",
      "contractName": null,
      "contractAddress": "0x1628d966d33b32f9a97ef7bb773546e363c19b26",
      "function": "execute(bytes,bytes[],uint256)",
      "arguments": [
        "0x0b18",
        "[0x00000000000000000000000000000000000000000000000000000000000000028000000000000000000000000000000000000000000000000000000000000000, 0x000000000000000000000000000000000000000000000000000000000000000100000000000000000000000000000000000000000000000000038d7ea4c6800000000000000000000000000000000000000000000000000006f05b59d3b2000000000000000000000000000000000000000000000000000000000000000000a000000000000000000000000000000000000000000000000000000000000000000000000000000000000000000000000000000000000000000000000000000002000000000000000000000000bb4cdb9cbd36b01bd1cbaebf2de08d9173bc095c00000000000000000000000055d398326f99059ff775485246999027b3197955]",
        "4894834599"
      ],
      "transaction": {
        "from": "0x6007723dac9bb830f622bb4561e8017f021b9fb5",
        "to": "0x1628d966d33b32f9a97ef7bb773546e363c19b26",
        "gas": "0x2b4e5",
        "value": "0x38d7ea4c68000",
        "input": "0x3593564c000000000000000000000000000000000000000000000000000000000000006000000000000000000000000000000000000000000000000000000000000000a00000000000000000000000000000000000000000000000000000000123c13fa700000000000000000000000000000000000000000000000000000000000000020b180000000000000000000000000000000000000000000000000000000000000000000000000000000000000000000000000000000000000000000000000002000000000000000000000000000000000000000000000000000000000000004000000000000000000000000000000000000000000000000000000000000000a00000000000000000000000000000000000000000000000000000000000000040000000000000000000000000000000000000000000000000000000000000000280000000000000000000000000000000000000000000000000000000000000000000000000000000000000000000000000000000000000000000000000000100000000000000000000000000000000000000000000000000000000000000000100000000000000000000000000000000000000000000000000038d7ea4c6800000000000000000000000000000000000000000000000000006f05b59d3b2000000000000000000000000000000000000000000000000000000000000000000a000000000000000000000000000000000000000000000000000000000000000000000000000000000000000000000000000000000000000000000000000000002000000000000000000000000bb4cdb9cbd36b01bd1cbaebf2de08d9173bc095c00000000000000000000000055d398326f99059ff775485246999027b3197955",
        "nonce": "0xa",
        "chainId": "0x38"
      },
      "additionalContracts": [],
      "isFixedGasLimit": false
    }
  ],
  "receipts": [
    {
      "status": "0x1",
      "cumulativeGasUsed": "0xc8bc3b",
      "logs": [
        {
          "address": "0xbb4cdb9cbd36b01bd1cbaebf2de08d9173bc095c",
          "topics": [
            "0xe1fffcc4923d04b559f4d29a8bfc6cda04eb5b0d3c460751c2402c5c5cc9109c",
            "0x0000000000000000000000001628d966d33b32f9a97ef7bb773546e363c19b26"
          ],
          "data": "0x00000000000000000000000000000000000000000000000000038d7ea4c68000",
          "blockHash": "0x04370b00da1acff6edafbdb9e4c22f29c95d85f20199d263915c9d35938b492b",
          "blockNumber": "0x2c616b7",
          "transactionHash": "0x4d1155b6387a4cb20747467b4ca424f4acd1378eb817d189dfc0735536eb2d5c",
          "transactionIndex": "0x87",
          "logIndex": "0x15c",
          "removed": false
        },
        {
          "address": "0xbb4cdb9cbd36b01bd1cbaebf2de08d9173bc095c",
          "topics": [
            "0xddf252ad1be2c89b69c2b068fc378daa952ba7f163c4a11628f55a4df523b3ef",
            "0x0000000000000000000000001628d966d33b32f9a97ef7bb773546e363c19b26",
            "0x00000000000000000000000016b9a82891338f9ba80e2d6970fdda79d1eb0dae"
          ],
          "data": "0x00000000000000000000000000000000000000000000000000038d7ea4c68000",
          "blockHash": "0x04370b00da1acff6edafbdb9e4c22f29c95d85f20199d263915c9d35938b492b",
          "blockNumber": "0x2c616b7",
          "transactionHash": "0x4d1155b6387a4cb20747467b4ca424f4acd1378eb817d189dfc0735536eb2d5c",
          "transactionIndex": "0x87",
          "logIndex": "0x15d",
          "removed": false
        },
        {
          "address": "0x55d398326f99059ff775485246999027b3197955",
          "topics": [
            "0xddf252ad1be2c89b69c2b068fc378daa952ba7f163c4a11628f55a4df523b3ef",
            "0x00000000000000000000000016b9a82891338f9ba80e2d6970fdda79d1eb0dae",
            "0x0000000000000000000000006007723dac9bb830f622bb4561e8017f021b9fb5"
          ],
          "data": "0x00000000000000000000000000000000000000000000000008647022cd6b94ec",
          "blockHash": "0x04370b00da1acff6edafbdb9e4c22f29c95d85f20199d263915c9d35938b492b",
          "blockNumber": "0x2c616b7",
          "transactionHash": "0x4d1155b6387a4cb20747467b4ca424f4acd1378eb817d189dfc0735536eb2d5c",
          "transactionIndex": "0x87",
          "logIndex": "0x15e",
          "removed": false
        },
        {
          "address": "0x16b9a82891338f9ba80e2d6970fdda79d1eb0dae",
          "topics": [
            "0x1c411e9a96e071241c2f21f7726b17ae89e3cab4c78be50e062b03a9fffbbad1"
          ],
          "data": "0x00000000000000000000000000000000000000000009f8a6696013e3b248f640000000000000000000000000000000000000000000000435e85aad3356a981aa",
          "blockHash": "0x04370b00da1acff6edafbdb9e4c22f29c95d85f20199d263915c9d35938b492b",
          "blockNumber": "0x2c616b7",
          "transactionHash": "0x4d1155b6387a4cb20747467b4ca424f4acd1378eb817d189dfc0735536eb2d5c",
          "transactionIndex": "0x87",
          "logIndex": "0x15f",
          "removed": false
        },
        {
          "address": "0x16b9a82891338f9ba80e2d6970fdda79d1eb0dae",
          "topics": [
            "0xd78ad95fa46c994b6551d0da85fc275fe613ce37657fb8d5e3d130840159d822",
            "0x0000000000000000000000001628d966d33b32f9a97ef7bb773546e363c19b26",
            "0x0000000000000000000000006007723dac9bb830f622bb4561e8017f021b9fb5"
          ],
          "data": "0x000000000000000000000000000000000000000000000000000000000000000000000000000000000000000000000000000000000000000000038d7ea4c6800000000000000000000000000000000000000000000000000008647022cd6b94ec0000000000000000000000000000000000000000000000000000000000000000",
          "blockHash": "0x04370b00da1acff6edafbdb9e4c22f29c95d85f20199d263915c9d35938b492b",
          "blockNumber": "0x2c616b7",
          "transactionHash": "0x4d1155b6387a4cb20747467b4ca424f4acd1378eb817d189dfc0735536eb2d5c",
          "transactionIndex": "0x87",
          "logIndex": "0x160",
          "removed": false
        }
      ],
      "logsBloom": "0x00200000000000000000000081000000000000100000000000000000000000800000000000001000200000000000000000000000000000000000000000000000000000000000000001000008000000200000000000002800000400008000000000000000000000000000000000000000000000400000000000000010000000000000000000000000008000000000000000040005000000080100004000000000000000000000000000000002000000000000000000000000000000000000000000000002000000000000000000000000200000000000001000000000000080000000000000000000000000000000000000000400000000400000000000000000",
      "type": "0x0",
      "transactionHash": "0x4d1155b6387a4cb20747467b4ca424f4acd1378eb817d189dfc0735536eb2d5c",
      "transactionIndex": "0x87",
      "blockHash": "0x04370b00da1acff6edafbdb9e4c22f29c95d85f20199d263915c9d35938b492b",
      "blockNumber": "0x2c616b7",
      "gasUsed": "0x1ccb1",
      "effectiveGasPrice": "0x3b9aca00",
      "from": "0x6007723dac9bb830f622bb4561e8017f021b9fb5",
      "to": "0x1628d966d33b32f9a97ef7bb773546e363c19b26",
      "contractAddress": null
    }
  ],
  "libraries": [],
  "pending": [],
  "returns": {},
  "timestamp": 1739190522,
  "chain": 56,
  "commit": "2641398"
}