{
  "transactions": [
    {
      "hash": "0x3f52a23eca32f809836d1780b0c9acd70356e94d2f14ba6c4f6c257a7cc42ff1",
      "transactionType": "CALL",
      "contractName": null,
      "contractAddress": "0x1628d966d33b32f9a97ef7bb773546e363c19b26",
      "function": "execute(bytes,bytes[],uint256)",
      "arguments": [
        "0x0b18",
        "[0x00000000000000000000000000000000000000000000000000000000000000028000000000000000000000000000000000000000000000000000000000000000, 0x0000000000000000000000000000000000000000000000000000000000000001000000000000000000000000000000000000000000000000006a94d74f430000000000000000000000000000000000000000000000000000000000000000000000000000000000000000000000000000000000000000000000000000000000a000000000000000000000000000000000000000000000000000000000000000000000000000000000000000000000000000000000000000000000000000000004000000000000000000000000bb4cdb9cbd36b01bd1cbaebf2de08d9173bc095c0000000000000000000000007130d2a12b9bcbfae4f2634d864a1ee1ce3ead9c00000000000000000000000055d398326f99059ff775485246999027b31979550000000000000000000000000e09fabb73bd3ade0a17ecc321fd13a19e81ce82]",
        "1737376489"
      ],
      "transaction": {
        "from": "0x7c5ca1018f9312442bff33a7a63f9436824d98e6",
        "to": "0x1628d966d33b32f9a97ef7bb773546e363c19b26",
        "gas": "0x51b6c",
        "value": "0x6a94d74f430000",
        "input": "0x3593564c000000000000000000000000000000000000000000000000000000000000006000000000000000000000000000000000000000000000000000000000000000a000000000000000000000000000000000000000000000000000000000678e42e900000000000000000000000000000000000000000000000000000000000000020b180000000000000000000000000000000000000000000000000000000000000000000000000000000000000000000000000000000000000000000000000002000000000000000000000000000000000000000000000000000000000000004000000000000000000000000000000000000000000000000000000000000000a000000000000000000000000000000000000000000000000000000000000000400000000000000000000000000000000000000000000000000000000000000002800000000000000000000000000000000000000000000000000000000000000000000000000000000000000000000000000000000000000000000000000001400000000000000000000000000000000000000000000000000000000000000001000000000000000000000000000000000000000000000000006a94d74f430000000000000000000000000000000000000000000000000000000000000000000000000000000000000000000000000000000000000000000000000000000000a000000000000000000000000000000000000000000000000000000000000000000000000000000000000000000000000000000000000000000000000000000004000000000000000000000000bb4cdb9cbd36b01bd1cbaebf2de08d9173bc095c0000000000000000000000007130d2a12b9bcbfae4f2634d864a1ee1ce3ead9c00000000000000000000000055d398326f99059ff775485246999027b31979550000000000000000000000000e09fabb73bd3ade0a17ecc321fd13a19e81ce82",
        "nonce": "0x8",
        "chainId": "0x38"
      },
      "additionalContracts": [],
      "isFixedGasLimit": false
    }
  ],
  "receipts": [
    {
      "status": "0x1",
      "cumulativeGasUsed": "0x1331e72",
      "logs": [
        {
          "address": "0xbb4cdb9cbd36b01bd1cbaebf2de08d9173bc095c",
          "topics": [
            "0xe1fffcc4923d04b559f4d29a8bfc6cda04eb5b0d3c460751c2402c5c5cc9109c",
            "0x0000000000000000000000001628d966d33b32f9a97ef7bb773546e363c19b26"
          ],
          "data": "0x000000000000000000000000000000000000000000000000006a94d74f430000",
          "blockHash": "0xc9478dfa2bfb64c9afe9722eeda04543b3fd99006bf6cf97e5a96f9360a06eb7",
          "blockNumber": "0x2bcdcbf",
          "transactionHash": "0x3f52a23eca32f809836d1780b0c9acd70356e94d2f14ba6c4f6c257a7cc42ff1",
          "transactionIndex": "0xdc",
          "logIndex": "0x1fd",
          "removed": false
        },
        {
          "address": "0xbb4cdb9cbd36b01bd1cbaebf2de08d9173bc095c",
          "topics": [
            "0xddf252ad1be2c89b69c2b068fc378daa952ba7f163c4a11628f55a4df523b3ef",
            "0x0000000000000000000000001628d966d33b32f9a97ef7bb773546e363c19b26",
            "0x00000000000000000000000061eb789d75a95caa3ff50ed7e47b96c132fec082"
          ],
          "data": "0x000000000000000000000000000000000000000000000000006a94d74f430000",
          "blockHash": "0xc9478dfa2bfb64c9afe9722eeda04543b3fd99006bf6cf97e5a96f9360a06eb7",
          "blockNumber": "0x2bcdcbf",
          "transactionHash": "0x3f52a23eca32f809836d1780b0c9acd70356e94d2f14ba6c4f6c257a7cc42ff1",
          "transactionIndex": "0xdc",
          "logIndex": "0x1fe",
          "removed": false
        },
        {
          "address": "0x7130d2a12b9bcbfae4f2634d864a1ee1ce3ead9c",
          "topics": [
            "0xddf252ad1be2c89b69c2b068fc378daa952ba7f163c4a11628f55a4df523b3ef",
            "0x00000000000000000000000061eb789d75a95caa3ff50ed7e47b96c132fec082",
            "0x0000000000000000000000003f803ec2b816ea7f06ec76aa2b6f2532f9892d62"
          ],
          "data": "0x0000000000000000000000000000000000000000000000000000b07b80a876cd",
          "blockHash": "0xc9478dfa2bfb64c9afe9722eeda04543b3fd99006bf6cf97e5a96f9360a06eb7",
          "blockNumber": "0x2bcdcbf",
          "transactionHash": "0x3f52a23eca32f809836d1780b0c9acd70356e94d2f14ba6c4f6c257a7cc42ff1",
          "transactionIndex": "0xdc",
          "logIndex": "0x1ff",
          "removed": false
        },
        {
          "address": "0x61eb789d75a95caa3ff50ed7e47b96c132fec082",
          "topics": [
            "0x1c411e9a96e071241c2f21f7726b17ae89e3cab4c78be50e062b03a9fffbbad1"
          ],
          "data": "0x0000000000000000000000000000000000000000000000010bbd96979c5fd15e0000000000000000000000000000000000000000000000a14a9f5b65b5ddd956",
          "blockHash": "0xc9478dfa2bfb64c9afe9722eeda04543b3fd99006bf6cf97e5a96f9360a06eb7",
          "blockNumber": "0x2bcdcbf",
          "transactionHash": "0x3f52a23eca32f809836d1780b0c9acd70356e94d2f14ba6c4f6c257a7cc42ff1",
          "transactionIndex": "0xdc",
          "logIndex": "0x200",
          "removed": false
        },
        {
          "address": "0x61eb789d75a95caa3ff50ed7e47b96c132fec082",
          "topics": [
            "0xd78ad95fa46c994b6551d0da85fc275fe613ce37657fb8d5e3d130840159d822",
            "0x0000000000000000000000001628d966d33b32f9a97ef7bb773546e363c19b26",
            "0x0000000000000000000000003f803ec2b816ea7f06ec76aa2b6f2532f9892d62"
          ],
          "data": "0x0000000000000000000000000000000000000000000000000000000000000000000000000000000000000000000000000000000000000000006a94d74f4300000000000000000000000000000000000000000000000000000000b07b80a876cd0000000000000000000000000000000000000000000000000000000000000000",
          "blockHash": "0xc9478dfa2bfb64c9afe9722eeda04543b3fd99006bf6cf97e5a96f9360a06eb7",
          "blockNumber": "0x2bcdcbf",
          "transactionHash": "0x3f52a23eca32f809836d1780b0c9acd70356e94d2f14ba6c4f6c257a7cc42ff1",
          "transactionIndex": "0xdc",
          "logIndex": "0x201",
          "removed": false
        },
        {
          "address": "0x55d398326f99059ff775485246999027b3197955",
          "topics": [
            "0xddf252ad1be2c89b69c2b068fc378daa952ba7f163c4a11628f55a4df523b3ef",
            "0x0000000000000000000000003f803ec2b816ea7f06ec76aa2b6f2532f9892d62",
            "0x000000000000000000000000a39af17ce4a8eb807e076805da1e2b8ea7d0755b"
          ],
          "data": "0x0000000000000000000000000000000000000000000000011e8cb68e9efc1263",
          "blockHash": "0xc9478dfa2bfb64c9afe9722eeda04543b3fd99006bf6cf97e5a96f9360a06eb7",
          "blockNumber": "0x2bcdcbf",
          "transactionHash": "0x3f52a23eca32f809836d1780b0c9acd70356e94d2f14ba6c4f6c257a7cc42ff1",
          "transactionIndex": "0xdc",
          "logIndex": "0x202",
          "removed": false
        },
        {
          "address": "0x3f803ec2b816ea7f06ec76aa2b6f2532f9892d62",
          "topics": [
            "0x1c411e9a96e071241c2f21f7726b17ae89e3cab4c78be50e062b03a9fffbbad1"
          ],
          "data": "0x00000000000000000000000000000000000000000000139f39f8b639af2788520000000000000000000000000000000000000000000000000c0eb2e29deb510a",
          "blockHash": "0xc9478dfa2bfb64c9afe9722eeda04543b3fd99006bf6cf97e5a96f9360a06eb7",
          "blockNumber": "0x2bcdcbf",
          "transactionHash": "0x3f52a23eca32f809836d1780b0c9acd70356e94d2f14ba6c4f6c257a7cc42ff1",
          "transactionIndex": "0xdc",
          "logIndex": "0x203",
          "removed": false
        },
        {
          "address": "0x3f803ec2b816ea7f06ec76aa2b6f2532f9892d62",
          "topics": [
            "0xd78ad95fa46c994b6551d0da85fc275fe613ce37657fb8d5e3d130840159d822",
            "0x0000000000000000000000001628d966d33b32f9a97ef7bb773546e363c19b26",
            "0x000000000000000000000000a39af17ce4a8eb807e076805da1e2b8ea7d0755b"
          ],
          "data": "0x00000000000000000000000000000000000000000000000000000000000000000000000000000000000000000000000000000000000000000000b07b80a876cd0000000000000000000000000000000000000000000000011e8cb68e9efc12630000000000000000000000000000000000000000000000000000000000000000",
          "blockHash": "0xc9478dfa2bfb64c9afe9722eeda04543b3fd99006bf6cf97e5a96f9360a06eb7",
          "blockNumber": "0x2bcdcbf",
          "transactionHash": "0x3f52a23eca32f809836d1780b0c9acd70356e94d2f14ba6c4f6c257a7cc42ff1",
          "transactionIndex": "0xdc",
          "logIndex": "0x204",
          "removed": false
        },
        {
          "address": "0x0e09fabb73bd3ade0a17ecc321fd13a19e81ce82",
          "topics": [
            "0xddf252ad1be2c89b69c2b068fc378daa952ba7f163c4a11628f55a4df523b3ef",
            "0x000000000000000000000000a39af17ce4a8eb807e076805da1e2b8ea7d0755b",
            "0x0000000000000000000000007c5ca1018f9312442bff33a7a63f9436824d98e6"
          ],
          "data": "0x00000000000000000000000000000000000000000000000080beda239c38566a",
          "blockHash": "0xc9478dfa2bfb64c9afe9722eeda04543b3fd99006bf6cf97e5a96f9360a06eb7",
          "blockNumber": "0x2bcdcbf",
          "transactionHash": "0x3f52a23eca32f809836d1780b0c9acd70356e94d2f14ba6c4f6c257a7cc42ff1",
          "transactionIndex": "0xdc",
          "logIndex": "0x205",
          "removed": false
        },
        {
          "address": "0xa39af17ce4a8eb807e076805da1e2b8ea7d0755b",
          "topics": [
            "0x1c411e9a96e071241c2f21f7726b17ae89e3cab4c78be50e062b03a9fffbbad1"
          ],
          "data": "0x000000000000000000000000000000000000000000003208e9c0fee59b903c75000000000000000000000000000000000000000000006f16b8a0ce613ee93b0b",
          "blockHash": "0xc9478dfa2bfb64c9afe9722eeda04543b3fd99006bf6cf97e5a96f9360a06eb7",
          "blockNumber": "0x2bcdcbf",
          "transactionHash": "0x3f52a23eca32f809836d1780b0c9acd70356e94d2f14ba6c4f6c257a7cc42ff1",
          "transactionIndex": "0xdc",
          "logIndex": "0x206",
          "removed": false
        },
        {
          "address": "0xa39af17ce4a8eb807e076805da1e2b8ea7d0755b",
          "topics": [
            "0xd78ad95fa46c994b6551d0da85fc275fe613ce37657fb8d5e3d130840159d822",
            "0x0000000000000000000000001628d966d33b32f9a97ef7bb773546e363c19b26",
            "0x0000000000000000000000007c5ca1018f9312442bff33a7a63f9436824d98e6"
          ],
          "data": "0x00000000000000000000000000000000000000000000000000000000000000000000000000000000000000000000000000000000000000011e8cb68e9efc126300000000000000000000000000000000000000000000000080beda239c38566a0000000000000000000000000000000000000000000000000000000000000000",
          "blockHash": "0xc9478dfa2bfb64c9afe9722eeda04543b3fd99006bf6cf97e5a96f9360a06eb7",
          "blockNumber": "0x2bcdcbf",
          "transactionHash": "0x3f52a23eca32f809836d1780b0c9acd70356e94d2f14ba6c4f6c257a7cc42ff1",
          "transactionIndex": "0xdc",
          "logIndex": "0x207",
          "removed": false
        }
      ],
      "logsBloom": "0x00200000000000000000000080000000000000100000800000000000000000800000000000400000400000000000000000000000000000010000000000000000000000000000000001000108000000200080040000000002000400008201040000000000000000000000000000000000000000000000200000000010000000000001000000000000008000008000000400040801004000082000004000000000000000004000000000000002001004000000000000000000000000000000000000040002000000000000000000000000200000000000001000000000000080000000000000000002000008000000000000000008000100400000004000000000",
      "type": "0x0",
      "transactionHash": "0x3f52a23eca32f809836d1780b0c9acd70356e94d2f14ba6c4f6c257a7cc42ff1",
      "transactionIndex": "0xdc",
      "blockHash": "0xc9478dfa2bfb64c9afe9722eeda04543b3fd99006bf6cf97e5a96f9360a06eb7",
      "blockNumber": "0x2bcdcbf",
      "gasUsed": "0x3b28e",
      "effectiveGasPrice": "0x3b9aca00",
      "from": "0x7c5ca1018f9312442bff33a7a63f9436824d98e6",
      "to": "0x1628d966d33b32f9a97ef7bb773546e363c19b26",
      "contractAddress": null
    }
  ],
  "libraries": [],
  "pending": [],
  "returns": {},
  "timestamp": 1737376422,
  "chain": 56,
  "commit": "637d5dc"
}