{
  "transactions": [
    {
      "hash": "0x94262bb902949d286390afa335fc4bed74feed8f3b5d23cca6fbc1bbb8a9f5bd",
      "transactionType": "CALL",
      "contractName": null,
      "contractAddress": "0xbb4cdb9cbd36b01bd1cbaebf2de08d9173bc095c",
      "function": "approve(address,uint256)",
      "arguments": [
        "0x000000000022D473030F116dDEE9F6B43aC78BA3",
        "115792089237316195423570985008687907853269984665640564039457584007913129639935"
      ],
      "transaction": {
        "from": "0x6007723dac9bb830f622bb4561e8017f021b9fb5",
        "to": "0xbb4cdb9cbd36b01bd1cbaebf2de08d9173bc095c",
        "gas": "0xf9d5",
        "value": "0x0",
        "input": "0x095ea7b3000000000000000000000000000000000022d473030f116ddee9f6b43ac78ba3ffffffffffffffffffffffffffffffffffffffffffffffffffffffffffffffff",
        "nonce": "0x1",
        "chainId": "0x38"
      },
      "additionalContracts": [],
      "isFixedGasLimit": false
    },
    {
      "hash": "0xb5379155350251fd496c2ec3beff17843ddd67e69f2844d0bfa2a54347cb1925",
      "transactionType": "CALL",
      "contractName": null,
      "contractAddress": "0x1628d966d33b32f9a97ef7bb773546e363c19b26",
      "function": "execute(bytes,bytes[],uint256)",
      "arguments": [
        "0x0a020c",
        "[0x000000000000000000000000bb4cdb9cbd36b01bd1cbaebf2de08d9173bc095c0000000000000000000000000000000000000000000000000011c37937e080000000000000000000000000000000000000000000000000000000000067987be400000000000000000000000000000000000000000000000000000000000000000000000000000000000000001628d966d33b32f9a97ef7bb773546e363c19b260000000000000000000000000000000000000000000000000000000067987be400000000000000000000000000000000000000000000000000000000000000e00000000000000000000000000000000000000000000000000000000000000041f2574d1a4dec598d0a06e3dcdb713c2a2f34f6a8de872fa25a425b1fb85b62de6bca5a214740161d335383067038a8223551c33eff251dd2b7ac7956263c11491b00000000000000000000000000000000000000000000000000000000000000, 0x000000000000000000000000bb4cdb9cbd36b01bd1cbaebf2de08d9173bc095c00000000000000000000000000000000000000000000000000000000000000020000000000000000000000000000000000000000000000000011c37937e08000, 0x00000000000000000000000000000000000000000000000000000000000000010000000000000000000000000000000000000000000000000000000000000001]",
        "1738046436"
      ],
      "transaction": {
        "from": "0x6007723dac9bb830f622bb4561e8017f021b9fb5",
        "to": "0x1628d966d33b32f9a97ef7bb773546e363c19b26",
        "gas": "0x23616",
        "value": "0x0",
        "input": "0x3593564c000000000000000000000000000000000000000000000000000000000000006000000000000000000000000000000000000000000000000000000000000000a00000000000000000000000000000000000000000000000000000000067987be400000000000000000000000000000000000000000000000000000000000000030a020c00000000000000000000000000000000000000000000000000000000000000000000000000000000000000000000000000000000000000000000000003000000000000000000000000000000000000000000000000000000000000006000000000000000000000000000000000000000000000000000000000000001e000000000000000000000000000000000000000000000000000000000000002600000000000000000000000000000000000000000000000000000000000000160000000000000000000000000bb4cdb9cbd36b01bd1cbaebf2de08d9173bc095c0000000000000000000000000000000000000000000000000011c37937e080000000000000000000000000000000000000000000000000000000000067987be400000000000000000000000000000000000000000000000000000000000000000000000000000000000000001628d966d33b32f9a97ef7bb773546e363c19b260000000000000000000000000000000000000000000000000000000067987be400000000000000000000000000000000000000000000000000000000000000e00000000000000000000000000000000000000000000000000000000000000041f2574d1a4dec598d0a06e3dcdb713c2a2f34f6a8de872fa25a425b1fb85b62de6bca5a214740161d335383067038a8223551c33eff251dd2b7ac7956263c11491b000000000000000000000000000000000000000000000000000000000000000000000000000000000000000000000000000000000000000000000000000060000000000000000000000000bb4cdb9cbd36b01bd1cbaebf2de08d9173bc095c00000000000000000000000000000000000000000000000000000000000000020000000000000000000000000000000000000000000000000011c37937e08000000000000000000000000000000000000000000000000000000000000000004000000000000000000000000000000000000000000000000000000000000000010000000000000000000000000000000000000000000000000000000000000001",
        "nonce": "0x2",
        "chainId": "0x38"
      },
      "additionalContracts": [],
      "isFixedGasLimit": false
    }
  ],
  "receipts": [
    {
      "status": "0x1",
      "cumulativeGasUsed": "0x76f090",
      "logs": [
        {
          "address": "0xbb4cdb9cbd36b01bd1cbaebf2de08d9173bc095c",
          "topics": [
            "0x8c5be1e5ebec7d5bd14f71427d1e84f3dd0314c0f7b2291e5b200ac8c7c3b925",
            "0x0000000000000000000000006007723dac9bb830f622bb4561e8017f021b9fb5",
            "0x000000000000000000000000000000000022d473030f116ddee9f6b43ac78ba3"
          ],
          "data": "0xffffffffffffffffffffffffffffffffffffffffffffffffffffffffffffffff",
          "blockHash": "0xf1e74ef907b434a8cc4e91ac23f706d197f8149acb23328e1965f56e85e21352",
          "blockNumber": "0x2c04509",
          "transactionHash": "0x94262bb902949d286390afa335fc4bed74feed8f3b5d23cca6fbc1bbb8a9f5bd",
          "transactionIndex": "0x43",
          "logIndex": "0x89",
          "removed": false
        }
      ],
      "logsBloom": "0x00000000000000000000000001000000000000000000000000000000000000000000000000000000200000000000000000000000800000000000000000200000000000000000000000004000000000000000000000002800000400000000000000000000000000000000000000000000000000000000000000000000000000000000000000000000000000000000000000040000000000000000000000000000020000000000000000000000000000000000000000000000000000000000000000000000000000000000000000000000000000000000000000000000000080000010000000000000000000000000000000000000000000000000000000000000",
      "type": "0x0",
      "transactionHash": "0x94262bb902949d286390afa335fc4bed74feed8f3b5d23cca6fbc1bbb8a9f5bd",
      "transactionIndex": "0x43",
      "blockHash": "0xf1e74ef907b434a8cc4e91ac23f706d197f8149acb23328e1965f56e85e21352",
      "blockNumber": "0x2c04509",
      "gasUsed": "0xb4e0",
      "effectiveGasPrice": "0x3b9aca00",
      "from": "0x6007723dac9bb830f622bb4561e8017f021b9fb5",
      "to": "0xbb4cdb9cbd36b01bd1cbaebf2de08d9173bc095c",
      "contractAddress": null
    },
    {
      "status": "0x1",
      "cumulativeGasUsed": "0x7b0169",
      "logs": [
        {
          "address": "0x000000000022d473030f116ddee9f6b43ac78ba3",
          "topics": [
            "0xc6a377bfc4eb120024a8ac08eef205be16b817020812c73223e81d1bdb9708ec",
            "0x0000000000000000000000006007723dac9bb830f622bb4561e8017f021b9fb5",
            "0x000000000000000000000000bb4cdb9cbd36b01bd1cbaebf2de08d9173bc095c",
            "0x0000000000000000000000001628d966d33b32f9a97ef7bb773546e363c19b26"
          ],
          "data": "0x0000000000000000000000000000000000000000000000000011c37937e080000000000000000000000000000000000000000000000000000000000067987be40000000000000000000000000000000000000000000000000000000000000000",
          "blockHash": "0xf1e74ef907b434a8cc4e91ac23f706d197f8149acb23328e1965f56e85e21352",
          "blockNumber": "0x2c04509",
          "transactionHash": "0xb5379155350251fd496c2ec3beff17843ddd67e69f2844d0bfa2a54347cb1925",
          "transactionIndex": "0x47",
          "logIndex": "0x92",
          "removed": false
        },
        {
          "address": "0xbb4cdb9cbd36b01bd1cbaebf2de08d9173bc095c",
          "topics": [
            "0xddf252ad1be2c89b69c2b068fc378daa952ba7f163c4a11628f55a4df523b3ef",
            "0x0000000000000000000000006007723dac9bb830f622bb4561e8017f021b9fb5",
            "0x0000000000000000000000001628d966d33b32f9a97ef7bb773546e363c19b26"
          ],
          "data": "0x0000000000000000000000000000000000000000000000000011c37937e08000",
          "blockHash": "0xf1e74ef907b434a8cc4e91ac23f706d197f8149acb23328e1965f56e85e21352",
          "blockNumber": "0x2c04509",
          "transactionHash": "0xb5379155350251fd496c2ec3beff17843ddd67e69f2844d0bfa2a54347cb1925",
          "transactionIndex": "0x47",
          "logIndex": "0x93",
          "removed": false
        },
        {
          "address": "0xbb4cdb9cbd36b01bd1cbaebf2de08d9173bc095c",
          "topics": [
            "0x7fcf532c15f0a6db0bd6d0e038bea71d30d808c7d98cb3bf7268a95bf5081b65",
            "0x0000000000000000000000001628d966d33b32f9a97ef7bb773546e363c19b26"
          ],
          "data": "0x0000000000000000000000000000000000000000000000000011c37937e08000",
          "blockHash": "0xf1e74ef907b434a8cc4e91ac23f706d197f8149acb23328e1965f56e85e21352",
          "blockNumber": "0x2c04509",
          "transactionHash": "0xb5379155350251fd496c2ec3beff17843ddd67e69f2844d0bfa2a54347cb1925",
          "transactionIndex": "0x47",
          "logIndex": "0x94",
          "removed": false
        }
      ],
      "logsBloom": "0x00010000000000000000000001000000000000100000000000000000000000800000000000000000200008800000000000010000000000000000000000080000000000000000000000000008000000000000000000402000000400000000000000000000000000000000000000000000000000000000040000000010000000000000004000000000000000000000000000040000002000000000000000000000000000000000000000000002000000000400000000000000000000000000000000000002000000000000000000000000000000000000000000000002000080000000000000000000000000000000000000000000000000000000000000000400",
      "type": "0x0",
      "transactionHash": "0xb5379155350251fd496c2ec3beff17843ddd67e69f2844d0bfa2a54347cb1925",
      "transactionIndex": "0x47",
      "blockHash": "0xf1e74ef907b434a8cc4e91ac23f706d197f8149acb23328e1965f56e85e21352",
      "blockNumber": "0x2c04509",
      "gasUsed": "0x18312",
      "effectiveGasPrice": "0x3b9aca00",
      "from": "0x6007723dac9bb830f622bb4561e8017f021b9fb5",
      "to": "0x1628d966d33b32f9a97ef7bb773546e363c19b26",
      "contractAddress": null
    }
  ],
  "libraries": [],
  "pending": [],
  "returns": {},
  "timestamp": 1738046359,
  "chain": 56,
  "commit": "5a0f4d4"
}