{
  "transactions": [
    {
      "hash": "0x20a83af68715509e739ef9d922d3b56da17d08b76a828e0444ba9838265f78b4",
      "transactionType": "CALL",
      "contractName": null,
      "contractAddress": "0x0e09fabb73bd3ade0a17ecc321fd13a19e81ce82",
      "function": "approve(address,uint256)",
      "arguments": [
        "0x000000000022D473030F116dDEE9F6B43aC78BA3",
        "115792089237316195423570985008687907853269984665640564039457584007913129639935"
      ],
      "transaction": {
        "from": "0x6007723dac9bb830f622bb4561e8017f021b9fb5",
        "to": "0x0e09fabb73bd3ade0a17ecc321fd13a19e81ce82",
        "gas": "0xfaba",
        "value": "0x0",
        "input": "0x095ea7b3000000000000000000000000000000000022d473030f116ddee9f6b43ac78ba3ffffffffffffffffffffffffffffffffffffffffffffffffffffffffffffffff",
        "nonce": "0x4",
        "chainId": "0x38"
      },
      "additionalContracts": [],
      "isFixedGasLimit": false
    },
    {
      "hash": "0x8e4293cf0a39b622a9b0b255a68db6337bc95ae31762a35d90ebdb4ad3849777",
      "transactionType": "CALL",
      "contractName": null,
      "contractAddress": "0x1628d966d33b32f9a97ef7bb773546e363c19b26",
      "function": "execute(bytes,bytes[],uint256)",
      "arguments": [
        "0x0a180c",
        "[0x0000000000000000000000000e09fabb73bd3ade0a17ecc321fd13a19e81ce820000000000000000000000000000000000000000000000000e700c11d57eb1720000000000000000000000000000000000000000000000000000000067987e9900000000000000000000000000000000000000000000000000000000000000000000000000000000000000001628d966d33b32f9a97ef7bb773546e363c19b260000000000000000000000000000000000000000000000000000000067987e9900000000000000000000000000000000000000000000000000000000000000e000000000000000000000000000000000000000000000000000000000000000417473f34632412d05b07763024211602098b684f61a06f9d4055d3ed079ff781b03585cb2b2b18b7771b9710a666ff7eaee1ac047022ff3149c9f017c357e4d1b1c00000000000000000000000000000000000000000000000000000000000000, 0x00000000000000000000000000000000000000000000000000000000000000020000000000000000000000000000000000000000000000000e700c11d57eb172000000000000000000000000000000000000000000000000000000000000000000000000000000000000000000000000000000000000000000000000000000a0000000000000000000000000000000000000000000000000000000000000000100000000000000000000000000000000000000000000000000000000000000040000000000000000000000000e09fabb73bd3ade0a17ecc321fd13a19e81ce8200000000000000000000000055d398326f99059ff775485246999027b31979550000000000000000000000007130d2a12b9bcbfae4f2634d864a1ee1ce3ead9c000000000000000000000000bb4cdb9cbd36b01bd1cbaebf2de08d9173bc095c, 0x00000000000000000000000000000000000000000000000000000000000000010000000000000000000000000000000000000000000000000000000000000001]",
        "1738047129"
      ],
      "transaction": {
        "from": "0x6007723dac9bb830f622bb4561e8017f021b9fb5",
        "to": "0x1628d966d33b32f9a97ef7bb773546e363c19b26",
        "gas": "0x62aae",
        "value": "0x0",
        "input": "0x3593564c000000000000000000000000000000000000000000000000000000000000006000000000000000000000000000000000000000000000000000000000000000a00000000000000000000000000000000000000000000000000000000067987e9900000000000000000000000000000000000000000000000000000000000000030a180c00000000000000000000000000000000000000000000000000000000000000000000000000000000000000000000000000000000000000000000000003000000000000000000000000000000000000000000000000000000000000006000000000000000000000000000000000000000000000000000000000000001e0000000000000000000000000000000000000000000000000000000000000034000000000000000000000000000000000000000000000000000000000000001600000000000000000000000000e09fabb73bd3ade0a17ecc321fd13a19e81ce820000000000000000000000000000000000000000000000000e700c11d57eb1720000000000000000000000000000000000000000000000000000000067987e9900000000000000000000000000000000000000000000000000000000000000000000000000000000000000001628d966d33b32f9a97ef7bb773546e363c19b260000000000000000000000000000000000000000000000000000000067987e9900000000000000000000000000000000000000000000000000000000000000e000000000000000000000000000000000000000000000000000000000000000417473f34632412d05b07763024211602098b684f61a06f9d4055d3ed079ff781b03585cb2b2b18b7771b9710a666ff7eaee1ac047022ff3149c9f017c357e4d1b1c00000000000000000000000000000000000000000000000000000000000000000000000000000000000000000000000000000000000000000000000000014000000000000000000000000000000000000000000000000000000000000000020000000000000000000000000000000000000000000000000e700c11d57eb172000000000000000000000000000000000000000000000000000000000000000000000000000000000000000000000000000000000000000000000000000000a0000000000000000000000000000000000000000000000000000000000000000100000000000000000000000000000000000000000000000000000000000000040000000000000000000000000e09fabb73bd3ade0a17ecc321fd13a19e81ce8200000000000000000000000055d398326f99059ff775485246999027b31979550000000000000000000000007130d2a12b9bcbfae4f2634d864a1ee1ce3ead9c000000000000000000000000bb4cdb9cbd36b01bd1cbaebf2de08d9173bc095c000000000000000000000000000000000000000000000000000000000000004000000000000000000000000000000000000000000000000000000000000000010000000000000000000000000000000000000000000000000000000000000001",
        "nonce": "0x5",
        "chainId": "0x38"
      },
      "additionalContracts": [],
      "isFixedGasLimit": false
    }
  ],
  "receipts": [
    {
      "status": "0x1",
      "cumulativeGasUsed": "0x51e5e6",
      "logs": [
        {
          "address": "0x0e09fabb73bd3ade0a17ecc321fd13a19e81ce82",
          "topics": [
            "0x8c5be1e5ebec7d5bd14f71427d1e84f3dd0314c0f7b2291e5b200ac8c7c3b925",
            "0x0000000000000000000000006007723dac9bb830f622bb4561e8017f021b9fb5",
            "0x000000000000000000000000000000000022d473030f116ddee9f6b43ac78ba3"
          ],
          "data": "0xffffffffffffffffffffffffffffffffffffffffffffffffffffffffffffffff",
          "blockHash": "0x4f35ebdc92d131569918dde1e786454ce05b3601bbdd2b9ada58ead23ad8ce92",
          "blockNumber": "0x2c045f5",
          "transactionHash": "0x20a83af68715509e739ef9d922d3b56da17d08b76a828e0444ba9838265f78b4",
          "transactionIndex": "0x3f",
          "logIndex": "0x9d",
          "removed": false
        }
      ],
      "logsBloom": "0x00000000000000000000000001000000000000000000000000000000000000000000000000000000200000000000000000000000800000000000000000200000000000000000000000004000000000000000000000002802000000000000000000000000000000000000000000000000000000000000000000000000000000000000000000000000000000000000000000000000000000002000000000000000020000000000000000000000000000000000000000000000000000000000000000000000000000000000000000000000000000000000000000000000000000000010000000000000000000000000000000000008000000000000000000000000",
      "type": "0x0",
      "transactionHash": "0x20a83af68715509e739ef9d922d3b56da17d08b76a828e0444ba9838265f78b4",
      "transactionIndex": "0x3f",
      "blockHash": "0x4f35ebdc92d131569918dde1e786454ce05b3601bbdd2b9ada58ead23ad8ce92",
      "blockNumber": "0x2c045f5",
      "gasUsed": "0xb586",
      "effectiveGasPrice": "0x3b9aca00",
      "from": "0x6007723dac9bb830f622bb4561e8017f021b9fb5",
      "to": "0x0e09fabb73bd3ade0a17ecc321fd13a19e81ce82",
      "contractAddress": null
    },
    {
      "status": "0x1",
      "cumulativeGasUsed": "0x56d3a0",
      "logs": [
        {
          "address": "0x000000000022d473030f116ddee9f6b43ac78ba3",
          "topics": [
            "0xc6a377bfc4eb120024a8ac08eef205be16b817020812c73223e81d1bdb9708ec",
            "0x0000000000000000000000006007723dac9bb830f622bb4561e8017f021b9fb5",
            "0x0000000000000000000000000e09fabb73bd3ade0a17ecc321fd13a19e81ce82",
            "0x0000000000000000000000001628d966d33b32f9a97ef7bb773546e363c19b26"
          ],
          "data": "0x0000000000000000000000000000000000000000000000000e700c11d57eb1720000000000000000000000000000000000000000000000000000000067987e990000000000000000000000000000000000000000000000000000000000000000",
          "blockHash": "0x4f35ebdc92d131569918dde1e786454ce05b3601bbdd2b9ada58ead23ad8ce92",
          "blockNumber": "0x2c045f5",
          "transactionHash": "0x8e4293cf0a39b622a9b0b255a68db6337bc95ae31762a35d90ebdb4ad3849777",
          "transactionIndex": "0x41",
          "logIndex": "0x9f",
          "removed": false
        },
        {
          "address": "0x0e09fabb73bd3ade0a17ecc321fd13a19e81ce82",
          "topics": [
            "0xddf252ad1be2c89b69c2b068fc378daa952ba7f163c4a11628f55a4df523b3ef",
            "0x0000000000000000000000006007723dac9bb830f622bb4561e8017f021b9fb5",
            "0x000000000000000000000000a39af17ce4a8eb807e076805da1e2b8ea7d0755b"
          ],
          "data": "0x0000000000000000000000000000000000000000000000000e700c11d57eb172",
          "blockHash": "0x4f35ebdc92d131569918dde1e786454ce05b3601bbdd2b9ada58ead23ad8ce92",
          "blockNumber": "0x2c045f5",
          "transactionHash": "0x8e4293cf0a39b622a9b0b255a68db6337bc95ae31762a35d90ebdb4ad3849777",
          "transactionIndex": "0x41",
          "logIndex": "0xa0",
          "removed": false
        },
        {
          "address": "0x0e09fabb73bd3ade0a17ecc321fd13a19e81ce82",
          "topics": [
            "0x8c5be1e5ebec7d5bd14f71427d1e84f3dd0314c0f7b2291e5b200ac8c7c3b925",
            "0x0000000000000000000000006007723dac9bb830f622bb4561e8017f021b9fb5",
            "0x000000000000000000000000000000000022d473030f116ddee9f6b43ac78ba3"
          ],
          "data": "0xfffffffffffffffffffffffffffffffffffffffffffffffff18ff3ee2a814e8d",
          "blockHash": "0x4f35ebdc92d131569918dde1e786454ce05b3601bbdd2b9ada58ead23ad8ce92",
          "blockNumber": "0x2c045f5",
          "transactionHash": "0x8e4293cf0a39b622a9b0b255a68db6337bc95ae31762a35d90ebdb4ad3849777",
          "transactionIndex": "0x41",
          "logIndex": "0xa1",
          "removed": false
        },
        {
          "address": "0x55d398326f99059ff775485246999027b3197955",
          "topics": [
            "0xddf252ad1be2c89b69c2b068fc378daa952ba7f163c4a11628f55a4df523b3ef",
            "0x000000000000000000000000a39af17ce4a8eb807e076805da1e2b8ea7d0755b",
            "0x0000000000000000000000003f803ec2b816ea7f06ec76aa2b6f2532f9892d62"
          ],
          "data": "0x0000000000000000000000000000000000000000000000001c14bfa0e2034f16",
          "blockHash": "0x4f35ebdc92d131569918dde1e786454ce05b3601bbdd2b9ada58ead23ad8ce92",
          "blockNumber": "0x2c045f5",
          "transactionHash": "0x8e4293cf0a39b622a9b0b255a68db6337bc95ae31762a35d90ebdb4ad3849777",
          "transactionIndex": "0x41",
          "logIndex": "0xa2",
          "removed": false
        },
        {
          "address": "0xa39af17ce4a8eb807e076805da1e2b8ea7d0755b",
          "topics": [
            "0x1c411e9a96e071241c2f21f7726b17ae89e3cab4c78be50e062b03a9fffbbad1"
          ],
          "data": "0x0000000000000000000000000000000000000000000033e90b17fac368958e0f000000000000000000000000000000000000000000006537a1b131853ce04b0c",
          "blockHash": "0x4f35ebdc92d131569918dde1e786454ce05b3601bbdd2b9ada58ead23ad8ce92",
          "blockNumber": "0x2c045f5",
          "transactionHash": "0x8e4293cf0a39b622a9b0b255a68db6337bc95ae31762a35d90ebdb4ad3849777",
          "transactionIndex": "0x41",
          "logIndex": "0xa3",
          "removed": false
        },
        {
          "address": "0xa39af17ce4a8eb807e076805da1e2b8ea7d0755b",
          "topics": [
            "0xd78ad95fa46c994b6551d0da85fc275fe613ce37657fb8d5e3d130840159d822",
            "0x0000000000000000000000001628d966d33b32f9a97ef7bb773546e363c19b26",
            "0x0000000000000000000000003f803ec2b816ea7f06ec76aa2b6f2532f9892d62"
          ],
          "data": "0x0000000000000000000000000000000000000000000000000e700c11d57eb172000000000000000000000000000000000000000000000000000000000000000000000000000000000000000000000000000000000000000000000000000000000000000000000000000000000000000000000000000000001c14bfa0e2034f16",
          "blockHash": "0x4f35ebdc92d131569918dde1e786454ce05b3601bbdd2b9ada58ead23ad8ce92",
          "blockNumber": "0x2c045f5",
          "transactionHash": "0x8e4293cf0a39b622a9b0b255a68db6337bc95ae31762a35d90ebdb4ad3849777",
          "transactionIndex": "0x41",
          "logIndex": "0xa4",
          "removed": false
        },
        {
          "address": "0x7130d2a12b9bcbfae4f2634d864a1ee1ce3ead9c",
          "topics": [
            "0xddf252ad1be2c89b69c2b068fc378daa952ba7f163c4a11628f55a4df523b3ef",
            "0x0000000000000000000000003f803ec2b816ea7f06ec76aa2b6f2532f9892d62",
            "0x00000000000000000000000061eb789d75a95caa3ff50ed7e47b96c132fec082"
          ],
          "data": "0x000000000000000000000000000000000000000000000000000011d695b6c092",
          "blockHash": "0x4f35ebdc92d131569918dde1e786454ce05b3601bbdd2b9ada58ead23ad8ce92",
          "blockNumber": "0x2c045f5",
          "transactionHash": "0x8e4293cf0a39b622a9b0b255a68db6337bc95ae31762a35d90ebdb4ad3849777",
          "transactionIndex": "0x41",
          "logIndex": "0xa5",
          "removed": false
        },
        {
          "address": "0x3f803ec2b816ea7f06ec76aa2b6f2532f9892d62",
          "topics": [
            "0x1c411e9a96e071241c2f21f7726b17ae89e3cab4c78be50e062b03a9fffbbad1"
          ],
          "data": "0x0000000000000000000000000000000000000000000012b395fed386a1b0e61d0000000000000000000000000000000000000000000000000be8d23d08530787",
          "blockHash": "0x4f35ebdc92d131569918dde1e786454ce05b3601bbdd2b9ada58ead23ad8ce92",
          "blockNumber": "0x2c045f5",
          "transactionHash": "0x8e4293cf0a39b622a9b0b255a68db6337bc95ae31762a35d90ebdb4ad3849777",
          "transactionIndex": "0x41",
          "logIndex": "0xa6",
          "removed": false
        },
        {
          "address": "0x3f803ec2b816ea7f06ec76aa2b6f2532f9892d62",
          "topics": [
            "0xd78ad95fa46c994b6551d0da85fc275fe613ce37657fb8d5e3d130840159d822",
            "0x0000000000000000000000001628d966d33b32f9a97ef7bb773546e363c19b26",
            "0x00000000000000000000000061eb789d75a95caa3ff50ed7e47b96c132fec082"
          ],
          "data": "0x0000000000000000000000000000000000000000000000001c14bfa0e2034f1600000000000000000000000000000000000000000000000000000000000000000000000000000000000000000000000000000000000000000000000000000000000000000000000000000000000000000000000000000000000011d695b6c092",
          "blockHash": "0x4f35ebdc92d131569918dde1e786454ce05b3601bbdd2b9ada58ead23ad8ce92",
          "blockNumber": "0x2c045f5",
          "transactionHash": "0x8e4293cf0a39b622a9b0b255a68db6337bc95ae31762a35d90ebdb4ad3849777",
          "transactionIndex": "0x41",
          "logIndex": "0xa7",
          "removed": false
        },
        {
          "address": "0xbb4cdb9cbd36b01bd1cbaebf2de08d9173bc095c",
          "topics": [
            "0xddf252ad1be2c89b69c2b068fc378daa952ba7f163c4a11628f55a4df523b3ef",
            "0x00000000000000000000000061eb789d75a95caa3ff50ed7e47b96c132fec082",
            "0x0000000000000000000000001628d966d33b32f9a97ef7bb773546e363c19b26"
          ],
          "data": "0x000000000000000000000000000000000000000000000000000a7fd074a21197",
          "blockHash": "0x4f35ebdc92d131569918dde1e786454ce05b3601bbdd2b9ada58ead23ad8ce92",
          "blockNumber": "0x2c045f5",
          "transactionHash": "0x8e4293cf0a39b622a9b0b255a68db6337bc95ae31762a35d90ebdb4ad3849777",
          "transactionIndex": "0x41",
          "logIndex": "0xa8",
          "removed": false
        },
        {
          "address": "0x61eb789d75a95caa3ff50ed7e47b96c132fec082",
          "topics": [
            "0x1c411e9a96e071241c2f21f7726b17ae89e3cab4c78be50e062b03a9fffbbad1"
          ],
          "data": "0x0000000000000000000000000000000000000000000000010daae8cb7547cbf200000000000000000000000000000000000000000000009f1e921e711a5db1ae",
          "blockHash": "0x4f35ebdc92d131569918dde1e786454ce05b3601bbdd2b9ada58ead23ad8ce92",
          "blockNumber": "0x2c045f5",
          "transactionHash": "0x8e4293cf0a39b622a9b0b255a68db6337bc95ae31762a35d90ebdb4ad3849777",
          "transactionIndex": "0x41",
          "logIndex": "0xa9",
          "removed": false
        },
        {
          "address": "0x61eb789d75a95caa3ff50ed7e47b96c132fec082",
          "topics": [
            "0xd78ad95fa46c994b6551d0da85fc275fe613ce37657fb8d5e3d130840159d822",
            "0x0000000000000000000000001628d966d33b32f9a97ef7bb773546e363c19b26",
            "0x0000000000000000000000001628d966d33b32f9a97ef7bb773546e363c19b26"
          ],
          "data": "0x000000000000000000000000000000000000000000000000000011d695b6c09200000000000000000000000000000000000000000000000000000000000000000000000000000000000000000000000000000000000000000000000000000000000000000000000000000000000000000000000000000000000a7fd074a21197",
          "blockHash": "0x4f35ebdc92d131569918dde1e786454ce05b3601bbdd2b9ada58ead23ad8ce92",
          "blockNumber": "0x2c045f5",
          "transactionHash": "0x8e4293cf0a39b622a9b0b255a68db6337bc95ae31762a35d90ebdb4ad3849777",
          "transactionIndex": "0x41",
          "logIndex": "0xaa",
          "removed": false
        },
        {
          "address": "0xbb4cdb9cbd36b01bd1cbaebf2de08d9173bc095c",
          "topics": [
            "0x7fcf532c15f0a6db0bd6d0e038bea71d30d808c7d98cb3bf7268a95bf5081b65",
            "0x0000000000000000000000001628d966d33b32f9a97ef7bb773546e363c19b26"
          ],
          "data": "0x000000000000000000000000000000000000000000000000000a7fd074a21197",
          "blockHash": "0x4f35ebdc92d131569918dde1e786454ce05b3601bbdd2b9ada58ead23ad8ce92",
          "blockNumber": "0x2c045f5",
          "transactionHash": "0x8e4293cf0a39b622a9b0b255a68db6337bc95ae31762a35d90ebdb4ad3849777",
          "transactionIndex": "0x41",
          "logIndex": "0xab",
          "removed": false
        }
      ],
      "logsBloom": "0x00210000000000000000000081000000000000100000800000000000000000808000000000400000600000000000000000010000800000010000000000280000000000000000000001004108000000200080040000402802000400000201040000000000000000000000000000000000000000000000240000000010000000800001004000000000008000008000000000040800004000082000004000000000020000000000000000000002001004000400000000000000000000000000000000000002000000000000000000000000200000000000001000000002000080000010000000000002000008000000000000000008000100000000004000000401",
      "type": "0x0",
      "transactionHash": "0x8e4293cf0a39b622a9b0b255a68db6337bc95ae31762a35d90ebdb4ad3849777",
      "transactionIndex": "0x41",
      "blockHash": "0x4f35ebdc92d131569918dde1e786454ce05b3601bbdd2b9ada58ead23ad8ce92",
      "blockNumber": "0x2c045f5",
      "gasUsed": "0x43771",
      "effectiveGasPrice": "0x3b9aca00",
      "from": "0x6007723dac9bb830f622bb4561e8017f021b9fb5",
      "to": "0x1628d966d33b32f9a97ef7bb773546e363c19b26",
      "contractAddress": null
    }
  ],
  "libraries": [],
  "pending": [],
  "returns": {},
  "timestamp": 1738047066,
  "chain": 56,
  "commit": "5a0f4d4"
}