{
  "transactions": [
    {
      "hash": "0xed1ec464bb0ff538b7b3eec9f1d78ce571e5ebe9df9c7e155135c62a6791c190",
      "transactionType": "CALL",
      "contractName": null,
      "contractAddress": "0x55d398326f99059ff775485246999027b3197955",
      "function": "approve(address,uint256)",
      "arguments": [
        "0x000000000022D473030F116dDEE9F6B43aC78BA3",
        "115792089237316195423570985008687907853269984665640564039457584007913129639935"
      ],
      "transaction": {
        "from": "0x37eab7206192beb1736e42732fbdf85894adc271",
        "to": "0x55d398326f99059ff775485246999027b3197955",
        "gas": "0xfa98",
        "value": "0x0",
        "input": "0x095ea7b3000000000000000000000000000000000022d473030f116ddee9f6b43ac78ba3ffffffffffffffffffffffffffffffffffffffffffffffffffffffffffffffff",
        "nonce": "0x22",
        "chainId": "0x38"
      },
      "additionalContracts": [],
      "isFixedGasLimit": false
    },
    {
      "hash": "0x523651ca95028e94cc745d88a74bfbb9dcc1fe07381332529c36bc23a76a7723",
      "transactionType": "CALL",
      "contractName": null,
      "contractAddress": "0x1628d966d33b32f9a97ef7bb773546e363c19b26",
      "function": "execute(bytes,bytes[],uint256)",
      "arguments": [
        "0x0a18",
        "[0x00000000000000000000000055d398326f99059ff775485246999027b3197955000000000000000000000000000000000000000000000000016345785d8a0000000000000000000000000000000000000000000000000000000000000000000000000000000000000000000000000000000000000000000000000000000000000000000000000000000000001628d966d33b32f9a97ef7bb773546e363c19b260000000000000000000000000000000000000000000000000000000123c13fa700000000000000000000000000000000000000000000000000000000000000e000000000000000000000000000000000000000000000000000000000000000417d667297f2081bab23b307618275a4024e5826f535b2ac8dbc63e56ac73fd70d63714e5c9b22c6e2ae9d37c7d58db880a7ab57b283adb8bcf7eb93127c4b11a01b00000000000000000000000000000000000000000000000000000000000000, 0x0000000000000000000000000000000000000000000000000000000000000001000000000000000000000000000000000000000000000000016345785d8a0000000000000000000000000000000000000000000000000000000000000000000000000000000000000000000000000000000000000000000000000000000000a00000000000000000000000000000000000000000000000000000000000000001000000000000000000000000000000000000000000000000000000000000000200000000000000000000000055d398326f99059ff775485246999027b31979550000000000000000000000000ef2e7602add1733bfdb17ac3094d0421b502ca3]",
        "4894834599"
      ],
      "transaction": {
        "from": "0x37eab7206192beb1736e42732fbdf85894adc271",
        "to": "0x1628d966d33b32f9a97ef7bb773546e363c19b26",
        "gas": "0x3f7e6",
        "value": "0x0",
        "input": "0x3593564c000000000000000000000000000000000000000000000000000000000000006000000000000000000000000000000000000000000000000000000000000000a00000000000000000000000000000000000000000000000000000000123c13fa700000000000000000000000000000000000000000000000000000000000000020a180000000000000000000000000000000000000000000000000000000000000000000000000000000000000000000000000000000000000000000000000002000000000000000000000000000000000000000000000000000000000000004000000000000000000000000000000000000000000000000000000000000001c0000000000000000000000000000000000000000000000000000000000000016000000000000000000000000055d398326f99059ff775485246999027b3197955000000000000000000000000000000000000000000000000016345785d8a0000000000000000000000000000000000000000000000000000000000000000000000000000000000000000000000000000000000000000000000000000000000000000000000000000000000001628d966d33b32f9a97ef7bb773546e363c19b260000000000000000000000000000000000000000000000000000000123c13fa700000000000000000000000000000000000000000000000000000000000000e000000000000000000000000000000000000000000000000000000000000000417d667297f2081bab23b307618275a4024e5826f535b2ac8dbc63e56ac73fd70d63714e5c9b22c6e2ae9d37c7d58db880a7ab57b283adb8bcf7eb93127c4b11a01b0000000000000000000000000000000000000000000000000000000000000000000000000000000000000000000000000000000000000000000000000001000000000000000000000000000000000000000000000000000000000000000001000000000000000000000000000000000000000000000000016345785d8a0000000000000000000000000000000000000000000000000000000000000000000000000000000000000000000000000000000000000000000000000000000000a00000000000000000000000000000000000000000000000000000000000000001000000000000000000000000000000000000000000000000000000000000000200000000000000000000000055d398326f99059ff775485246999027b31979550000000000000000000000000ef2e7602add1733bfdb17ac3094d0421b502ca3",
        "nonce": "0x23",
        "chainId": "0x38"
      },
      "additionalContracts": [],
      "isFixedGasLimit": false
    }
  ],
  "receipts": [
    {
      "status": "0x1",
      "cumulativeGasUsed": "0x1367bda",
      "logs": [
        {
          "address": "0x55d398326f99059ff775485246999027b3197955",
          "topics": [
            "0x8c5be1e5ebec7d5bd14f71427d1e84f3dd0314c0f7b2291e5b200ac8c7c3b925",
            "0x00000000000000000000000037eab7206192beb1736e42732fbdf85894adc271",
            "0x000000000000000000000000000000000022d473030f116ddee9f6b43ac78ba3"
          ],
          "data": "0xffffffffffffffffffffffffffffffffffffffffffffffffffffffffffffffff",
          "blockHash": "0x1cdd89c6b612e67660c81fe89fd6a3c29ce2b00409c4d565867a88b1226c03e4",
          "blockNumber": "0x2c620d0",
          "transactionHash": "0xed1ec464bb0ff538b7b3eec9f1d78ce571e5ebe9df9c7e155135c62a6791c190",
          "transactionIndex": "0xd2",
          "logIndex": "0x1fe",
          "removed": false
        }
      ],
      "logsBloom": "0x08000000000000000000000000000200000000000000000000000000000000000000000000000000000000000000000000000000810000000000000000200000000000000000000001004000000000000000000000000800000000000000000000000000000000000000000000000000000000000000000000000000000000000000000000000000008000000000000000000000000000000000000000000000020000000000000000000000000000000000000000000000000000000000000000000000000000000000000000000000200000000000000000000000000000000010000000000000000000000000000000000000000000000000000000000000",
      "type": "0x0",
      "transactionHash": "0xed1ec464bb0ff538b7b3eec9f1d78ce571e5ebe9df9c7e155135c62a6791c190",
      "transactionIndex": "0xd2",
      "blockHash": "0x1cdd89c6b612e67660c81fe89fd6a3c29ce2b00409c4d565867a88b1226c03e4",
      "blockNumber": "0x2c620d0",
      "gasUsed": "0xb56e",
      "effectiveGasPrice": "0x3b9aca00",
      "from": "0x37eab7206192beb1736e42732fbdf85894adc271",
      "to": "0x55d398326f99059ff775485246999027b3197955",
      "contractAddress": null
    },
    {
      "status": "0x1",
      "cumulativeGasUsed": "0x13ba623",
      "logs": [
        {
          "address": "0x000000000022d473030f116ddee9f6b43ac78ba3",
          "topics": [
            "0xc6a377bfc4eb120024a8ac08eef205be16b817020812c73223e81d1bdb9708ec",
            "0x00000000000000000000000037eab7206192beb1736e42732fbdf85894adc271",
            "0x00000000000000000000000055d398326f99059ff775485246999027b3197955",
            "0x0000000000000000000000001628d966d33b32f9a97ef7bb773546e363c19b26"
          ],
          "data": "0x000000000000000000000000000000000000000000000000016345785d8a000000000000000000000000000000000000000000000000000000000000000000000000000000000000000000000000000000000000000000000000000000000000",
          "blockHash": "0x1cdd89c6b612e67660c81fe89fd6a3c29ce2b00409c4d565867a88b1226c03e4",
          "blockNumber": "0x2c620d0",
          "transactionHash": "0x523651ca95028e94cc745d88a74bfbb9dcc1fe07381332529c36bc23a76a7723",
          "transactionIndex": "0xd8",
          "logIndex": "0x204",
          "removed": false
        },
        {
          "address": "0x55d398326f99059ff775485246999027b3197955",
          "topics": [
            "0xddf252ad1be2c89b69c2b068fc378daa952ba7f163c4a11628f55a4df523b3ef",
            "0x00000000000000000000000037eab7206192beb1736e42732fbdf85894adc271",
            "0x0000000000000000000000009427ed673bcfd398463eba9d04d84f392906354d"
          ],
          "data": "0x000000000000000000000000000000000000000000000000016345785d8a0000",
          "blockHash": "0x1cdd89c6b612e67660c81fe89fd6a3c29ce2b00409c4d565867a88b1226c03e4",
          "blockNumber": "0x2c620d0",
          "transactionHash": "0x523651ca95028e94cc745d88a74bfbb9dcc1fe07381332529c36bc23a76a7723",
          "transactionIndex": "0xd8",
          "logIndex": "0x205",
          "removed": false
        },
        {
          "address": "0x55d398326f99059ff775485246999027b3197955",
          "topics": [
            "0x8c5be1e5ebec7d5bd14f71427d1e84f3dd0314c0f7b2291e5b200ac8c7c3b925",
            "0x00000000000000000000000037eab7206192beb1736e42732fbdf85894adc271",
            "0x000000000000000000000000000000000022d473030f116ddee9f6b43ac78ba3"
          ],
          "data": "0xfffffffffffffffffffffffffffffffffffffffffffffffffe9cba87a275ffff",
          "blockHash": "0x1cdd89c6b612e67660c81fe89fd6a3c29ce2b00409c4d565867a88b1226c03e4",
          "blockNumber": "0x2c620d0",
          "transactionHash": "0x523651ca95028e94cc745d88a74bfbb9dcc1fe07381332529c36bc23a76a7723",
          "transactionIndex": "0xd8",
          "logIndex": "0x206",
          "removed": false
        },
        {
          "address": "0x0ef2e7602add1733bfdb17ac3094d0421b502ca3",
          "topics": [
            "0xddf252ad1be2c89b69c2b068fc378daa952ba7f163c4a11628f55a4df523b3ef",
            "0x0000000000000000000000009427ed673bcfd398463eba9d04d84f392906354d",
            "0x00000000000000000000000037eab7206192beb1736e42732fbdf85894adc271"
          ],
          "data": "0x0000000000000000000000000000000000000000000000ba94058d8e0e6c7f42",
          "blockHash": "0x1cdd89c6b612e67660c81fe89fd6a3c29ce2b00409c4d565867a88b1226c03e4",
          "blockNumber": "0x2c620d0",
          "transactionHash": "0x523651ca95028e94cc745d88a74bfbb9dcc1fe07381332529c36bc23a76a7723",
          "transactionIndex": "0xd8",
          "logIndex": "0x207",
          "removed": false
        },
        {
          "address": "0x9427ed673bcfd398463eba9d04d84f392906354d",
          "topics": [
            "0x1c411e9a96e071241c2f21f7726b17ae89e3cab4c78be50e062b03a9fffbbad1"
          ],
          "data": "0x000000000000000000000000000000000000000000112c071c215e2744126c8e0000000000000000000000000000000000000000000000209f1f11639ed01be5",
          "blockHash": "0x1cdd89c6b612e67660c81fe89fd6a3c29ce2b00409c4d565867a88b1226c03e4",
          "blockNumber": "0x2c620d0",
          "transactionHash": "0x523651ca95028e94cc745d88a74bfbb9dcc1fe07381332529c36bc23a76a7723",
          "transactionIndex": "0xd8",
          "logIndex": "0x208",
          "removed": false
        },
        {
          "address": "0x9427ed673bcfd398463eba9d04d84f392906354d",
          "topics": [
            "0xd78ad95fa46c994b6551d0da85fc275fe613ce37657fb8d5e3d130840159d822",
            "0x0000000000000000000000001628d966d33b32f9a97ef7bb773546e363c19b26",
            "0x00000000000000000000000037eab7206192beb1736e42732fbdf85894adc271"
          ],
          "data": "0x0000000000000000000000000000000000000000000000000000000000000000000000000000000000000000000000000000000000000000016345785d8a00000000000000000000000000000000000000000000000000ba94058d8e0e6c7f420000000000000000000000000000000000000000000000000000000000000000",
          "blockHash": "0x1cdd89c6b612e67660c81fe89fd6a3c29ce2b00409c4d565867a88b1226c03e4",
          "blockNumber": "0x2c620d0",
          "transactionHash": "0x523651ca95028e94cc745d88a74bfbb9dcc1fe07381332529c36bc23a76a7723",
          "transactionIndex": "0xd8",
          "logIndex": "0x209",
          "removed": false
        }
      ],
      "logsBloom": "0x08210000000000000000000080000200000000100000000000020000000000800000000000000000000000000000000000010000810000010000000000280000000000000000000001004008000000200000000000000800000000000000000000000000000000000000000000000000000000000000000000000010000000000000004000020000008800000000000000000000000000080004004000001000020000000000040000000002000000000400000000000000000000000000000000000002000000000000000000000000200000000000001000000000000000000012000100000000000002000000010000000000000000000000000000000400",
      "type": "0x0",
      "transactionHash": "0x523651ca95028e94cc745d88a74bfbb9dcc1fe07381332529c36bc23a76a7723",
      "transactionIndex": "0xd8",
      "blockHash": "0x1cdd89c6b612e67660c81fe89fd6a3c29ce2b00409c4d565867a88b1226c03e4",
      "blockNumber": "0x2c620d0",
      "gasUsed": "0x2b6a2",
      "effectiveGasPrice": "0x3b9aca00",
      "from": "0x37eab7206192beb1736e42732fbdf85894adc271",
      "to": "0x1628d966d33b32f9a97ef7bb773546e363c19b26",
      "contractAddress": null
    }
  ],
  "libraries": [],
  "pending": [],
  "returns": {},
  "timestamp": 1739198277,
  "chain": 56,
  "commit": "2641398"
}