{
  "transactions": [
    {
      "hash": "0x0c865a4bbb16030d60049dcef0613e0e83673db39c64927d95dbaa71a97377e6",
      "transactionType": "CALL",
      "contractName": null,
      "contractAddress": "0x1628d966d33b32f9a97ef7bb773546e363c19b26",
      "function": "execute(bytes,bytes[],uint256)",
      "arguments": [
        "0x0b18",
        "[0x00000000000000000000000000000000000000000000000000000000000000028000000000000000000000000000000000000000000000000000000000000000, 0x0000000000000000000000000000000000000000000000000000000000000001000000000000000000000000000000000000000000000000000aa87bee538000000000000000000000000000000000000000000000000000000000000000000000000000000000000000000000000000000000000000000000000000000000a000000000000000000000000000000000000000000000000000000000000000000000000000000000000000000000000000000000000000000000000000000004000000000000000000000000bb4cdb9cbd36b01bd1cbaebf2de08d9173bc095c0000000000000000000000007130d2a12b9bcbfae4f2634d864a1ee1ce3ead9c00000000000000000000000055d398326f99059ff775485246999027b31979550000000000000000000000000e09fabb73bd3ade0a17ecc321fd13a19e81ce82]",
        "1738046823"
      ],
      "transaction": {
        "from": "0x6007723dac9bb830f622bb4561e8017f021b9fb5",
        "to": "0x1628d966d33b32f9a97ef7bb773546e363c19b26",
        "gas": "0x56867",
        "value": "0xaa87bee538000",
        "input": "0x3593564c000000000000000000000000000000000000000000000000000000000000006000000000000000000000000000000000000000000000000000000000000000a00000000000000000000000000000000000000000000000000000000067987d6700000000000000000000000000000000000000000000000000000000000000020b180000000000000000000000000000000000000000000000000000000000000000000000000000000000000000000000000000000000000000000000000002000000000000000000000000000000000000000000000000000000000000004000000000000000000000000000000000000000000000000000000000000000a000000000000000000000000000000000000000000000000000000000000000400000000000000000000000000000000000000000000000000000000000000002800000000000000000000000000000000000000000000000000000000000000000000000000000000000000000000000000000000000000000000000000001400000000000000000000000000000000000000000000000000000000000000001000000000000000000000000000000000000000000000000000aa87bee538000000000000000000000000000000000000000000000000000000000000000000000000000000000000000000000000000000000000000000000000000000000a000000000000000000000000000000000000000000000000000000000000000000000000000000000000000000000000000000000000000000000000000000004000000000000000000000000bb4cdb9cbd36b01bd1cbaebf2de08d9173bc095c0000000000000000000000007130d2a12b9bcbfae4f2634d864a1ee1ce3ead9c00000000000000000000000055d398326f99059ff775485246999027b31979550000000000000000000000000e09fabb73bd3ade0a17ecc321fd13a19e81ce82",
        "nonce": "0x3",
        "chainId": "0x38"
      },
      "additionalContracts": [],
      "isFixedGasLimit": false
    }
  ],
  "receipts": [
    {
      "status": "0x1",
      "cumulativeGasUsed": "0xe2a12b",
      "logs": [
        {
          "address": "0xbb4cdb9cbd36b01bd1cbaebf2de08d9173bc095c",
          "topics": [
            "0xe1fffcc4923d04b559f4d29a8bfc6cda04eb5b0d3c460751c2402c5c5cc9109c",
            "0x0000000000000000000000001628d966d33b32f9a97ef7bb773546e363c19b26"
          ],
          "data": "0x000000000000000000000000000000000000000000000000000aa87bee538000",
          "blockHash": "0x9704712a3acbc81806bf661a4bf0419b1686aeacf6f60f48fa429ae28cb993a9",
          "blockNumber": "0x2c0458f",
          "transactionHash": "0x0c865a4bbb16030d60049dcef0613e0e83673db39c64927d95dbaa71a97377e6",
          "transactionIndex": "0xc3",
          "logIndex": "0x230",
          "removed": false
        },
        {
          "address": "0xbb4cdb9cbd36b01bd1cbaebf2de08d9173bc095c",
          "topics": [
            "0xddf252ad1be2c89b69c2b068fc378daa952ba7f163c4a11628f55a4df523b3ef",
            "0x0000000000000000000000001628d966d33b32f9a97ef7bb773546e363c19b26",
            "0x00000000000000000000000061eb789d75a95caa3ff50ed7e47b96c132fec082"
          ],
          "data": "0x000000000000000000000000000000000000000000000000000aa87bee538000",
          "blockHash": "0x9704712a3acbc81806bf661a4bf0419b1686aeacf6f60f48fa429ae28cb993a9",
          "blockNumber": "0x2c0458f",
          "transactionHash": "0x0c865a4bbb16030d60049dcef0613e0e83673db39c64927d95dbaa71a97377e6",
          "transactionIndex": "0xc3",
          "logIndex": "0x231",
          "removed": false
        },
        {
          "address": "0x7130d2a12b9bcbfae4f2634d864a1ee1ce3ead9c",
          "topics": [
            "0xddf252ad1be2c89b69c2b068fc378daa952ba7f163c4a11628f55a4df523b3ef",
            "0x00000000000000000000000061eb789d75a95caa3ff50ed7e47b96c132fec082",
            "0x0000000000000000000000003f803ec2b816ea7f06ec76aa2b6f2532f9892d62"
          ],
          "data": "0x000000000000000000000000000000000000000000000000000012048886d472",
          "blockHash": "0x9704712a3acbc81806bf661a4bf0419b1686aeacf6f60f48fa429ae28cb993a9",
          "blockNumber": "0x2c0458f",
          "transactionHash": "0x0c865a4bbb16030d60049dcef0613e0e83673db39c64927d95dbaa71a97377e6",
          "transactionIndex": "0xc3",
          "logIndex": "0x232",
          "removed": false
        },
        {
          "address": "0x61eb789d75a95caa3ff50ed7e47b96c132fec082",
          "topics": [
            "0x1c411e9a96e071241c2f21f7726b17ae89e3cab4c78be50e062b03a9fffbbad1"
          ],
          "data": "0x0000000000000000000000000000000000000000000000010daad6f4df910b6000000000000000000000000000000000000000000000009f1e9c9e418effc345",
          "blockHash": "0x9704712a3acbc81806bf661a4bf0419b1686aeacf6f60f48fa429ae28cb993a9",
          "blockNumber": "0x2c0458f",
          "transactionHash": "0x0c865a4bbb16030d60049dcef0613e0e83673db39c64927d95dbaa71a97377e6",
          "transactionIndex": "0xc3",
          "logIndex": "0x233",
          "removed": false
        },
        {
          "address": "0x61eb789d75a95caa3ff50ed7e47b96c132fec082",
          "topics": [
            "0xd78ad95fa46c994b6551d0da85fc275fe613ce37657fb8d5e3d130840159d822",
            "0x0000000000000000000000001628d966d33b32f9a97ef7bb773546e363c19b26",
            "0x0000000000000000000000003f803ec2b816ea7f06ec76aa2b6f2532f9892d62"
          ],
          "data": "0x0000000000000000000000000000000000000000000000000000000000000000000000000000000000000000000000000000000000000000000aa87bee538000000000000000000000000000000000000000000000000000000012048886d4720000000000000000000000000000000000000000000000000000000000000000",
          "blockHash": "0x9704712a3acbc81806bf661a4bf0419b1686aeacf6f60f48fa429ae28cb993a9",
          "blockNumber": "0x2c0458f",
          "transactionHash": "0x0c865a4bbb16030d60049dcef0613e0e83673db39c64927d95dbaa71a97377e6",
          "transactionIndex": "0xc3",
          "logIndex": "0x234",
          "removed": false
        },
        {
          "address": "0x55d398326f99059ff775485246999027b3197955",
          "topics": [
            "0xddf252ad1be2c89b69c2b068fc378daa952ba7f163c4a11628f55a4df523b3ef",
            "0x0000000000000000000000003f803ec2b816ea7f06ec76aa2b6f2532f9892d62",
            "0x000000000000000000000000a39af17ce4a8eb807e076805da1e2b8ea7d0755b"
          ],
          "data": "0x0000000000000000000000000000000000000000000000001c38d29641039c2b",
          "blockHash": "0x9704712a3acbc81806bf661a4bf0419b1686aeacf6f60f48fa429ae28cb993a9",
          "blockNumber": "0x2c0458f",
          "transactionHash": "0x0c865a4bbb16030d60049dcef0613e0e83673db39c64927d95dbaa71a97377e6",
          "transactionIndex": "0xc3",
          "logIndex": "0x235",
          "removed": false
        },
        {
          "address": "0x3f803ec2b816ea7f06ec76aa2b6f2532f9892d62",
          "topics": [
            "0x1c411e9a96e071241c2f21f7726b17ae89e3cab4c78be50e062b03a9fffbbad1"
          ],
          "data": "0x0000000000000000000000000000000000000000000012b379ea13e5bfad97070000000000000000000000000000000000000000000000000be8e4139e09c819",
          "blockHash": "0x9704712a3acbc81806bf661a4bf0419b1686aeacf6f60f48fa429ae28cb993a9",
          "blockNumber": "0x2c0458f",
          "transactionHash": "0x0c865a4bbb16030d60049dcef0613e0e83673db39c64927d95dbaa71a97377e6",
          "transactionIndex": "0xc3",
          "logIndex": "0x236",
          "removed": false
        },
        {
          "address": "0x3f803ec2b816ea7f06ec76aa2b6f2532f9892d62",
          "topics": [
            "0xd78ad95fa46c994b6551d0da85fc275fe613ce37657fb8d5e3d130840159d822",
            "0x0000000000000000000000001628d966d33b32f9a97ef7bb773546e363c19b26",
            "0x000000000000000000000000a39af17ce4a8eb807e076805da1e2b8ea7d0755b"
          ],
          "data": "0x0000000000000000000000000000000000000000000000000000000000000000000000000000000000000000000000000000000000000000000012048886d4720000000000000000000000000000000000000000000000001c38d29641039c2b0000000000000000000000000000000000000000000000000000000000000000",
          "blockHash": "0x9704712a3acbc81806bf661a4bf0419b1686aeacf6f60f48fa429ae28cb993a9",
          "blockNumber": "0x2c0458f",
          "transactionHash": "0x0c865a4bbb16030d60049dcef0613e0e83673db39c64927d95dbaa71a97377e6",
          "transactionIndex": "0xc3",
          "logIndex": "0x237",
          "removed": false
        },
        {
          "address": "0x0e09fabb73bd3ade0a17ecc321fd13a19e81ce82",
          "topics": [
            "0xddf252ad1be2c89b69c2b068fc378daa952ba7f163c4a11628f55a4df523b3ef",
            "0x000000000000000000000000a39af17ce4a8eb807e076805da1e2b8ea7d0755b",
            "0x0000000000000000000000006007723dac9bb830f622bb4561e8017f021b9fb5"
          ],
          "data": "0x0000000000000000000000000000000000000000000000000e700c11d57eb172",
          "blockHash": "0x9704712a3acbc81806bf661a4bf0419b1686aeacf6f60f48fa429ae28cb993a9",
          "blockNumber": "0x2c0458f",
          "transactionHash": "0x0c865a4bbb16030d60049dcef0613e0e83673db39c64927d95dbaa71a97377e6",
          "transactionIndex": "0xc3",
          "logIndex": "0x238",
          "removed": false
        },
        {
          "address": "0xa39af17ce4a8eb807e076805da1e2b8ea7d0755b",
          "topics": [
            "0x1c411e9a96e071241c2f21f7726b17ae89e3cab4c78be50e062b03a9fffbbad1"
          ],
          "data": "0x0000000000000000000000000000000000000000000033e8fa203cc2eda5372a000000000000000000000000000000000000000000006537b4754d39dd23c21b",
          "blockHash": "0x9704712a3acbc81806bf661a4bf0419b1686aeacf6f60f48fa429ae28cb993a9",
          "blockNumber": "0x2c0458f",
          "transactionHash": "0x0c865a4bbb16030d60049dcef0613e0e83673db39c64927d95dbaa71a97377e6",
          "transactionIndex": "0xc3",
          "logIndex": "0x239",
          "removed": false
        },
        {
          "address": "0xa39af17ce4a8eb807e076805da1e2b8ea7d0755b",
          "topics": [
            "0xd78ad95fa46c994b6551d0da85fc275fe613ce37657fb8d5e3d130840159d822",
            "0x0000000000000000000000001628d966d33b32f9a97ef7bb773546e363c19b26",
            "0x0000000000000000000000006007723dac9bb830f622bb4561e8017f021b9fb5"
          ],
          "data": "0x00000000000000000000000000000000000000000000000000000000000000000000000000000000000000000000000000000000000000001c38d29641039c2b0000000000000000000000000000000000000000000000000e700c11d57eb1720000000000000000000000000000000000000000000000000000000000000000",
          "blockHash": "0x9704712a3acbc81806bf661a4bf0419b1686aeacf6f60f48fa429ae28cb993a9",
          "blockNumber": "0x2c0458f",
          "transactionHash": "0x0c865a4bbb16030d60049dcef0613e0e83673db39c64927d95dbaa71a97377e6",
          "transactionIndex": "0xc3",
          "logIndex": "0x23a",
          "removed": false
        }
      ],
      "logsBloom": "0x00200000000000000000000081000000000000100000800000000000000000800000000000400000600000000000000000000000000000010000000000000000000000000000000001000108000000200080040000002002000400008201040000000000000000000000000000000000000000000000200000000010000000000001000000000000008000008000000000040801004000082000004000000000000000000000000000000002001004000000000000000000000000000000000000000002000000000000000000000000200000000000001000000000000080000000000000000002000008000000000000000008000100400000004000000000",
      "type": "0x0",
      "transactionHash": "0x0c865a4bbb16030d60049dcef0613e0e83673db39c64927d95dbaa71a97377e6",
      "transactionIndex": "0xc3",
      "blockHash": "0x9704712a3acbc81806bf661a4bf0419b1686aeacf6f60f48fa429ae28cb993a9",
      "blockNumber": "0x2c0458f",
      "gasUsed": "0x3b29a",
      "effectiveGasPrice": "0x3b9aca00",
      "from": "0x6007723dac9bb830f622bb4561e8017f021b9fb5",
      "to": "0x1628d966d33b32f9a97ef7bb773546e363c19b26",
      "contractAddress": null
    }
  ],
  "libraries": [],
  "pending": [],
  "returns": {},
  "timestamp": 1738046760,
  "chain": 56,
  "commit": "5a0f4d4"
}