{
  "transactions": [
    {
      "hash": "0xa6f70d3c4561f57d5b06ca6aa8ca632d5f9c52995ff3d5518edd63c4e4a5fa47",
      "transactionType": "CALL",
      "contractName": null,
      "contractAddress": "0x1628d966d33b32f9a97ef7bb773546e363c19b26",
      "function": "execute(bytes,bytes[],uint256)",
      "arguments": [
        "0x0b1a",
        "[0x00000000000000000000000000000000000000000000000000000000000000028000000000000000000000000000000000000000000000000000000000000000, 0x0000000000000000000000000000000000000000000000000000000000000001000000000000000000000000000000000000000000000000000aa87bee538000000000000000000000000000000000000000000000000000000000000000000000000000000000000000000000000000000000000000000000000000000000a000000000000000000000000000000000000000000000000000000000000000000000000000000000000000000000000000000000000000000000000000000042bb4cdb9cbd36b01bd1cbaebf2de08d9173bc095c00006455d398326f99059ff775485246999027b31979550000648ac76a51cc950d9822d68b83fe1ad97b32cd580d000000000000000000000000000000000000000000000000000000000000]",
        "1738832116"
      ],
      "transaction": {
        "from": "0x6007723dac9bb830f622bb4561e8017f021b9fb5",
        "to": "0x1628d966d33b32f9a97ef7bb773546e363c19b26",
        "gas": "0x58f71",
        "value": "0xaa87bee538000",
        "input": "0x3593564c000000000000000000000000000000000000000000000000000000000000006000000000000000000000000000000000000000000000000000000000000000a00000000000000000000000000000000000000000000000000000000067a478f400000000000000000000000000000000000000000000000000000000000000020b1a0000000000000000000000000000000000000000000000000000000000000000000000000000000000000000000000000000000000000000000000000002000000000000000000000000000000000000000000000000000000000000004000000000000000000000000000000000000000000000000000000000000000a000000000000000000000000000000000000000000000000000000000000000400000000000000000000000000000000000000000000000000000000000000002800000000000000000000000000000000000000000000000000000000000000000000000000000000000000000000000000000000000000000000000000001200000000000000000000000000000000000000000000000000000000000000001000000000000000000000000000000000000000000000000000aa87bee538000000000000000000000000000000000000000000000000000000000000000000000000000000000000000000000000000000000000000000000000000000000a000000000000000000000000000000000000000000000000000000000000000000000000000000000000000000000000000000000000000000000000000000042bb4cdb9cbd36b01bd1cbaebf2de08d9173bc095c00006455d398326f99059ff775485246999027b31979550000648ac76a51cc950d9822d68b83fe1ad97b32cd580d000000000000000000000000000000000000000000000000000000000000",
        "nonce": "0x7",
        "chainId": "0x38"
      },
      "additionalContracts": [],
      "isFixedGasLimit": false
    }
  ],
  "receipts": [
    {
      "status": "0x1",
      "cumulativeGasUsed": "0x10da6e5",
      "logs": [
        {
          "address": "0xbb4cdb9cbd36b01bd1cbaebf2de08d9173bc095c",
          "topics": [
            "0xe1fffcc4923d04b559f4d29a8bfc6cda04eb5b0d3c460751c2402c5c5cc9109c",
            "0x0000000000000000000000001628d966d33b32f9a97ef7bb773546e363c19b26"
          ],
          "data": "0x000000000000000000000000000000000000000000000000000aa87bee538000",
          "blockHash": "0x8f1b588394621f91e77ec40c98f118f2bdd496fa454db709bcaeb2ef58c880e4",
          "blockNumber": "0x2c44401",
          "transactionHash": "0xa6f70d3c4561f57d5b06ca6aa8ca632d5f9c52995ff3d5518edd63c4e4a5fa47",
          "transactionIndex": "0x6c",
          "logIndex": "0x3eb",
          "removed": false
        },
        {
          "address": "0x55d398326f99059ff775485246999027b3197955",
          "topics": [
            "0xddf252ad1be2c89b69c2b068fc378daa952ba7f163c4a11628f55a4df523b3ef",
            "0x000000000000000000000000172fcd41e0913e95784454622d1c3724f546f849",
            "0x0000000000000000000000001628d966d33b32f9a97ef7bb773546e363c19b26"
          ],
          "data": "0x000000000000000000000000000000000000000000000000180af5c61daf15fd",
          "blockHash": "0x8f1b588394621f91e77ec40c98f118f2bdd496fa454db709bcaeb2ef58c880e4",
          "blockNumber": "0x2c44401",
          "transactionHash": "0xa6f70d3c4561f57d5b06ca6aa8ca632d5f9c52995ff3d5518edd63c4e4a5fa47",
          "transactionIndex": "0x6c",
          "logIndex": "0x3ec",
          "removed": false
        },
        {
          "address": "0xbb4cdb9cbd36b01bd1cbaebf2de08d9173bc095c",
          "topics": [
            "0xddf252ad1be2c89b69c2b068fc378daa952ba7f163c4a11628f55a4df523b3ef",
            "0x0000000000000000000000001628d966d33b32f9a97ef7bb773546e363c19b26",
            "0x000000000000000000000000172fcd41e0913e95784454622d1c3724f546f849"
          ],
          "data": "0x000000000000000000000000000000000000000000000000000aa87bee538000",
          "blockHash": "0x8f1b588394621f91e77ec40c98f118f2bdd496fa454db709bcaeb2ef58c880e4",
          "blockNumber": "0x2c44401",
          "transactionHash": "0xa6f70d3c4561f57d5b06ca6aa8ca632d5f9c52995ff3d5518edd63c4e4a5fa47",
          "transactionIndex": "0x6c",
          "logIndex": "0x3ed",
          "removed": false
        },
        {
          "address": "0x172fcd41e0913e95784454622d1c3724f546f849",
          "topics": [
            "0x19b47279256b2a23a1665c810c8d55a1758940ee09377d4f8d26497a3577dc83",
            "0x0000000000000000000000001628d966d33b32f9a97ef7bb773546e363c19b26",
            "0x0000000000000000000000001628d966d33b32f9a97ef7bb773546e363c19b26"
          ],
          "data": "0xffffffffffffffffffffffffffffffffffffffffffffffffe7f50a39e250ea03000000000000000000000000000000000000000000000000000aa87bee53800000000000000000000000000000000000000000000aa701f0fef19ca6dc7e482000000000000000000000000000000000000000000000b06d80b0c388698cb550ffffffffffffffffffffffffffffffffffffffffffffffffffffffffffff07980000000000000000000000000000000000000000000000000000000000000000000000000000000000000000000000000000000000000000000000170cdc1e00",
          "blockHash": "0x8f1b588394621f91e77ec40c98f118f2bdd496fa454db709bcaeb2ef58c880e4",
          "blockNumber": "0x2c44401",
          "transactionHash": "0xa6f70d3c4561f57d5b06ca6aa8ca632d5f9c52995ff3d5518edd63c4e4a5fa47",
          "transactionIndex": "0x6c",
          "logIndex": "0x3ee",
          "removed": false
        },
        {
          "address": "0x8ac76a51cc950d9822d68b83fe1ad97b32cd580d",
          "topics": [
            "0xddf252ad1be2c89b69c2b068fc378daa952ba7f163c4a11628f55a4df523b3ef",
            "0x00000000000000000000000092b7807bf19b7dddf89b706143896d05228f3121",
            "0x0000000000000000000000006007723dac9bb830f622bb4561e8017f021b9fb5"
          ],
          "data": "0x000000000000000000000000000000000000000000000000180c172290af487f",
          "blockHash": "0x8f1b588394621f91e77ec40c98f118f2bdd496fa454db709bcaeb2ef58c880e4",
          "blockNumber": "0x2c44401",
          "transactionHash": "0xa6f70d3c4561f57d5b06ca6aa8ca632d5f9c52995ff3d5518edd63c4e4a5fa47",
          "transactionIndex": "0x6c",
          "logIndex": "0x3ef",
          "removed": false
        },
        {
          "address": "0x55d398326f99059ff775485246999027b3197955",
          "topics": [
            "0xddf252ad1be2c89b69c2b068fc378daa952ba7f163c4a11628f55a4df523b3ef",
            "0x0000000000000000000000001628d966d33b32f9a97ef7bb773546e363c19b26",
            "0x00000000000000000000000092b7807bf19b7dddf89b706143896d05228f3121"
          ],
          "data": "0x000000000000000000000000000000000000000000000000180af5c61daf15fd",
          "blockHash": "0x8f1b588394621f91e77ec40c98f118f2bdd496fa454db709bcaeb2ef58c880e4",
          "blockNumber": "0x2c44401",
          "transactionHash": "0xa6f70d3c4561f57d5b06ca6aa8ca632d5f9c52995ff3d5518edd63c4e4a5fa47",
          "transactionIndex": "0x6c",
          "logIndex": "0x3f0",
          "removed": false
        },
        {
          "address": "0x92b7807bf19b7dddf89b706143896d05228f3121",
          "topics": [
            "0x19b47279256b2a23a1665c810c8d55a1758940ee09377d4f8d26497a3577dc83",
            "0x0000000000000000000000001628d966d33b32f9a97ef7bb773546e363c19b26",
            "0x0000000000000000000000006007723dac9bb830f622bb4561e8017f021b9fb5"
          ],
          "data": "0x000000000000000000000000000000000000000000000000180af5c61daf15fdffffffffffffffffffffffffffffffffffffffffffffffffe7f3e8dd6f50b781000000000000000000000000000000000000000100094b70dd0cfe5550ba14fe000000000000000000000000000000000000000067c037fc0e2b8f488aed9bf80000000000000000000000000000000000000000000000000000000000000002000000000000000000000000000000000000000000000000000033ff421ca91f0000000000000000000000000000000000000000000000000000000000000000",
          "blockHash": "0x8f1b588394621f91e77ec40c98f118f2bdd496fa454db709bcaeb2ef58c880e4",
          "blockNumber": "0x2c44401",
          "transactionHash": "0xa6f70d3c4561f57d5b06ca6aa8ca632d5f9c52995ff3d5518edd63c4e4a5fa47",
          "transactionIndex": "0x6c",
          "logIndex": "0x3f1",
          "removed": false
        }
      ],
      "logsBloom": "0x00000000000000000000000001000000000000100000000000080000000000800000000000000000200000000002000000000000000000000020000000000080040000000040000001000008000000000000000000002000000400008000000000000000000000000400000000000000000080000000080000000010800400000000000000000040008020000000008000040001000000000000000000000000000000000000000002000002000000000000000000000000000000000000000000000002000000000000000000000000200000000000000000000000000080000000000000004000000000000000000100000000000000480000000000000000",
      "type": "0x0",
      "transactionHash": "0xa6f70d3c4561f57d5b06ca6aa8ca632d5f9c52995ff3d5518edd63c4e4a5fa47",
      "transactionIndex": "0x6c",
      "blockHash": "0x8f1b588394621f91e77ec40c98f118f2bdd496fa454db709bcaeb2ef58c880e4",
      "blockNumber": "0x2c44401",
      "gasUsed": "0x406ab",
      "effectiveGasPrice": "0x3b9aca00",
      "from": "0x6007723dac9bb830f622bb4561e8017f021b9fb5",
      "to": "0x1628d966d33b32f9a97ef7bb773546e363c19b26",
      "contractAddress": null
    }
  ],
  "libraries": [],
  "pending": [],
  "returns": {},
  "timestamp": 1738832050,
  "chain": 56,
  "commit": "b033f7e"
}