{
  "transactions": [
    {
      "hash": "0x0af9e8256f43484f5d438f3887cd3f3539f10b7ab393c21d98daf81f63a2424a",
      "transactionType": "CALL",
      "contractName": null,
      "contractAddress": "0x1628d966d33b32f9a97ef7bb773546e363c19b26",
      "function": "execute(bytes,bytes[],uint256)",
      "arguments": [
        "0x0b",
        "[0x00000000000000000000000000000000000000000000000000000000000000018000000000000000000000000000000000000000000000000000000000000000]",
        "1738045236"
      ],
      "transaction": {
        "from": "0x6007723dac9bb830f622bb4561e8017f021b9fb5",
        "to": "0x1628d966d33b32f9a97ef7bb773546e363c19b26",
        "gas": "0x17f5c",
        "value": "0x11c37937e08000",
        "input": "0x3593564c000000000000000000000000000000000000000000000000000000000000006000000000000000000000000000000000000000000000000000000000000000a0000000000000000000000000000000000000000000000000000000006798773400000000000000000000000000000000000000000000000000000000000000010b0000000000000000000000000000000000000000000000000000000000000000000000000000000000000000000000000000000000000000000000000000010000000000000000000000000000000000000000000000000000000000000020000000000000000000000000000000000000000000000000000000000000004000000000000000000000000000000000000000000000000000000000000000018000000000000000000000000000000000000000000000000000000000000000",
        "nonce": "0x0",
        "chainId": "0x38"
      },
      "additionalContracts": [],
      "isFixedGasLimit": false
    }
  ],
  "receipts": [
    {
      "status": "0x1",
      "cumulativeGasUsed": "0x702729",
      "logs": [
        {
          "address": "0xbb4cdb9cbd36b01bd1cbaebf2de08d9173bc095c",
          "topics": [
            "0xe1fffcc4923d04b559f4d29a8bfc6cda04eb5b0d3c460751c2402c5c5cc9109c",
            "0x0000000000000000000000001628d966d33b32f9a97ef7bb773546e363c19b26"
          ],
          "data": "0x0000000000000000000000000000000000000000000000000011c37937e08000",
          "blockHash": "0x3fc3fda7d0064f5e32432d5301258e950656a472bdd5ba7dc505f08eea0b8cd4",
          "blockNumber": "0x2c04378",
          "transactionHash": "0x0af9e8256f43484f5d438f3887cd3f3539f10b7ab393c21d98daf81f63a2424a",
          "transactionIndex": "0x60",
          "logIndex": "0xaf",
          "removed": false
        },
        {
          "address": "0xbb4cdb9cbd36b01bd1cbaebf2de08d9173bc095c",
          "topics": [
            "0xddf252ad1be2c89b69c2b068fc378daa952ba7f163c4a11628f55a4df523b3ef",
            "0x0000000000000000000000001628d966d33b32f9a97ef7bb773546e363c19b26",
            "0x0000000000000000000000006007723dac9bb830f622bb4561e8017f021b9fb5"
          ],
          "data": "0x0000000000000000000000000000000000000000000000000011c37937e08000",
          "blockHash": "0x3fc3fda7d0064f5e32432d5301258e950656a472bdd5ba7dc505f08eea0b8cd4",
          "blockNumber": "0x2c04378",
          "transactionHash": "0x0af9e8256f43484f5d438f3887cd3f3539f10b7ab393c21d98daf81f63a2424a",
          "transactionIndex": "0x60",
          "logIndex": "0xb0",
          "removed": false
        }
      ],
      "logsBloom": "0x00000000000000000000000001000000000000100000000000000000000000800000000000000000200000000000000000000000000000000000000000000000000000000000000000000008000000000000000000002000000400008000000000000000000000000000000000000000000000000000000000000010000000000000000000000000000000000000000000040001000000000000000000000000000000000000000000000002000000000000000000000000000000000000000000000002000000000000000000000000000000000000000000000000000080000000000000000000000000000000000000000000000000400000000000000000",
      "type": "0x0",
      "transactionHash": "0x0af9e8256f43484f5d438f3887cd3f3539f10b7ab393c21d98daf81f63a2424a",
      "transactionIndex": "0x60",
      "blockHash": "0x3fc3fda7d0064f5e32432d5301258e950656a472bdd5ba7dc505f08eea0b8cd4",
      "blockNumber": "0x2c04378",
      "gasUsed": "0x1158d",
      "effectiveGasPrice": "0x3b9aca00",
      "from": "0x6007723dac9bb830f622bb4561e8017f021b9fb5",
      "to": "0x1628d966d33b32f9a97ef7bb773546e363c19b26",
      "contractAddress": null
    }
  ],
  "libraries": [],
  "pending": [],
  "returns": {},
  "timestamp": 1738045155,
  "chain": 56,
  "commit": "5a0f4d4"
}