{
  "transactions": [
    {
      "hash": "0xf501dfa2dc41227f88435244e0de09a9dfb8de129aeb4d378c06e6255f781803",
      "transactionType": "CALL",
      "contractName": null,
      "contractAddress": "0x55d398326f99059ff775485246999027b3197955",
      "function": "approve(address,uint256)",
      "arguments": [
        "0x000000000022D473030F116dDEE9F6B43aC78BA3",
        "115792089237316195423570985008687907853269984665640564039457584007913129639935"
      ],
      "transaction": {
        "from": "0x6007723dac9bb830f622bb4561e8017f021b9fb5",
        "to": "0x55d398326f99059ff775485246999027b3197955",
        "gas": "0xfa98",
        "value": "0x0",
        "input": "0x095ea7b3000000000000000000000000000000000022d473030f116ddee9f6b43ac78ba3ffffffffffffffffffffffffffffffffffffffffffffffffffffffffffffffff",
        "nonce": "0xb",
        "chainId": "0x38"
      },
      "additionalContracts": [],
      "isFixedGasLimit": false
    },
    {
      "hash": "0xb2955ff74c9b704ae8067c1089761fc0c457a3405d7d9369ca9c70fcca89d123",
      "transactionType": "CALL",
      "contractName": null,
      "contractAddress": "0x1628d966d33b32f9a97ef7bb773546e363c19b26",
      "function": "execute(bytes,bytes[],uint256)",
      "arguments": [
        "0x0a18",
        "[0x00000000000000000000000055d398326f99059ff775485246999027b3197955000000000000000000000000000000000000000000000000016345785d8a0000000000000000000000000000000000000000000000000000000000000000000000000000000000000000000000000000000000000000000000000000000000000000000000000000000000001628d966d33b32f9a97ef7bb773546e363c19b260000000000000000000000000000000000000000000000000000000123c13fa700000000000000000000000000000000000000000000000000000000000000e00000000000000000000000000000000000000000000000000000000000000041fe98cb94f7cf233b8c4d44514ae939f7122d996c1659df8e0552756b521071895885416c638781f5e7e9de9ec70592a800bd3c5790380e6879a16569132348fb1b00000000000000000000000000000000000000000000000000000000000000, 0x0000000000000000000000000000000000000000000000000000000000000001000000000000000000000000000000000000000000000000016345785d8a0000000000000000000000000000000000000000000000000000000000000000000000000000000000000000000000000000000000000000000000000000000000a00000000000000000000000000000000000000000000000000000000000000001000000000000000000000000000000000000000000000000000000000000000200000000000000000000000055d398326f99059ff775485246999027b31979550000000000000000000000000ef2e7602add1733bfdb17ac3094d0421b502ca3]",
        "4894834599"
      ],
      "transaction": {
        "from": "0x6007723dac9bb830f622bb4561e8017f021b9fb5",
        "to": "0x1628d966d33b32f9a97ef7bb773546e363c19b26",
        "gas": "0x3bf65",
        "value": "0x0",
        "input": "0x3593564c000000000000000000000000000000000000000000000000000000000000006000000000000000000000000000000000000000000000000000000000000000a00000000000000000000000000000000000000000000000000000000123c13fa700000000000000000000000000000000000000000000000000000000000000020a180000000000000000000000000000000000000000000000000000000000000000000000000000000000000000000000000000000000000000000000000002000000000000000000000000000000000000000000000000000000000000004000000000000000000000000000000000000000000000000000000000000001c0000000000000000000000000000000000000000000000000000000000000016000000000000000000000000055d398326f99059ff775485246999027b3197955000000000000000000000000000000000000000000000000016345785d8a0000000000000000000000000000000000000000000000000000000000000000000000000000000000000000000000000000000000000000000000000000000000000000000000000000000000001628d966d33b32f9a97ef7bb773546e363c19b260000000000000000000000000000000000000000000000000000000123c13fa700000000000000000000000000000000000000000000000000000000000000e00000000000000000000000000000000000000000000000000000000000000041fe98cb94f7cf233b8c4d44514ae939f7122d996c1659df8e0552756b521071895885416c638781f5e7e9de9ec70592a800bd3c5790380e6879a16569132348fb1b0000000000000000000000000000000000000000000000000000000000000000000000000000000000000000000000000000000000000000000000000001000000000000000000000000000000000000000000000000000000000000000001000000000000000000000000000000000000000000000000016345785d8a0000000000000000000000000000000000000000000000000000000000000000000000000000000000000000000000000000000000000000000000000000000000a00000000000000000000000000000000000000000000000000000000000000001000000000000000000000000000000000000000000000000000000000000000200000000000000000000000055d398326f99059ff775485246999027b31979550000000000000000000000000ef2e7602add1733bfdb17ac3094d0421b502ca3",
        "nonce": "0xc",
        "chainId": "0x38"
      },
      "additionalContracts": [],
      "isFixedGasLimit": false
    }
  ],
  "receipts": [
    {
      "status": "0x1",
      "cumulativeGasUsed": "0xcbf941",
      "logs": [
        {
          "address": "0x55d398326f99059ff775485246999027b3197955",
          "topics": [
            "0x8c5be1e5ebec7d5bd14f71427d1e84f3dd0314c0f7b2291e5b200ac8c7c3b925",
            "0x0000000000000000000000006007723dac9bb830f622bb4561e8017f021b9fb5",
            "0x000000000000000000000000000000000022d473030f116ddee9f6b43ac78ba3"
          ],
          "data": "0xffffffffffffffffffffffffffffffffffffffffffffffffffffffffffffffff",
          "blockHash": "0xab4b94a28c71327131f8786d1f8ae232c1a5d434f7328bdfdeaa44f979ad25c9",
          "blockNumber": "0x2c620af",
          "transactionHash": "0xf501dfa2dc41227f88435244e0de09a9dfb8de129aeb4d378c06e6255f781803",
          "transactionIndex": "0x67",
          "logIndex": "0x168",
          "removed": false
        }
      ],
      "logsBloom": "0x00000000000000000000000001000000000000000000000000000000000000000000000000000000200000000000000000000000800000000000000000200000000000000000000001004000000000000000000000002800000000000000000000000000000000000000000000000000000000000000000000000000000000000000000000000000008000000000000000000000000000000000000000000000020000000000000000000000000000000000000000000000000000000000000000000000000000000000000000000000200000000000000000000000000000000010000000000000000000000000000000000000000000000000000000000000",
      "type": "0x0",
      "transactionHash": "0xf501dfa2dc41227f88435244e0de09a9dfb8de129aeb4d378c06e6255f781803",
      "transactionIndex": "0x67",
      "blockHash": "0xab4b94a28c71327131f8786d1f8ae232c1a5d434f7328bdfdeaa44f979ad25c9",
      "blockNumber": "0x2c620af",
      "gasUsed": "0xb56e",
      "effectiveGasPrice": "0x3b9aca00",
      "from": "0x6007723dac9bb830f622bb4561e8017f021b9fb5",
      "to": "0x55d398326f99059ff775485246999027b3197955",
      "contractAddress": null
    },
    {
      "status": "0x1",
      "cumulativeGasUsed": "0xd14e66",
      "logs": [
        {
          "address": "0x000000000022d473030f116ddee9f6b43ac78ba3",
          "topics": [
            "0xc6a377bfc4eb120024a8ac08eef205be16b817020812c73223e81d1bdb9708ec",
            "0x0000000000000000000000006007723dac9bb830f622bb4561e8017f021b9fb5",
            "0x00000000000000000000000055d398326f99059ff775485246999027b3197955",
            "0x0000000000000000000000001628d966d33b32f9a97ef7bb773546e363c19b26"
          ],
          "data": "0x000000000000000000000000000000000000000000000000016345785d8a000000000000000000000000000000000000000000000000000000000000000000000000000000000000000000000000000000000000000000000000000000000000",
          "blockHash": "0xab4b94a28c71327131f8786d1f8ae232c1a5d434f7328bdfdeaa44f979ad25c9",
          "blockNumber": "0x2c620af",
          "transactionHash": "0xb2955ff74c9b704ae8067c1089761fc0c457a3405d7d9369ca9c70fcca89d123",
          "transactionIndex": "0x6c",
          "logIndex": "0x16d",
          "removed": false
        },
        {
          "address": "0x55d398326f99059ff775485246999027b3197955",
          "topics": [
            "0xddf252ad1be2c89b69c2b068fc378daa952ba7f163c4a11628f55a4df523b3ef",
            "0x0000000000000000000000006007723dac9bb830f622bb4561e8017f021b9fb5",
            "0x0000000000000000000000009427ed673bcfd398463eba9d04d84f392906354d"
          ],
          "data": "0x000000000000000000000000000000000000000000000000016345785d8a0000",
          "blockHash": "0xab4b94a28c71327131f8786d1f8ae232c1a5d434f7328bdfdeaa44f979ad25c9",
          "blockNumber": "0x2c620af",
          "transactionHash": "0xb2955ff74c9b704ae8067c1089761fc0c457a3405d7d9369ca9c70fcca89d123",
          "transactionIndex": "0x6c",
          "logIndex": "0x16e",
          "removed": false
        },
        {
          "address": "0x55d398326f99059ff775485246999027b3197955",
          "topics": [
            "0x8c5be1e5ebec7d5bd14f71427d1e84f3dd0314c0f7b2291e5b200ac8c7c3b925",
            "0x0000000000000000000000006007723dac9bb830f622bb4561e8017f021b9fb5",
            "0x000000000000000000000000000000000022d473030f116ddee9f6b43ac78ba3"
          ],
          "data": "0xfffffffffffffffffffffffffffffffffffffffffffffffffe9cba87a275ffff",
          "blockHash": "0xab4b94a28c71327131f8786d1f8ae232c1a5d434f7328bdfdeaa44f979ad25c9",
          "blockNumber": "0x2c620af",
          "transactionHash": "0xb2955ff74c9b704ae8067c1089761fc0c457a3405d7d9369ca9c70fcca89d123",
          "transactionIndex": "0x6c",
          "logIndex": "0x16f",
          "removed": false
        },
        {
          "address": "0x0ef2e7602add1733bfdb17ac3094d0421b502ca3",
          "topics": [
            "0xddf252ad1be2c89b69c2b068fc378daa952ba7f163c4a11628f55a4df523b3ef",
            "0x0000000000000000000000009427ed673bcfd398463eba9d04d84f392906354d",
            "0x0000000000000000000000006007723dac9bb830f622bb4561e8017f021b9fb5"
          ],
          "data": "0x0000000000000000000000000000000000000000000000baa3e1c0d152cc1035",
          "blockHash": "0xab4b94a28c71327131f8786d1f8ae232c1a5d434f7328bdfdeaa44f979ad25c9",
          "blockNumber": "0x2c620af",
          "transactionHash": "0xb2955ff74c9b704ae8067c1089761fc0c457a3405d7d9369ca9c70fcca89d123",
          "transactionIndex": "0x6c",
          "logIndex": "0x170",
          "removed": false
        },
        {
          "address": "0x9427ed673bcfd398463eba9d04d84f392906354d",
          "topics": [
            "0x1c411e9a96e071241c2f21f7726b17ae89e3cab4c78be50e062b03a9fffbbad1"
          ],
          "data": "0x000000000000000000000000000000000000000000112cc1b026ebb5527eebd00000000000000000000000000000000000000000000000209dbbcbeb41461be5",
          "blockHash": "0xab4b94a28c71327131f8786d1f8ae232c1a5d434f7328bdfdeaa44f979ad25c9",
          "blockNumber": "0x2c620af",
          "transactionHash": "0xb2955ff74c9b704ae8067c1089761fc0c457a3405d7d9369ca9c70fcca89d123",
          "transactionIndex": "0x6c",
          "logIndex": "0x171",
          "removed": false
        },
        {
          "address": "0x9427ed673bcfd398463eba9d04d84f392906354d",
          "topics": [
            "0xd78ad95fa46c994b6551d0da85fc275fe613ce37657fb8d5e3d130840159d822",
            "0x0000000000000000000000001628d966d33b32f9a97ef7bb773546e363c19b26",
            "0x0000000000000000000000006007723dac9bb830f622bb4561e8017f021b9fb5"
          ],
          "data": "0x0000000000000000000000000000000000000000000000000000000000000000000000000000000000000000000000000000000000000000016345785d8a00000000000000000000000000000000000000000000000000baa3e1c0d152cc10350000000000000000000000000000000000000000000000000000000000000000",
          "blockHash": "0xab4b94a28c71327131f8786d1f8ae232c1a5d434f7328bdfdeaa44f979ad25c9",
          "blockNumber": "0x2c620af",
          "transactionHash": "0xb2955ff74c9b704ae8067c1089761fc0c457a3405d7d9369ca9c70fcca89d123",
          "transactionIndex": "0x6c",
          "logIndex": "0x172",
          "removed": false
        }
      ],
      "logsBloom": "0x00210000000000000000000081000000000000100000000000020000000000800000000000000000200000000000000000010000800000010000000000280000000000000000000001004008000000200000000000002800000000000000000000000000000000000000000000000000000000000000000000000010000000000000004000020000008800000000000000000000000000080004004000001000020000000000040000000002000000000400000000000000000000000000000000000002000000000000000000000000200000000000001000000000000000000012000100000000000002000000010000000000000000000000000000000400",
      "type": "0x0",
      "transactionHash": "0xb2955ff74c9b704ae8067c1089761fc0c457a3405d7d9369ca9c70fcca89d123",
      "transactionIndex": "0x6c",
      "blockHash": "0xab4b94a28c71327131f8786d1f8ae232c1a5d434f7328bdfdeaa44f979ad25c9",
      "blockNumber": "0x2c620af",
      "gasUsed": "0x2b696",
      "effectiveGasPrice": "0x3b9aca00",
      "from": "0x6007723dac9bb830f622bb4561e8017f021b9fb5",
      "to": "0x1628d966d33b32f9a97ef7bb773546e363c19b26",
      "contractAddress": null
    }
  ],
  "libraries": [],
  "pending": [],
  "returns": {},
  "timestamp": 1739198178,
  "chain": 56,
  "commit": "2641398"
}